:100000000C94BC070C9400080C9400080C94000895
:100010000C9400080C9400080C9400080C94000840
:100020000C9400080C9400080C94F20D0C94C20E71
:100030000C946C1F0C9400080C9400080C9400089D
:100040000C9400080C9400080C9400080C94000810
:100050000C9400080C94D31F0C9400080C94000816
:100060000C9400080C9400080C9400080C940008F0
:100070000C9400080C9400080C9400080C940008E0
:100080000C9400080C9400080C9400080C940008D0
:100090000C9400080C9400080C9400080C940008C0
:1000A0000C9400080C9400080C9400082A104C10C2
:1000B00038114C1038118E10B210381107111A1166
:1000C0006414641492149214E7142315141714176B
:1000D0003B15141732163216EE16141714170217A2
:1000E0009328BB28FA26A429A4294828A429A429AE
:1000F000E728A429FA286F29A429A429A429A42936
:1001000044292B29A4291429A429D428A429A429C1
:100110009E299E299E299E299E299E299E299E29A7
:100120009E299C29A4299C29A429A429A429A4297D
:10013000A429A429A429A429A429A429A4299C295F
:10014000A429A42948282928A029A029A029A02930
:10015000A029A029A029A029A029A029A029A02957
:100160008129A429A728F1A1271E1F2021222324A9
:100170002526271E1F20271E1F2021222324252657
:10018000271E1F20271E1F20212223242526271E4D
:10019000002027001F20212223242526271E1F2080
:1001A000271E1F00000023000026271E1F200A0014
:1001B0002530313662003A200025303258000A726C
:1001C0002F632030313233343536373839414243AA
:1001D0004445460A000A002530325800626F756EA9
:1001E0006365213A20005B735D004B6579626F6146
:1001F00072642073746172742E0A00555342206336
:100200006F6E666967757265642E0A005B575D00E4
:100210005B535D005B525D005B445D005B435D00D2
:100220000E036A0075006C00690061006E0000003A
:100230000E036A0075006C00690061006E0000002A
:100240000403090409028D00050100A0320904001D
:10025000000103010100092111010001223F0007F3
:1002600005810308000A09040100010301020009D5
:100270002111010001224D000705820308000A092F
:1002800004020001030000000921110100012236CF
:10029000000705830308000A0904030002030000A5
:1002A000000921110100012220000705840320001C
:1002B00001070504032000010904040001030000F4
:1002C00000092111010001223900070585031000F2
:1002D000011201100100000008EDFE606001000144
:1002E00002000105010906A101050719E029E7152A
:1002F0000025019508750181020508190129059558
:1003000005750191029501750391010507190029F1
:100310007715002501957875018102C00631FF0926
:1003200074A1010975150025FF9520750881020942
:1003300076150025FF952075089102C005010980FA
:10034000A101850216010026B7001A01002AB70094
:10035000751095018100C0050C0901A101850316E6
:100360000100269C021A01002A9C02751095018149
:1003700000C005010902A1010901A1000509190137
:100380002905150025019505750181029501750363
:1003900081010501093009311581257F9502750814
:1003A000810609381581257F950175088106050CA0
:1003B0000A38021581257F950175088106C0C005A0
:1003C000010906A101050719E029E7150025019596
:1003D0000875018102950175088101050819012937
:1003E00005950575019102950175039101050719A0
:1003F0000029FF150025FF950675088100C00A0039
:100400002530325820006B6579626F6172645F72CB
:1004100065706F72743A20000A0025303258006B04
:100420006579626F6172645F7365745F6C65643A6D
:10043000200064656C5F6B65795F6269743A206364
:10044000616E27742064656C3A20253032580A00AA
:100450006164645F6B65795F6269743A2063616EA1
:100460002774206164643A20253032580A00646F92
:100470006E652E0A00626F6F676D61676963207336
:1004800063616E3A202E2E2E2000290A0025750069
:100490002F002575005D28002564002000256400DC
:1004A000200025640020002564007C00253032589F
:1004B000006D6F7573656B6579205B62746E7C7817
:1004C0002079207620685D287265702F61636C2921
:1004D0003A205B000A002575006D6B5F77686565E3
:1004E0006C5F74696D655F746F5F6D6178203D202E
:1004F000000A002575006D6B5F776865656C5F6D40
:1005000061785F7370656564203D20000A00257581
:10051000006D6B5F74696D655F746F5F6D617820EE
:100520003D20000A002575006D6B5F6D61785F737B
:1005300070656564203D20000A002575006D6B5FC5
:10054000696E74657276616C203D20000A00257525
:10055000006D6B5F64656C6179203D20000A0025A9
:1005600075006D6B5F776865656C5F74696D655F5D
:10057000746F5F6D6178203D20000A002575006D65
:100580006B5F776865656C5F6D61785F73706565DB
:1005900064203D20000A002575006D6B5F74696D55
:1005A000655F746F5F6D6178203D20000A002575DE
:1005B000006D6B5F6D61785F7370656564203D20D1
:1005C000000A002575006D6B5F696E746572766157
:1005D0006C203D20000A002575006D6B5F64656C22
:1005E0006179203D20000A00257500363A206D6BA8
:1005F0005F776865656C5F74696D655F746F5F6D6B
:1006000061783A20000A00257500353A206D6B5F4D
:10061000776865656C5F6D61785F73706565643A76
:1006200020000A00257500343A206D6B5F74696DF7
:10063000655F746F5F6D61783A20000A0025750070
:10064000333A206D6B5F6D61785F73706565643AF6
:1006500020000A00257500323A206D6B5F696E74C8
:10066000657276616C286D73293A20000A00257541
:1006700000313A206D6B5F64656C6179282A3130F6
:100680006D73293A20000A0A2D2D2D2D2D204D6F36
:100690007573656B657920506172616D6574657203
:1006A00073202D2D2D2D2D0A003E20002575004D87
:1006B000003F007365742064656661756C74207614
:1006C000616C7565732E0A000A0025750073656CF0
:1006D000656374656420706172616D657465723AFA
:1006E0002000433E20000A51756974204D6F7573D8
:1006F000656B657920436F6E736F6C650A00536597
:100700006520687474703A2F2F656E2E77696B6957
:1007100070656469612E6F72672F77696B692F4D01
:100720006F7573655F6B6579730A000A0025750044
:100730002C20776865656C3D0025750077686572CB
:10074000652064656C74613A20637572736F723DE5
:10075000000A7370656564203D2064656C746120D7
:100760002A206D61785F7370656564202A20287285
:100770006570656174202F2074696D655F746F5FAB
:100780006D6178290A007067646F776E3A09646555
:1007900063726561736520706172616D6574657205
:1007A00073282D3130290A00706775703A09696E17
:1007B00063726561736520706172616D65746572E5
:1007C00073282B3130290A00646F776E3A0964650B
:1007D00063726561736520706172616D65746572C5
:1007E00073282D31290A0075703A09696E637265A4
:1007F00061736520706172616D6574657273282B19
:1008000031290A00643A097365742064656661756C
:100810006C742076616C7565730A00703A097072A9
:10082000696E7420706172616D65746572730A001F
:10083000363A0973656C656374206D6B5F77686524
:10084000656C5F74696D655F746F5F6D61780A00D8
:10085000353A0973656C656374206D6B5F77686505
:10086000656C5F6D61785F73706565640A00343A2A
:100870000973656C656374206D6B5F74696D655F8A
:10088000746F5F6D61780A00333A0973656C656354
:1008900074206D6B5F6D61785F73706565640A00CD
:1008A000323A0973656C656374206D6B5F696E74B1
:1008B000657276616C286D73290A00313A09736597
:1008C0006C656374206D6B5F64656C6179282A3197
:1008D000306D73290A004553432F713A09717569C8
:1008E000740A000A0A2D2D2D2D2D204D6F7573656C
:1008F0006B657920506172616D6574657273204813
:10090000656C70202D2D2D2D2D0A003F004D303EA1
:10091000000A456E746572204D6F7573656B65795D
:1009200020436F6E736F6C650A000A5175697420FD
:10093000436F6E736F6C65204D6F64650A00433EB4
:1009400020000A0025750020746F200025750073B3
:1009500077697463685F64656661756C745F6C6108
:100960007965723A20006D3A096D6F7573656B6534
:10097000790A004553432F713A09717569740A0069
:100980000A0A2D2D2D2D2D20436F6E736F6C65205F
:1009900048656C70202D2D2D2D2D0A00506175732A
:1009A0003A096A756D7020746F20626F6F746C6F96
:1009B000616465720A00436170733A094C6F636B3E
:1009C000204B6579626F617264284368696C6420AA
:1009D00050726F6F66290A00505363723A09706F44
:1009E00077657220646F776E2F72656D6F74652006
:1009F00077616B652D75700A00342F46343A0973A0
:100A0000776974636820746F204C61796572342053
:100A10000A00332F46333A09737769746368207488
:100A20006F204C6179657233200A00322F46323ACA
:100A30000973776974636820746F204C61796572FB
:100A400032200A00312F46313A097377697463689E
:100A500020746F204C6179657231200A00302F4676
:100A600031303A0973776974636820746F204C6180
:100A700079657230200A006E3A09746F67676C6599
:100A8000204E4B524F0A00653A097072696E74200D
:100A9000656570726F6D20636F6E6669670A0073BB
:100AA0003A097072696E74207374617475730A0008
:100AB000743A097072696E742074696D657220638E
:100AC0006F756E740A00763A097072696E742064EC
:100AD00065766963652076657273696F6E2026207E
:100AE000696E666F0A006D3A09746F67676C6520FE
:100AF0006D6F7573652064656275670A006B3A09EE
:100B0000746F67676C65206B6579626F61726420D2
:100B100064656275670A00783A09746F67676C6587
:100B2000206D61747269782064656275670A00647B
:100B30003A09746F67676C65206465627567206544
:100B40006E61626C650A00633A09656E74657220B5
:100B5000636F6E736F6C65206D6F64650A000A0ABF
:100B60002D2D2D2D2D20436F6D6D616E64204865F8
:100B70006C70202D2D2D2D2D0A000A002575002EBC
:100B80006E6B726F3A20000A002575002E73776134
:100B9000705F6261636B736C6173685F6261636BEA
:100BA00073706163653A20000A002575002E737723
:100BB00061705F67726176655F6573633A20000AF2
:100BC000002575002E6E6F5F6775693A20000A0078
:100BD0002575002E737761705F72616C745F726748
:100BE00075693A20000A002575002E737761705FE1
:100BF0006C616C745F6C6775693A20000A0025753A
:100C0000002E636170736C6F636B5F746F5F636FF3
:100C10006E74726F6C3A20000A002575002E73778F
:100C200061705F636F6E74726F6C5F636170736C21
:100C30006F636B3A20000A0025303258006B6579EB
:100C40006D61705F636F6E6669672E7261773A20BF
:100C5000000A002575002E6D6F7573653A20000A35
:100C6000002575002E6B6579626F6172643A200011
:100C70000A002575002E6D61747269783A20000AA9
:100C8000002575002E656E61626C653A20000A00D1
:100C9000253032580064656275675F636F6E666900
:100CA000672E7261773A20000A0025750064656638
:100CB00061756C745F6C617965723A20003F004E1B
:100CC0004B524F3A2064697361626C65640A004E4E
:100CD0004B524F3A20656E61626C65640A006B6529
:100CE00079626F6172645F69646C653A2025580AA5
:100CF000006B6579626F6172645F70726F746F63AD
:100D00006F6C3A2025580A00686F73745F6B6579C1
:100D1000626F6172645F6C65647328293A2025589C
:100D20000A000A0A2D2D2D2D2D2053746174757320
:100D3000202D2D2D2D2D0A0074696D65725F636F56
:100D4000756E743A202530346C580A004743433A94
:100D500020342E382E31204156522D4C4942433AF0
:100D600020312E382E3073766E204156525F41521C
:100D700043483A20617672350A004F5054494F4E2D
:100D8000533A204C55464120424F4F544D4147491C
:100D900043204D4F5553454B4559204558545241DA
:100DA0004B455920434F4E534F4C4520434F4D4DDB
:100DB000414E44204E4B524F20343039360A0042C7
:100DC00055494C443A20313564336665342D6469A5
:100DD000727479202832323A33323A3236204A75E8
:100DE0006C2032392032303135290A005649443AD4
:100DF00020307846454544286A756C69616E292023
:100E00005049443A20307836303630286A756C695B
:100E1000616E29205645523A203078303030310A00
:100E200000444553433A206669726D7761726520CC
:100E3000666F7220746865207465656E73790A0048
:100E40000A0A2D2D2D2D2D2056657273696F6E2087
:100E50002D2D2D2D2D0A000A44454255473A206D6F
:100E60006F7573652064697361626C65642E0A0036
:100E70000A44454255473A206D6F75736520656E8B
:100E800061626C65642E0A000A44454255473A2067
:100E90006B6579626F6172642064697361626C650D
:100EA000642E0A000A44454255473A206B65796230
:100EB0006F61726420656E61626C65642E0A000A5F
:100EC00044454255473A206D6174726978206469DF
:100ED0007361626C65642E0A000A44454255473AC4
:100EE000206D617472697820656E61626C65642E34
:100EF0000A000A44454255473A20656E61626C65B6
:100F0000642E0A000A44454255473A2064697361D9
:100F1000626C65642E0A006E6F7420737570706F5A
:100F2000727465642E0A000A0A4A756D7020746F27
:100F300020626F6F746C6F616465722E2E2E2000BC
:100F4000433E20000A456E74657220436F6E736FD6
:100F50006C65204D6F64650A00556E6C6F636B6540
:100F6000642E0A004C6F636B65642E0A006565632E
:100F70006F6E6669673A0A0011241FBECFEFDAE090
:100F8000DEBFCDBF04B603FE24C08091E601909180
:100F9000E701A091E801B091E9018730904BA740AB
:100FA000B04BB9F41092E6011092E7011092E801FB
:100FB0001092E90114BE84B7877F84BF88E10FB621
:100FC000F89480936000109260000FBEE0E0F8E3B8
:100FD000099511E0A0E0B1E0E6E4F9E502C0059072
:100FE0000D92A833B107D9F721E0A8E3B1E001C021
:100FF0001D92A63EB207E1F70E943B0C0C94A12C77
:101000000C940000FF93EF93E091C501F091C601AD
:10101000309709F00995EF91FF910895FC018591B2
:10102000803011F0EFDFFBCF0895FF27E0E230E2E0
:1010300047FF0CC0419597FF09C0EDE260957095A0
:1010400080959095611D711D811D911D27FF02C026
:10105000219530E350E2AA27660F771F881F991F5A
:10106000AA1FA41710F0A41B63955A95A9F7AA30DC
:1010700008F0A95FA05DAF93F39561157105810537
:10108000910541F7ED3211F4EF93F395F21718F44F
:101090003F93F395FBCF8F91B5DFFA95E1F7089574
:1010A000E991F9918591803021F0853219F0AADF1C
:1010B000F9CF089520E0E89455915532C1F35033AB
:1010C00011F4689455915A3348F4505390F3220F19
:1010D000022E220F220F200D250FF4CF0EF42195A2
:1010E00089919991533619F3533729F1533559F1B1
:1010F000BC0188279927E8945C3621F4899199915D
:1011000068945591543639F446EF7EF077FF0DC060
:101110008FEF9FEF0AC055374AE039F0583540E16C
:1011200021F0523642E009F00895FF93EF937DDFFE
:10113000EF91FF91B7CFFF93EF93FC018191803046
:10114000B9F360DFFBCFFF93EF9368DFF1CFDF935D
:10115000CF93CDB7DEB72596A3DFCF91DF9108956A
:10116000089508959EE0799FF001112496E4899FE7
:10117000E00DF11D1124E60FF11DE859FE4F849199
:101180000895E82FF0E0EE0FFF1FEA51F04085913F
:10119000949108953E9846988AB1807F8AB98BB120
:1011A000807F8BB908950E94CA0880B38C7080BB81
:1011B00081B3836F81BB84B114B885B18FEF85B9DA
:1011C00057985F9AE2E4F1E0A8E3B1E0119211923E
:1011D0001D921D9281E0EC34F807C1F70895DF926B
:1011E000EF92FF920F931F93CF93DF93C8E3D1E069
:1011F00010E001E085E0D82E97EDE92E91E0F92E80
:10120000123071F018F4113041F004C0133059F06D
:10121000143061F0509A58980BC0519A599808C0F0
:10122000529A5A9805C0539A5B9802C03E9A4698C3
:1012300080EA8A95F1F78FB18170802790E028814C
:1012400039812817390741F19983888380910001FA
:10125000882301F18091C30180FF04C08CED91E0EF
:101260000E940E088091C30180FF0CC08091000194
:101270001F928F93FF92EF920E94A7080F900F90FA
:101280000F900F908091C30180FF04C085ED91E025
:101290000E940E08D09200010E94CA081F5F229689
:1012A000153009F0ADCF809100018823C1F0815045
:1012B00080930001882339F08FE99FE00197F1F7CF
:1012C00000C000000CC0A2E4B1E0E8E3F1E08191CD
:1012D00091918D939D9391E0E234F907C1F760916C
:1012E000A8017091A9018091AA019091AB010E947F
:1012F000B01E882329F0833028F43F9A479A02C011
:101300003F98479881E0DF91CF911F910F91FF9017
:10131000EF90DF900895E82FF0E0EE0FFF1FEE5BF7
:10132000FE4F808191810895CF92DF92EF92FF92DC
:101330000F931F93CF93DF938EEB91E00E940E08E3
:1013400042E4E42E41E0F42EC0E0D0E059EBC52E9B
:1013500051E0D52E00EB11E0DF93CF93DF92CF92D7
:101360000E94A70886EB91E00E940E08F701819188
:1013700091917F010E94151F9F938F931F930F934D
:101380000E94A7088EEA91E00E940E0821968DB770
:101390009EB708960FB6F8949EBF0FBE8DBFC5309E
:1013A000D105D1F6DF91CF911F910F91FF90EF9072
:1013B000DF90CF90089585FF03C0809A889A0895A2
:1013C00080988898089580915E0108959091DD013C
:1013D000943009F04DC09091E9009F702091EC008D
:1013E00020FF02C020E801C020E0292B94E0909368
:1013F000E9009091EB0090FF38C09091EE0097FFCC
:1014000034C090914D01992321F09091E80095FF0F
:101410002CC010924D0196E03091E80035FD15C0CA
:101420003091DD01343009F53091EB0035FD1DC000
:10143000915021F481E080934D0117C0EFE9FFE066
:101440003197F1F700C00000E7CF8093F100809161
:10145000E80085FD05C08091E8008E778093E80064
:101460002F702093E90080E008952F702093E90009
:101470008FEF0895CF93DF9300D01F92CDB7DEB7E3
:101480002091DD01243019F523E029839B838A8391
:101490002093E9008FEF9091E800815095FD06C000
:1014A00095ED9A95F1F700008111F5CF8091E80054
:1014B00085FF0DC040E050E063E070E0CE01019692
:1014C0000E94FE0E8091E8008E778093E8000F90D6
:1014D0000F900F90DF91CF910895CF93DF9300D0BD
:1014E0001F92CDB7DEB72091DD01243021F522E037
:1014F00029839B838A8383E08093E9008FEF909117
:10150000E800815095FD06C095ED9A95F1F7000031
:101510008111F5CF8091E80085FF0DC040E050E0DB
:1015200063E070E0CE0101960E94FE0E8091E8001B
:101530008E778093E8000F900F900F90DF91CF91FE
:1015400008952091DD012430F1F422E02093E90098
:101550002FEF3091E800215035FD06C035ED3A956A
:10156000F1F700002111F5CF2091E80025FF0BC015
:1015700040E050E065E070E00E94FE0E8091E800DF
:101580008E778093E8000895CF93DF93EC018091EC
:10159000DD01843009F043C080910C018823C1F043
:1015A00085E08093E9008FEF9091E800815095FDF0
:1015B00006C095E19A95F1F700008111F5CF809171
:1015C000E80085FF2CC040E050E060E170E017C00B
:1015D00081E08093E9008FEF9091E800815095FDC4
:1015E00006C095ED9A95F1F700008111F5CF809135
:1015F000E80085FF14C040E050E068E070E0CE01F4
:101600000E94FE0E8091E8008E778093E80080E1D2
:10161000FE01AEE4B1E001900D928A95E1F7DF9111
:10162000CF9108958CE192E00E940E088091DC0138
:10163000811109C00E947C0D0E94D90D8091E200A9
:1016400084608093E200089588E192E00E940E0891
:101650001092DC01089584E192E00C940E0880E180
:1016600092E00E940E080C94B1088CE092E00E9477
:101670000E080C946A1F8091DD01843049F5809139
:10168000E9008F709091EC0090FF02C090E801C0DB
:1016900090E0982B84E08093E9008091EB0080FF3C
:1016A00014C08091EE0087FF10C08091E80085FF94
:1016B00003C01092F100F9CF8091E80080FF05C0CF
:1016C0008091E8008E778093E8009F709093E90006
:1016D000089542E061EC81E00E94F60C42E061EC8A
:1016E00082E00E94F60C42E061EC83E00E94F60C7E
:1016F00046E261EC84E00E94F60C42E161EC85E098
:101700000C94F60C8091DF01833009F455C030F45D
:10171000813071F0823009F495C008958A3009F45F
:1017200081C08B3009F460C0893009F0A3C020C0AB
:101730008091DE01813A09F09DC08091E800877FA9
:101740008093E8008091E2019091E301892B21F0E0
:1017500060E080E090E003C060E18EE491E070E042
:101760000E94470F8091E8008B778093E8000895EE
:101770008091DE01813209F07DC08091E20190917B
:10178000E301009719F0049709F074C08091E80014
:10179000877F8093E8008091E80082FD05C08091FA
:1017A000DD018111F8CF66C08091F10080935E0168
:1017B0008091E8008B775AC08091DE01813A09F070
:1017C00059C08091E2019091E301892B09F052C048
:1017D0008091E800877F8093E8008091E80080FF97
:1017E000FCCF80910B013DC08091DE01813209F078
:1017F00041C08091E2019091E301892BD9F580915C
:10180000E800877F8093E8000E942B0D9091E00113
:1018100081E0911101C080E080930B0180930C0165
:101820000C9435178091DE01813221F58091E8001A
:10183000877F8093E8000E942B0D8091E1018093C7
:101840004C0108958091DE01813AA1F48091E80075
:10185000877F8093E8008091E80080FFFCCF809133
:101860004C018093F1008091E8008E778093E8002E
:101870000C942B0D089584B7877F84BF88E10FB641
:10188000F89480936000109260000FBE90E080E8B2
:101890000FB6F89480936100909361000FBE0E9490
:1018A0007C0D0E94D90D8091E20084608093E2005B
:1018B00086EE99E00E94AB1E78948091DD01843021
:1018C000E1F78BEF91E00E940E080E94E31181E0A6
:1018D00091E00E9451118AEE91E00E940E088091E1
:1018E000DD01853089F486EE91E00E940E080E94A9
:1018F0002F1F8091DB01882391F30E94551F8823BD
:1019000071F30E94E00CEBCF0E941112E8CF292F57
:10191000332723303105A9F06CF42130310509F467
:1019200042C02230310509F043C08DE890E024E444
:1019300032E042C021323105C9F02232310519F1BD
:1019400037C099278130910541F08230910541F0EF
:10195000892B71F5E0E4F2E005C0E0E3F2E002C0BB
:10196000E0E2F2E0849190E09F0126C0653000F54E
:10197000E62FF0E0EE0FFF1FEC5DFE4F208131817E
:1019800089E090E019C0653098F4E62FF0E0DF01BF
:10199000AA0FBB1FA65EBE4F2D913C91EB5EFE4F82
:1019A000808190E009C082E190E021ED32E004C046
:1019B00080E090E020E030E0FA0131832083089558
:1019C00080E189BD82E189BD09B400FEFDCF80912F
:1019D000D8008F7D8093D8008091E0008260809352
:1019E000E0008091E00081FDFCCF0895982F9730B2
:1019F00058F59093E900981739F07091EC00209118
:101A0000ED005091F00003C0242F762F50E021FF0D
:101A100019C03091EB003E7F3093EB003091ED0028
:101A20003D7F3093ED003091EB0031603093EB005F
:101A30007093EC002093ED005093F0002091EE00A5
:101A400027FF07C09F5FD3CF8F708093E90081E0AD
:101A5000089580E008958091DE0187FD05C08091A2
:101A6000E80080FF0EC012C08091E80082FD05C032
:101A70008091DD018111F8CF08958091E8008B7786
:101A800008C08091DD018111EACF08958091E800BE
:101A90008E778093E80008958091E4009091E500AE
:101AA00045E62091EC0020FF21C02091E80020FDB8
:101AB00021C02091DD01222389F0253089F0209179
:101AC000EB0025FD0FC02091E4003091E5002817C0
:101AD000390739F3415041F0C901E3CF82E008955D
:101AE00083E0089581E0089584E008952091E8005E
:101AF00022FFDFCF80E008950E94E50D0E94ED0DEA
:101B0000E0EEF0E0808181608083E8EDF0E08081AC
:101B10008F77808319BCA7EDB0E08C918E7F8C937A
:101B200080818F7E80831092DC0108950F931F9334
:101B3000CF93DF930E94E50D0E94ED0DC8EDD0E03C
:101B400088818F77888388818068888388818F7D6A
:101B5000888319BC1092DD011092D9011092DB012B
:101B60001092DA0100EE10E0F80180818B7F808313
:101B700088818160888342E060E080E00E94F60C0A
:101B8000E1EEF0E080818E7F8083E2EEF0E0808104
:101B900081608083808188608083F80180818E7F6E
:101BA0008083888180618883DF91CF911F910F911D
:101BB0000895E7EDF0E080818160808384E082BF5A
:101BC00081E08093DC010C94960DE8EDF0E08081DB
:101BD0008E7F80831092E20008951092DA001092B6
:101BE000E10008951F920F920FB60F9211242F93C8
:101BF0003F934F935F936F937F938F939F93AF9395
:101C0000BF93EF93FF938091E10082FF0BC080911F
:101C1000E20082FF07C08091E1008B7F8093E100AA
:101C20000E943B0B8091DA0080FF1FC08091D8009A
:101C300080FF1BC08091DA008E7F8093DA00809154
:101C4000D90080FF0DC080E189BD82E189BD09B462
:101C500000FEFDCF81E08093DD010E94120B05C0E4
:101C600019BC1092DD010E94240B8091E10080FFDD
:101C700019C08091E20080FF15C08091E2008E7F44
:101C80008093E2008091E20080618093E200809185
:101C9000D80080628093D80019BC85E08093DD0174
:101CA0000E942F0B8091E10084FF2EC08091E20002
:101CB00084FF2AC080E189BD82E189BD09B400FEAC
:101CC000FDCF8091D8008F7D8093D8008091E10076
:101CD0008F7E8093E1008091E2008F7E8093E2000E
:101CE0008091E20081608093E2008091D9018111AE
:101CF00004C08091E30087FF02C084E001C081E05E
:101D00008093DD010E94350B8091E10083FF29C0A3
:101D10008091E20083FF25C08091E100877F80935E
:101D2000E10082E08093DD011092D9018091E10011
:101D30008E7F8093E1008091E2008E7F8093E200AD
:101D40008091E20080618093E20042E060E080E008
:101D50000E94F60C8091F00088608093F0000E9451
:101D60002B0BFF91EF91BF91AF919F918F917F913D
:101D70006F915F914F913F912F910F900FBE0F90F8
:101D80001F9018951F920F920FB60F9211242F9348
:101D90003F934F935F936F937F938F939F93AF93F3
:101DA000BF93CF93EF93FF93C091E900CF708091E1
:101DB000EC001092E9008091F000877F8093F000A2
:101DC00078940E9400101092E9008091F0008860E1
:101DD0008093F000C093E900FF91EF91CF91BF9104
:101DE000AF919F918F917F916F915F914F913F91B3
:101DF0002F910F900FBE0F901F901895CF92DF92EA
:101E0000EF92FF920F931F93CF93DF937C018B018F
:101E1000EA010E944C0D811131C0209731F0888178
:101E20009981081B190BE80EF91EC12CD12C011544
:101E3000110519F18091E80085FD14C08091E8003A
:101E40008E778093E800209741F0888199818C0DEE
:101E50009D1D9983888385E011C00E944C0D8823C5
:101E600031F30CC0F70181917F018093F1000150A3
:101E70001109FFEFCF1ADF0ADACF80E0DF91CF91AF
:101E80001F910F91FF90EF90DF90CF9008952091D8
:101E9000E4013091E5012617370748F06115710517
:101EA00039F42091E8002E772093E80001C0B901B1
:101EB000FC0120E061157105A9F18091DD01882305
:101EC000E9F18530E9F18091E80083FD35C080912A
:101ED000E80082FF06C08091E80082FF26C080E013
:101EE00008958091E80080FFE5CF2091F300809174
:101EF000F20090E0922B6115710551F08830910548
:101F000038F421912093F100615071090196F3CFCB
:101F100021E0089709F020E08091E8008E77809317
:101F2000E800C8CF2111C9CFD6CF8091DD01882329
:101F300029F0853081F604C081E0089582E008959B
:101F400083E008952091E4013091E50126173707D9
:101F500048F06115710539F42091E8002E7720933F
:101F6000E80001C0B901FC0120E061157105C1F173
:101F70008091DD01882309F43FC0853009F43EC01B
:101F80008091E80083FD36C08091E80082FF06C0A2
:101F90008091E80082FF27C080E008958091E800EA
:101FA00080FFE3CF2091F3008091F20090E0922B2C
:101FB0006115710559F08830910540F42491209302
:101FC000F1003196615071090196F2CF21E0089736
:101FD00009F020E08091E8008E778093E800C5CF7B
:101FE0002111C6CFD5CF8091DD01882329F085301E
:101FF00079F604C081E0089582E0089583E00895B1
:102000000F931F93CF93DF93CDB7DEB7AA970FB689
:10201000F894DEBF0FBECDBFEEEDF1E08091F10090
:10202000819321E0E63EF207C9F70E94820B80917E
:10203000E80083FF1DC12091DE013091DF01832F75
:1020400090E08A30910508F013C1FC01EA5AFF4F75
:102050000C94562C203881F0223809F009C1809167
:10206000E2018F708093E9008091EB0085FB882767
:1020700080F91092E90006C08091DA019091DB01AD
:10208000911182609091E800977F9093E80080938F
:10209000F1001092F100C6C0822F8D7F09F0E8C0D8
:1020A000222319F0223061F0E3C08091E0018130F9
:1020B00009F0DEC0333009F080E08093DB0128C0F6
:1020C0008091E001811124C02091E2012F7009F478
:1020D000CFC02093E9008091EB0080FF19C0809170
:1020E000EB00333011F4806211C080618093EB000B
:1020F00081E090E0022E01C0880F0A94EAF78093F5
:10210000EA001092EA008091EB0088608093EB0077
:102110001092E9008091E800877F87C02111A8C054
:102120001091E0011F770FB7F8948091E800877F46
:102130008093E8000E942B0D8091E80080FFFCCF87
:102140008091E3008078812B8093E3008068809306
:10215000E300112311F083E001C082E08093DD01F0
:102160000FBF86C02058223008F082C08091E00165
:102170009091E1018C3D23E0920779F583E08A8319
:102180008AE289834FB7F894DE01139620E03EE09F
:1021900051E2E32FF0E050935700E49120FF03C099
:1021A000E295EF703F5FEF708E2F90E0EA3010F015
:1021B000C79601C0C0968D939D932F5F243149F738
:1021C0004FBF8091E800877F8093E8006AE270E06B
:1021D000CE0101960E94470F14C0AE014F5F5F4FC2
:1021E0006091E2010E94870C009709F441C02091A0
:1021F000E800277F2093E800BC0189819A810E9432
:10220000A20F8091E8008B778093E80031C02038DE
:1022100079F58091E800877F8093E8008091D9016B
:102220008093F1008091E8008E778093E8000E940F
:102230002B0D1EC021111CC09091E0019230C0F402
:102240008091E800877F8093E8009093D9010E94F5
:102250002B0D8091D901811104C08091E30087FF8B
:1022600002C084E001C081E08093DD010E94690B1F
:102270008091E80083FF0AC08091EB008062809328
:10228000EB008091E800877F8093E800AA960FB664
:10229000F894DEBF0FBECDBFDF91CF911F910F919C
:1022A0000895909364018093630108958091630180
:1022B000909164010895E0916301F0916401309779
:1022C00021F00190F081E02D099480E00895FF92C3
:1022D0000F931F93CF93DF938C01E0916301F091F3
:1022E0006401309799F10280F381E02D0995809186
:1022F000C30182FF2BC080FF04C086E094E00E94EF
:102300000E08E80180E1F82E00E014E08091C3019E
:1023100080FF0BC088811F928F931F930F930E94A1
:10232000A7080F900F900F900F90FA942196F1103C
:10233000EDCF8091C30180FF09C08EEF93E0DF9164
:10234000CF911F910F91FF900C940E08DF91CF91C8
:102350001F910F91FF900895E0916301F091640146
:10236000309721F00480F581E02D099408952091A3
:102370006101309162018217930771F090936201BD
:1023800080936101E0916301F0916401309721F045
:102390000680F781E02D0994089520915F01309126
:1023A00060018217930771F09093600180935F0141
:1023B000E0916301F0916401309721F00084F18590
:1023C000E02D099408950E94951F0E94D3080C9453
:1023D0006220CF93C82F8091C30182FF1EC080FF6F
:1023E00004C08FE194E00E940E088091C30180FF39
:1023F0000CC01F92CF932AE134E03F932F930E94A9
:10240000A7080F900F900F900F908091C30180FF4D
:1024100004C088E194E00E940E088C2FCF910C94A8
:10242000DB095F926F927F928F929F92AF92BF92E1
:10243000CF92DF92EF92FF920F931F93CF93DF9390
:10244000CDB7DEB72A970FB6F894DEBF0FBECDBF6B
:102450000E94EF0896E6C92E91E0D92E00E010E028
:10246000AA24A394B12C502E802F0E948B093C01EA
:10247000F601E190F1906F01E826F926E114F104EC
:10248000B1F40F5F1F4F0530110569F78FEF898396
:102490008A831B820E949E1F8160782F9D838C837C
:1024A00049815A816B818D810E94CA123AC0809104
:1024B000C30181FD0E94940920E030E04501022E15
:1024C00002C0880C991C0A94E2F7C4018E219F2156
:1024D000892B09F12E835F826820792081E06728AB
:1024E00009F480E088870E949E1F8160782F9A8778
:1024F00089874E815F8168858A850E94CA12F801AA
:10250000EE0FFF1FEA59FE4F8081918188259925A2
:102510009183808306C02F5F3F4F2E30310571F6C7
:10252000B0CF0E94D023109165010E945B11181753
:10253000D9F00E945B11809365012A960FB6F8943A
:10254000DEBF0FBECDBFDF91CF911F910F91FF90E6
:10255000EF90DF90CF90BF90AF909F908F907F9043
:102560006F905F900C94E9112A960FB6F894DEBF35
:102570000FBECDBFDF91CF911F910F91FF90EF90D4
:10258000DF90CF90BF90AF909F908F907F906F9093
:102590005F900895CF93DF93CDB7DEB72B970FB63B
:1025A000F894DEBF0FBECDBF4F83588769877A8707
:1025B0008B87DE01119686E0FD0111928A95E9F77D
:1025C00085E0FE01379601900D928A95E1F74981E9
:1025D0005A816B817C818D819E810E94FD192B9691
:1025E0000FB6F894DEBF0FBECDBFDF91CF91089537
:1025F000CF93C82F882309F4C1C0823859F40E94B0
:102600005B1181FDBBC089E30E94981C0E946C1D78
:1026100089E30CC0833879F40E945B1180FDAEC061
:1026200083E50E94981C0E946C1D83E50E94E51CB6
:10263000CF910C946C1D843859F40E945B1182FD7B
:102640009DC087E40E94981C0E946C1D87E4EECF19
:102650008CEF8C0F813A48F48C2F0E94B0298111A5
:102660008DC08C2F0E94981CE3CF80E28C0F8830A5
:1026700048F4C77081E001C0880FCA95EAF70E944C
:10268000331DD6CF8BE58C0F833078F4C53A29F013
:10269000C63A31F482E890E005C081E890E002C0DB
:1026A00083E890E0CF910C94B71188E58C0F8331CB
:1026B00008F064C0C83A39F1C93A41F1CA3A49F15F
:1026C000CB3A51F1CC3A59F1CD3A61F1C03B69F1C5
:1026D000CE3A71F1CF3A79F1C13B81F1C23B89F138
:1026E000C33B91F1C43B99F1C53BA1F1C63BA9F1B4
:1026F000C73BB1F1C83BB9F1C93BC1F1CA3BC9F510
:102700008AE292E038C082EE90E035C089EE90E037
:1027100032C08AEE90E02FC085EB90E02CC086EBB3
:1027200090E029C087EB90E026C08CEC90E023C0BD
:102730008DEC90E020C083E891E01DC08AE891E034
:102740001AC082E991E017C084E991E014C081E2E7
:1027500092E011C083E292E00EC084E292E00BC0EE
:1027600085E292E008C086E292E005C087E292E04E
:1027700002C080E090E0CF910C94CD11CF910895EC
:10278000882309F44BC0823859F40E945B1181FF01
:1027900045C089E30E94981C0E946C1D89E30CC00F
:1027A000833871F40E945B1180FF38C083E50E947A
:1027B000981C0E946C1D83E50E94E51C0C946C1D06
:1027C000843859F40E945B1182FF28C087E40E947C
:1027D000981C0E946C1D87E4EFCF9CEF980F913AF4
:1027E00058F390E2980F983050F4877091E001C050
:1027F000990F8A95EAF7892F0E94391DDFCF9BE553
:10280000980F933020F480E090E00C94B711885A30
:10281000833120F480E090E00C94CD11089588235A
:1028200021F00E94331D0C946C1D0895882321F023
:102830000E94391D0C946C1D0895CF92DF92EF9287
:10284000FF920F931F93CF93DF93CDB7DEB72897F7
:102850000FB6F894DEBF0FBECDBF8C0185E0F80146
:10286000DE01119601900D928A95E1F7F801408101
:102870003181F280258122952F7083819481892B6B
:1028800031F03F3F31F481E04F3F19F403C081E064
:1028900001C080E080FDC8C249833A8389819A8162
:1028A0002F830E94561C9E8388870E94551C0E947D
:1028B000281B4E81E42FE295EF70F0E0E05AFF4FC5
:1028C0002F8168850C94562C842F807F142F1F70C5
:1028D000882311F01295107FFF2059F0112309F47D
:1028E00058C2812F68870E94431D0E946C1D688515
:1028F00050C2862F0E94C013112309F495C2812F64
:102900000E94491D28960FB6F894DEBF0FBECDBFBA
:10291000DF91CF911F910F91FF90EF90DF90CF90BB
:102920000C946C1D342F307F842F8F70303211F057
:102930008295807F662319F0613009F12AC0FF205B
:10294000A1F0222381F1213071F528960FB6F89479
:10295000DEBF0FBECDBFDF91CF911F910F91FF90D2
:10296000EF90DF90CF900C94531D222319F021306B
:1029700009F45AC28E830E94561D8E818EC1FF209B
:1029800021F0263008F050C20EC0253008F04CC2AD
:1029900084C1FF20C1F0222331F0F801958190FF1E
:1029A000F8C19F70958328960FB6F894DEBF0FBECE
:1029B000CDBFDF91CF911F910F91FF90EF90DF90EE
:1029C000CF900C940F14222309F467C1F6C1242F71
:1029D00026952695237030E02115310521F0213010
:1029E0003105C9F021C2FF2021F0862F942F93706A
:1029F00002C080E090E028960FB6F894DEBF0FBECC
:102A0000CDBFDF91CF911F910F91FF90EF90DF909D
:102A1000CF900C94B711FF2021F0862F942F937044
:102A200002C080E090E028960FB6F894DEBF0FBE9B
:102A3000CDBFDF91CF911F910F91FF90EF90DF906D
:102A4000CF900C94CD11862FFF2019F00E945622B2
:102A500002C00E94BE2228960FB6F894DEBF0FBEB9
:102A6000CDBFDF91CF911F910F91FF90EF90DF903D
:102A7000CF900C944323842F837009F076C0F1101B
:102A8000D3C1262F229526952770220F220F862F3D
:102A90008F70C82ED12CE12CF12C022E04C0CC0C4E
:102AA000DD1CEE1CFF1C0A94D2F764FF10C06FE01F
:102AB00070E080E090E004C0660F771F881F991FC8
:102AC0002A95D2F7609570958095909503C060E047
:102AD00070E0CB01242F269526952370422F50E0DD
:102AE00042305105D1F04330510559F16C297D290F
:102AF0008E299F294130510541F128960FB6F8944F
:102B0000DEBF0FBECDBFDF91CF911F910F91FF9020
:102B1000EF90DF90CF900C944D1B6C297D298E296E
:102B20009F2928960FB6F894DEBF0FBECDBFDF9168
:102B3000CF911F910F91FF90EF90DF90CF900C9469
:102B4000671B0E944D1BC701B60128960FB6F8946B
:102B5000DEBF0FBECDBFDF91CF911F910F91FF90D0
:102B6000EF90DF90CF900C94331BFF2019F0842F4F
:102B7000817001C08695882309F456C1262F2295BD
:102B800026952770220F220F862F8F70C82ED12CEA
:102B9000E12CF12C022E04C0CC0CDD1CEE1CFF1C21
:102BA0000A94D2F764FF10C06FE070E080E090E01C
:102BB00004C0660F771F881F991F2A95D2F760956A
:102BC00070958095909503C060E070E0CB01242F54
:102BD000269526952370422F50E042305105D1F0C2
:102BE0004330510559F16C297D298E299F294130A7
:102BF000510541F128960FB6F894DEBF0FBECDBF48
:102C0000DF91CF911F910F91FF90EF90DF90CF90C8
:102C10000C94211C6C297D298E299F2928960FB69A
:102C2000F894DEBF0FBECDBFDF91CF911F910F9102
:102C3000FF90EF90DF90CF900C943B1C0E94211CE2
:102C4000C701B60128960FB6F894DEBF0FBECDBF00
:102C5000DF91CF911F910F91FF90EF90DF90CF9078
:102C60000C94071C603F49F118F4603E48F48CC096
:102C7000623F09F451C0E0F1633F09F461C084C0D0
:102C8000162F1F70842F8F71FF2021F00E94A01B30
:102C9000812F89CE0E94C11B812F28960FB6F894F0
:102CA000DEBF0FBECDBFDF91CF911F910F91FF907F
:102CB000EF90DF90CF900C941614FF20A9F02530F0
:102CC00008F0B2C0842F8F7128960FB6F894DEBF3B
:102CD0000FBECDBFDF91CF911F910F91FF90EF906D
:102CE000DF90CF900C94E61B263008F09DC0EACF11
:102CF000FF20A1F0842F8F7128960FB6F894DEBFC5
:102D00000FBECDBFDF91CF911F910F91FF90EF903C
:102D1000DF90CF900C94A01BFF2061F3842F8F7164
:102D200028960FB6F894DEBF0FBECDBFDF91CF91CE
:102D30001F910F91FF90EF90DF90CF900C94C11BEB
:102D4000FF2091F0842F8F7128960FB6F894DEBF84
:102D50000FBECDBFDF91CF911F910F91FF90EF90EC
:102D6000DF90CF900C948B1B28960FB6F894DEBFA3
:102D70000FBECDBFDF91CF911F910F91FF90EF90CC
:102D8000DF90CF900C94811BFF20A1F0222309F447
:102D9000B1CF862F28960FB6F894DEBF0FBECDBFF9
:102DA000DF91CF911F910F91FF90EF90DF90CF9027
:102DB0000C94F812222309F4B1CF862F28960FB66F
:102DC000F894DEBF0FBECDBFDF91CF911F910F9161
:102DD000FF90EF90DF90CF900C94C0134F70C8011C
:102DE0000E94A71E28960FB6F894DEBF0FBECDBF77
:102DF000DF91CF911F910F91FF90EF90DF90CF90D7
:102E00000C94AA1A4F70C80128960FB6F894DEBF2A
:102E10000FBECDBFDF91CF911F910F91FF90EF902B
:102E2000DF90CF900C94AA1E28960FB6F894DEBFC0
:102E30000FBECDBFDF91CF911F910F91FF90EF900B
:102E4000DF90CF9008950E94501D0E94251D0E9482
:102E50006C1D0E9471240E94432380E090E00E9438
:102E6000B71180E090E00C94CD110E94401D0C94AD
:102E700023170E94561C292F22952F7030E02C30EA
:102E800031054CF42A3031056CF4225031092230DE
:102E9000310570F407C02C30310531F02F30310589
:102EA00019F006C081E0089593FB882780F9089502
:102EB00080E00895CF93DF9300D000D01F92CDB76C
:102EC000DEB70F900F900F900F900F90DF91CF9182
:102ED0000895CF93DF9300D000D000D0CDB7DEB7F8
:102EE00026960FB6F894DEBF0FBECDBFDF91CF910F
:102EF00008951F93CF93DF93C091700116E08091E6
:102F00007101C81799F0D0E01C9FF0011D9FF00DD2
:102F10001124EE58FE4F408151816281738184817A
:102F200095810E9469172196C770E9CFDF91CF91F3
:102F30001F9108954091A2015091A3016091A401B5
:102F40007091A5018091A6019091A7010C94691739
:102F5000CF938091A70182958F7009F05FC0809117
:102F6000A401882309F45AC020917001A091710135
:102F70006091A2017091A3018091A5019091A60199
:102F800031E06F3F09F030E0B32FC6E02A1709F4B3
:102F900045C0009721F07F3F21F44B2F03C041E053
:102FA00001C040E030E040FD35C0C29FF001C39F4A
:102FB000F00D1124EE58FE4F418174132BC0408157
:102FC000641328C04281411125C0438154814817B0
:102FD000590710F441505109481B590B483C510501
:102FE000C8F48091A7018F7080618093A70186E06B
:102FF000829FF001839FF00D1124E958FE4F8081DC
:103000008F708061808382EA91E00E941D14CF91CD
:103010000C9479172F5F3F4F2770B8CFCF91089549
:10302000CF92DF92EF92FF920F931F93CF93DF9394
:10303000CDB7DEB762970FB6F894DEBF0FBECDBF37
:103040008C0185E0F801DE011D9601900D928A95B4
:10305000E1F7D8014C9111965C91119712966C9101
:1030600012971396ED90FC9014977091A201E09145
:10307000A3012091A5013091A6012115310531F060
:10308000EF3F31F481E07F3F19F403C081E001C0DC
:1030900080E0B82FB170CB2E80FD6CC1D090A40120
:1030A000DD2009F4F5C0F091A701E216F30638F02F
:1030B000C701821B930B883C910548F09BC020956B
:1030C00030952E0D3F1D283C310508F093C08F2F01
:1030D000807F09F052C0E51314C0741312C0D62EBD
:1030E00061110FC0FF70F061F093A7010E949A1761
:1030F00082EA91E00E941D148091A701F801858366
:103100006CC1EF2831F05F3F31F481E04F3F19F49B
:1031100003C081E001C080E080FD03C081E086271C
:1031200001C080E0F82FF170FF2E80FF1CC080915D
:1031300070012091710136E0821709F428C190E0F6
:10314000389FF001399FF00D1124EE58FE4F718128
:10315000571306C07081471303C07281671303C001
:1031600001968770E9CFD62E662309F436C1809187
:10317000A70181608093A70153C0E51308C07413B1
:1031800006C0611104C0D8011596FC93AEC04D87EE
:103190005E878D859E856A8B0E9439176A89882390
:1031A00029F1D62E662311F12091A701822F829555
:1031B0008F7090E002970CF460C08091A201909112
:1031C000A30198878F831986FB86EA862C87CE0118
:1031D000079651C0E51731F14D875E878D859E8535
:1031E0006A8B0E9439176A8981112EC0C8010E941A
:1031F0001D14A4C08F2F807F69F77E2DF98AE88A7D
:1032000089890E945A1782EA91E00E941D14E2EA1D
:10321000F1E086E0DF011D928A95E9F70E949A1796
:10322000D12CDBC07413D8CF6111D6CFD80115963D
:10323000FC93C8010E941D14E2EAF1E086E0DF0180
:103240001D928A95E9F7C9C0D62E662379F220919E
:10325000A701822F82958F7090E0029774F0809181
:10326000A2019091A3019A8389831B82FD82EC8243
:103270002E83CE0101960E941D1486E0F801A2EA79
:10328000B1E001900D928A95E1F70E94A8176FC0F6
:10329000E216F30628F0C701821B930B9C0104C0C1
:1032A000209530952E0D3F1D283C310508F052C069
:1032B000D62E662309F49ACFE5132CC074132AC0C6
:1032C0008091A70180FD1DC0982F92959F70C9F035
:1032D000D80115968C9315979F3039F09F5F929582
:1032E000907F8F70892B15968C93C8010E941D14B6
:1032F00086E0F801A2EAB1E001900D928A95E1F72B
:1033000036C086E0F801A2EAB1E001900D928A95FC
:10331000E1F763C04D875E878D859E850E943917D2
:10332000882379F086E0F801A2EAB1E001900D92DD
:103330008A95E1F70E94A8170E949A17DD24D3947A
:103340004CC08091A70181608093A701C8010E94B1
:103350001D1443C07E2DF98AE88A89890E945A1774
:10336000E2EAF1E086E0DF011D928A95E9F70E942A
:103370009A1733C0662309F439CF4D875E878D8550
:103380009E850E943917882309F430CFCBCF4D8713
:103390005E878D859E850E94561C292F22952F7051
:1033A00030E0223031052CF49F7041F0811106C0CD
:1033B0000CC0243031052CF49F7049F4805E8830B5
:1033C00020F0C8010E941D14CF2CDC2C06C0D801AF
:1033D00015969C91907F91F7F8CF8D2D62960FB640
:1033E000F894DEBF0FBECDBFDF91CF911F910F913B
:1033F000FF90EF90DF90CF9008951F93CF93DF93CE
:10340000CDB7DEB72C970FB6F894DEBF0FBECDBF99
:103410004F83588769877A878B879C87CE01079669
:103420000E9410188823C1F02F8138858A859B85DA
:10343000892B31F03F3F11F080E003C02F3FE1F7CF
:1034400081E0811147C04F81588569857A858B85D8
:103450009C850E9469173EC086E0FE013796DE011A
:10346000119601900D928A95E1F7FF81E8854A85D2
:103470005B854115510531F0EF3F31F481E0FF3FAD
:1034800019F403C081E001C080E080FD23C02091D9
:10349000710130E0C9010196877099276091700130
:1034A00070E086179707F1F1F983EA835D834C8317
:1034B00096E0929FD001939FB00D1124AE58BE4F5D
:1034C000FE01319601900D929A95E1F7809371017A
:1034D0000E94791716E0809170019091710189170F
:1034E00079F1189FC00111248E589E4F0E94101828
:1034F000882331F1E09170011E9FF0011124EE58F4
:10350000FE4F4081518162817381848195810E9447
:1035100069178091700190E00196877099278093D8
:103520007001D9CF0E94351710927101109270016D
:10353000E2EAF1E086E0DF011D928A95E9F7CACF61
:103540002C960FB6F894DEBF0FBECDBFDF91CF91A2
:103550001F910895EF92FF920F931F93CF93DF93E4
:10356000FC01009709F46DC0F12CEE24E394EF0107
:1035700021968491843740F4843008F053C0813020
:1035800081F0823021F15DC0853709F445C0B0F18A
:103590009CE7980F903708F054C08F770E94C013B3
:1035A00043C08F010E5F1F4FFE01849190E2980F80
:1035B000983050F48770FE2D01C0FF0F8A95EAF70E
:1035C0008F2F0E94431D15C00E94F81212C08F0158
:1035D0000E5F1F4FFE01849190E2980F983058F4CF
:1035E0008770FE2D01C0FF0F8A95EAF78F2F0E948A
:1035F000491DE80119C00E94C013FBCFCF010296FC
:10360000FE01C491CC2361F0EFE9FFE03197F1F7BF
:1036100000C00000C150F6CFCF010296FE01F49029
:10362000EC0102C00E94F8128F2D882341F0EFE9CF
:10363000FFE03197F1F700C000008150F6CFFE01A6
:1036400096CFDF91CF911F910F91FF90EF9008954A
:1036500008956093AC017093AD018093AE01909397
:10366000AF010C9423170F931F930091AC0110919D
:10367000AD012091AE013091AF01062B172B282B05
:10368000392B0093AC011093AD012093AE01309320
:10369000AF011F910F910C9423170F931F9300916B
:1036A000AC011091AD012091AE013091AF01062324
:1036B0001723282339230093AC011093AD012093E5
:1036C000AE013093AF011F910F910C9423170F930C
:1036D0001F930091AC011091AD012091AE0130918A
:1036E000AF0106271727282739270093AC0110932D
:1036F000AD012093AE013093AF011F910F910C9457
:1037000023171092A8011092A9011092AA011092F9
:10371000AB010C94231741E050E060E070E004C07E
:10372000440F551F661F771F8A95D2F74093A80153
:103730005093A9016093AA017093AB010C942317D5
:1037400041E050E060E070E004C0440F551F661F88
:10375000771F8A95D2F78091A8019091A901A09135
:10376000AA01B091AB01842B952BA62BB72B80938C
:10377000A8019093A901A093AA01B093AB010C9466
:10378000231741E050E060E070E004C0440F551F93
:10379000661F771F8A95D2F7409550956095709572
:1037A0008091A8019091A901A091AA01B091AB01CB
:1037B00084239523A623B7238093A8019093A9017E
:1037C000A093AA01B093AB010C94231741E050E001
:1037D00060E070E004C0440F551F661F771F8A9594
:1037E000D2F78091A8019091A901A091AA01B0916E
:1037F000AB0184279527A627B7278093A80190932C
:10380000A901A093AA01B093AB010C9423170F93C5
:103810001F930091A8011091A9012091AA01309154
:10382000AB01062B172B282B392B0093A8011093E3
:10383000A9012093AA013093AB011F910F910C9421
:1038400023170F931F930091A8011091A9012091B4
:10385000AA013091AB0106231723282339230093B3
:10386000A8011093A9012093AA013093AB011F91E5
:103870000F910C9423170F931F930091A80110919F
:10388000A9012091AA013091AB010627172728270B
:1038900039270093A8011093A9012093AA0130931E
:1038A000AB011F910F910C9423170895CF92DF92D3
:1038B000EF92FF920F931F93CF93DF93EC01C09091
:1038C000AC01D090AD01E090AE01F090AF018091DD
:1038D000A8019091A901A091AA01B091AB01C82AB9
:1038E000D92AEA2AFB2A0FE110E0B701A601002E2F
:1038F00004C076956795579547950A94D2F740FF8F
:1039000007C0BE01802F0E94341E8130910539F41A
:103910000150110950F7BE0180E00E94341EDF9172
:10392000CF911F910F91FF90EF90DF90CF9008956E
:1039300090910C01992341F1982F96959695969523
:103940009F3088F4E0910D01F0910E01E90FF11D17
:10395000877021E030E001C0220F8A95EAF781816B
:10396000822B818308959091C30190FF2DC01F92F7
:103970008F9380E594E09F938F930E94A7080F9008
:103980000F900F900F90089540910D0150910E01EE
:1039900020E030E09FEFFA01E20FF31F6281681729
:1039A00099F09F3F19F4611101C0922F2F5F3F4F93
:1039B0002E30310581F79F3F39F0FA01E90FF11DF3
:1039C00097FDFA9582830895089590910C019923AB
:1039D00049F1982F9695969596959F3090F4E091A1
:1039E0000D01F0910E01E90FF11D877021E030E02B
:1039F00001C0220F8A95EAF720958181282321832F
:103A000008959091C30190FF1FC01F928F9382E38E
:103A100094E09F938F930E94A7080F900F900F90B0
:103A20000F90089540910D0150910E0120E030E07B
:103A3000FA01E20FF31F9281981301C012822F5FE7
:103A40003F4F2E303105A1F7089581E090E0E091DD
:103A50000D01F0910E01E80FF91F108201968031DF
:103A60009105A9F708959091C201982B9093C201F6
:103A7000089580959091C20198239093C201089572
:103A80001092C20108959091C101982B9093C101A9
:103A9000089580959091C10198239093C101089554
:103AA0001092C10108958093B00108951092B00161
:103AB000089540910D0150910E0120E030E080E02A
:103AC000FA01E20FF31F918191118F5F2F5F3F4F3A
:103AD0002F303105A9F70895E0910D01F0910E0105
:103AE0008091C2018083E0910D01F0910E018081EF
:103AF0009091C101892B80839091B001992361F04D
:103B0000E0910D01F0910E018081892B80830E944C
:103B1000591D81111092B00180910D0190910E01FB
:103B20000C9467118B3B60F4883A00F5853AA8F451
:103B3000843088F4813009F055C081E090E0089528
:103B4000803E08F44FC0883E30F0803F08F44AC001
:103B500090E09065089590E00895853A09F445C095
:103B6000863A09F045C082E890E40895883A09F45D
:103B700042C0893A09F442C08A3A09F442C08B3AF9
:103B800009F442C08C3A09F442C08D3A09F442C0AB
:103B9000803B09F442C08E3A09F442C08F3A09F4DE
:103BA00042C0813B09F442C0823B09F442C0833BDE
:103BB00009F442C0843B09F442C0853B09F442C089
:103BC000863B09F442C0873B09F442C0883B09F4B4
:103BD00042C0893B09F442C08A3B09F042C08AE2F4
:103BE00096E4089580E090E0089581E890E40895D7
:103BF00083E890E4089582EE94E4089589EE94E4D5
:103C000008958AEE94E4089585EB94E4089586EB94
:103C100094E4089587EB94E408958CEC94E408957B
:103C20008DEC94E4089583E895E408958AE895E49A
:103C3000089582E995E4089584E995E4089581E280
:103C400096E4089583E296E4089584E296E4089564
:103C500085E296E4089586E296E4089587E296E484
:103C6000089580E094E408950E94B208803EA8F48C
:103C7000803C00F5813309F45CC038F4893209F4E2
:103C800052C08A3209F45BC05FC08933B1F0823818
:103C9000A1F0853309F441C057C0833E41F128F4B7
:103CA000803E99F0823EB9F04FC0863E31F1873EAA
:103CB00071F14AC00E94C10808959091D80190FD09
:103CC00002C091FF41C080EE3FC08091D80180FFCB
:103CD000FACF89E339C08091D80182FF0CC080916E
:103CE000D80184FF02C080E02FC083EE2DC08091F8
:103CF000D80182FFF4CF82EE27C08091D80183FFE4
:103D00000AC08091D80184FDEECF87EE1DC080915E
:103D1000D80183FFF6CF86EE17C08091D80185FFCA
:103D200006C089E211C08091D80185FFFACF85E3F2
:103D30000BC08091D80186FF06C08AE205C0809141
:103D4000D80186FFFACF81E30E94921D089580E09A
:103D500090E0089508959093C6018093C501089559
:103D6000CF92DF92EF92FF920F931F936C01EE249C
:103D7000FF24C114D104E104F10421F46B017C019E
:103D800080E001C080E133272F2D1E2D0D2D011560
:103D900011052105310519F0885F68017901970146
:103DA0008601A4E03695279517950795AA95D1F732
:103DB000011511052105310519F08C5F68017901A4
:103DC00097018601F2E03695279517950795FA95A4
:103DD000D1F7011511052105310519F08E5F680134
:103DE0007901B701A6017695679557954795452BBB
:103DF000462B472B09F08F5F1F910F91FF90EF909B
:103E0000DF90CF9008958295982F9C7C96959695FB
:103E1000837344E0849F90011124922B892F8A7A26
:103E200086959575990F892B08951F93CF93DF93EE
:103E30001F92CDB7DEB799830E94031F182F998177
:103E4000892F0E94031F212F30E0322F2227A90142
:103E5000482BCA010F90DF91CF911F910895809157
:103E6000DD01843009F11092C40120E488E190E082
:103E70000FB6F894A895809360000FBE2093600061
:103E800083B7817F846083BF83B7816083BF789469
:103E9000889583B78E7F83BF88E10FB6F8948093AF
:103EA0006000109260000FBE0895CF930E94B0088A
:103EB0000E94EF080E94B108C0E08C2F0E948B097D
:103EC000892B29F4CF5FC530C1F780E001C081E0C4
:103ED000CF9108950C9435171F920F920FB60F9241
:103EE00011248F939F93AF93BF938091C40181114D
:103EF00013C08091C7019091C801A091C901B091F0
:103F0000CA014196A11DB11D8093C7019093C801BC
:103F1000A093C901B093CA01BF91AF919F918F91B6
:103F20000F900FBE0F901F90189582E084BD93E014
:103F300095BD9AEF97BD80936E0008952FB7F894C2
:103F40008091C7019091C801A091C901B091CA01A7
:103F50002FBF0895CF92DF92EF92FF920F931F939E
:103F60002FB7F8944091C7015091C8016091C901E1
:103F70007091CA012FBF6A017B01EE24FF248C01DE
:103F800020E030E0C016D106E206F30610F44150FE
:103F90005109481B590BCA011F910F91FF90EF90D7
:103FA000DF90CF9008951F920F920FB60F921124B9
:103FB0008F939F93AF93BF938091C7019091C80156
:103FC000A091C901B091CA010196A11DB11D8093B4
:103FD000C7019093C801A093C901B093CA01BF91D2
:103FE000AF919F918F910F900FBE0F901F901895DA
:103FF0000E947C0DF8942FEF87EA91E621508040D3
:104000009040E1F700C0000087E090EBDC01809376
:10401000E6019093E701A093E801B093E9012CE059
:1040200088E190E00FB6F894A895809360000FBEE9
:1040300020936000FFCFCF92DF92EF92FF920F9319
:104040001F93CF93DF93C82ED12C01E010E08D2D6C
:104050000E948B097C01C0E0D0E098010C2E02C0C8
:10406000220F331F0A94E2F72E213F21232B29F43C
:104070002196CE30D10589F709C06C2F7D2D80E0C7
:104080000E94B208C812F4CF81E005C0D39485E045
:10409000D812DDCF80E0DF91CF911F910F91FF907B
:1040A000EF90DF90CF900895CF93C82F8CE20E94BD
:1040B0001B20882321F08C2FCF910C941B2080E0B3
:1040C000CF910895CF930E94AF21811102C00E9429
:1040D000952185E794E00E940E08C5E6C15049F09D
:1040E0000E94EF088FE39CE90197F1F700C0000000
:1040F000F5CF8EE694E00E940E0889E20E945420DB
:10410000811111C18AE20E94542081110E949521DF
:1041100085E00E94542081110E94F81F0E94BA215C
:104120008093C30187E00E945420882399F18BE19A
:104130000E945420882351F09091C30191FB88275D
:1041400080F921E0822780FB91F922C08EE00E9455
:104150005420882351F09091C30192FB882780F965
:1041600021E0822780FB92F913C080E10E94542055
:104170009091C301882341F093FB882780F921E0C7
:10418000822780FB93F904C0892F809580FB90F9EA
:104190009093C3018091C3010E94BE210E94CC2153
:1041A0008093D80180EE0E945420882341F08091B2
:1041B000D801982F909590FB80F98093D80189E3DE
:1041C0000E945420882359F09091D80191FB8827B0
:1041D00080F921E0822780FB91F99093D80182EE4B
:1041E0000E945420882359F09091D80192FB88278F
:1041F00080F921E0822780FB92F99093D80186EE26
:104200000E945420882359F09091D80193FB88276D
:1042100080F921E0822780FB93F99093D80183EE07
:104220000E945420882359F09091D80194FB88274C
:1042300080F921E0822780FB94F99093D80185E3EF
:104240000E945420882359F09091D80195FB88272B
:1042500080F921E0822780FB95F99093D80181E3D2
:104260000E945420882359F09091D80196FB88270A
:1042700080F921E0822780FB96F99093D80181E1B3
:104280000E945420882359F09091D80197FB8827E9
:1042900080F921E0822780FB97F99093D8018091E3
:1042A000D8010E94D0218091D80187FB882780F90E
:1042B00080930C0187E20E945420C82F8EE10E9457
:1042C00054208111C2608FE10E9454208111C4608A
:1042D00080E20E9454208111C86081E20E94542033
:1042E0008111C06182E20E9454208111C06283E288
:1042F0000E9454208111C06484E20E9454208823CB
:1043000011F0C06802C0CC2329F08C2F0E94C72175
:104310006C2F03C00E94C321682F70E080E090E002
:10432000CF910C94291BCF9108956DEE7EEF80E024
:1043300090E00E948C2C60E082E090E00E947E2C55
:1043400060E083E090E00E947E2C60E084E090E0FA
:104350000E947E2C60E085E090E00C947E2C80E052
:1043600090E00E94782C21E08D3E9E4F09F020E0E5
:10437000822F089582E090E00C94702C682F82E0E8
:1043800090E00C947E2C83E090E00C94702C682FCD
:1043900083E090E00C947E2C84E090E00C94702CF0
:1043A000682F84E090E00C947E2C8091CD0180FFFA
:1043B0000BC06091120185E0689FB00111247595D2
:1043C0006795759567952AC081FF09C060911201B4
:1043D00085E0689FB0011124759567951FC082FF25
:1043E00007C06091120185E0689FB001112416C0DA
:1043F0004091CE014423C9F060911101461788F71E
:104400002091120185E0289F90011124429FC00154
:10441000439F900D112470E00E94422C603871057A
:1044200040F46115710539F002C065E070E0862F37
:1044300008958FE7089581E008958091CD0180FF70
:1044400008C06091100170E0759567957595679546
:1044500021C081FF06C06091100170E075956795DD
:1044600019C082FF04C06091100170E010C08091FB
:10447000CE018823C1F060910F018617A0F79091BB
:104480001001989FC001112470E00E94422C6038F6
:10449000710528F46115710521F0862F08958FE7C5
:1044A000089581E0089561E070E0F4CF803F21F449
:1044B0000E94D521819504C0813F29F40E94D52115
:1044C0008093D1010895823F21F40E94D5218195E6
:1044D00004C0833F29F40E94D5218093D001089520
:1044E000893F19F40E941D2205C08A3F31F40E94C1
:1044F0001D2281958093D20108958B3F21F40E9463
:104500001D22819504C08C3F29F40E941D228093B6
:10451000D3010895843F21F48091CF01816017C0B9
:10452000853F21F48091CF01826011C0863F21F444
:104530008091CF0184600BC0873F21F48091CF012F
:10454000886005C0883F31F48091CF0180618093FD
:10455000CF0108958D3F21F48091CD0181600BC082
:104560008E3F21F48091CD01826005C08F3F29F4F8
:104570008091CD0184608093CD010895803F39F40E
:104580008091D10187FF6CC01092D10169C0813F39
:1045900029F48091D1011816BCF362C09091D0012A
:1045A000823F29F497FF5CC01092D00159C0833F2D
:1045B00019F41916CCF354C0893F41F48091D2010B
:1045C00018160CF04DC01092D2014AC08A3F29F44F
:1045D0008091D20187FF44C0F6CF8B3F39F48091A0
:1045E000D30187FF3DC01092D3013AC08C3F29F41C
:1045F0008091D3011816BCF333C0843F21F480911D
:10460000CF018E7F17C0853F21F48091CF018D7F30
:1046100011C0863F21F48091CF018B7F0BC0873F73
:1046200021F48091CF01877F05C0883F31F48091CC
:10463000CF018F7E8093CF0113C08D3F21F48091F5
:10464000CD018E7F0BC08E3F21F48091CD018D7FF7
:1046500005C08F3F29F48091CD018B7F8093CD01E0
:104660008091D00181110EC08091D10181110AC0C9
:104670008091D201811106C08091D301811102C0C5
:104680001092CE0108958091C30183FF7EC081EB1B
:1046900094E00E940E088091CF011F928F938CEAC4
:1046A00094E09F938F930E94A7088AEA94E00E9467
:1046B0000E082091D001822F992787FD90959F9316
:1046C0002F9387EA94E09F938F930E94A70885EA2F
:1046D00094E00E940E082091D101822F992787FD36
:1046E00090959F932F9382EA94E09F938F930E94DB
:1046F000A70880EA94E00E940E082091D201822F40
:10470000992787FD90959F932F938DE994E09F9330
:104710008F930E94A7088BE994E00E940E082091D5
:10472000D301822F992787FD90959F932F9388E936
:1047300094E09F938F930E94A70885E994E00E94DC
:104740000E088091CE011F928F9382E994E09F938F
:104750008F930E94A70880E994E00E940E08809140
:10476000CD011F928F938DE894E09F938F930E94C9
:10477000A7088AE894E00E940E088DB79EB74C9671
:104780000FB6F8949EBF0FBE8DBF8FEC91E00E94D4
:10479000AC110E949E1F9093CC018093CB01089591
:1047A0001F93CF93DF938091CB019091CC010E9416
:1047B000AA1F4091CE01442321F02091130130E043
:1047C00006C0209114015AE0259F90011124821700
:1047D000930708F482C08091D0011091D101D0914B
:1047E000D201C091D301811107C0111105C0D111AF
:1047F00003C0CC2309F471C04F3F19F04F5F4093C1
:10480000CE01181624F40E94D5218093D001809106
:10481000D00187FF05C00E94D52181958093D001EA
:10482000111624F40E94D5218093D1018091D101E9
:1048300087FF05C00E94D52181958093D1016091A9
:10484000D001662339F11091D101112319F1772795
:1048500067FD7095872F972F0E94532B23E333E337
:1048600043E35FE30E94B72B0E94202B6093D001AB
:10487000612F772767FD7095872F972F0E94532B05
:1048800023E333E343E35FE30E94B72B0E94202B33
:104890006093D1011D1624F40E941D228093D20141
:1048A0008091D20187FF05C00E941D2281958093CF
:1048B000D2011C1624F40E941D228093D301809102
:1048C000D30187FF05C00E941D2281958093D301EB
:1048D000DF91CF911F910C944323DF91CF911F91D2
:1048E0000895EFECF1E085E0DF011D928A95E9F78C
:1048F0001092CE011092CD01089580E899E00E94B7
:104900000E0883E799E00E940E0886E699E00C9471
:104910000E0883EE98E00E940E0886ED98E00E9453
:104920000E088BEB98E00E940E0880EA98E00E9447
:104930000E0888E898E00E940E088EE698E00E9433
:104940000E0880E598E00E940E0880E398E00E943F
:104950000E088BE198E00E940E0884E098E00E9427
:104960000E0887EE97E00E940E0888EC97E00E9400
:104970000E0888EA97E00E940E0886E897E00E94F9
:104980000E0881E597E00E940E088CE397E00E94F4
:104990000E081F9285E08F9389E397E09F938F9392
:1049A0000E94A70880E397E00E940E081F9281E012
:1049B0008F938DE297E09F938F930E94A7088BE2DD
:1049C00097E00E940E088DB79EB708960FB6F89430
:1049D0009EBF0FBE8DBF8EEF96E00C940E08833005
:1049E00009F459C028F4813061F0823079F10895DA
:1049F000853009F49AC008F473C0863009F4BAC04F
:104A0000089520911401862F90E0820F911D8F3F11
:104A1000910520F4620F6093140103C08FEF80931F
:104A200014018AED95E00E940E08809114011F92F6
:104A30008F9387ED95E09F938F930E94A7080F9027
:104A40000F900F900F9085ED95E0B8C02091130165
:104A5000862F90E0820F911D8F3F910520F4620F09
:104A60006093130103C08FEF8093130186EC95E0F0
:104A70000E940E08809113011F928F9383EC95E0A2
:104A80009F938F930E94A7080F900F900F900F9005
:104A900081EC95E093C020911201862F90E0820F67
:104AA000911D8F3F910520F4620F6093120103C0A6
:104AB0008FEF8093120181EB95E00E940E088091A8
:104AC00012011F928F938EEA95E09F938F930E941D
:104AD000A7080F900F900F900F908CEA95E06EC092
:104AE00020911101862F90E0820F911D8F3F91053B
:104AF00020F4620F6093110103C08FEF80931101C6
:104B00008AE995E00E940E08809111011F928F930F
:104B100087E995E09F938F930E94A7080F900F90CD
:104B20000F900F9085E995E049C020911001862FE4
:104B300090E0820F911D8F3F910520F4620F6093EA
:104B4000100103C08FEF809310018FE795E00E9462
:104B50000E08809110011F928F938CE795E09F9330
:104B60008F930E94A7080F900F900F900F908AE7E5
:104B700095E024C020910F01862F90E0820F911DB7
:104B80008F3F910520F4620F60930F0103C08FEFF8
:104B900080930F0182E695E00E940E0880910F013C
:104BA0001F928F938FE595E09F938F930E94A708A4
:104BB0000F900F900F900F908DE595E00C940E08DC
:104BC000833009F44DC028F4813061F0823049F11E
:104BD0000895853009F482C008F461C0863009F474
:104BE0009CC0089580911401681720F4861B80935F
:104BF000140102C01092140181E595E00E940E0894
:104C0000809114011F928F938EE495E09F938F9370
:104C10000E94A7080F900F900F900F908CE495E0E2
:104C20009AC080911301681720F4861B80931301AA
:104C300002C0109213018DE395E00E940E0880914E
:104C400013011F928F938AE395E09F938F930E94A5
:104C5000A7080F900F900F900F9088E395E07BC00E
:104C600080911201681720F4861B8093120102C004
:104C70001092120188E295E00E940E0880911201C4
:104C80001F928F9385E295E09F938F930E94A708D0
:104C90000F900F900F900F9083E295E05CC0809191
:104CA0001101681720F4861B8093110102C0109235
:104CB000110181E195E00E940E08809111011F927F
:104CC0008F938EE095E09F938F930E94A7080F909B
:104CD0000F900F900F908CE095E03DC080911001F7
:104CE000681720F4861B8093100102C010921001F7
:104CF00086EF94E00E940E08809110011F928F931E
:104D000083EF94E09F938F930E94A7080F900F90DA
:104D10000F900F9081EF94E01EC080910F016817F3
:104D200020F4861B80930F0102C010920F0189EDC1
:104D300094E00E940E0880910F011F928F9386EDE0
:104D400094E09F938F930E94A7080F900F900F906D
:104D50000F9084ED94E00C940E08CF93C82F8FE44D
:104D600099E00E940E086091AC017091AD018091B4
:104D7000AE019091AF010E94B01E1F928F932CE460
:104D800039E03F932F930E94A70887E499E00E949F
:104D90000E081F92CF9324E439E03F932F930E9493
:104DA000A70882E499E00E940E0861E070E080E0CC
:104DB00090E004C0660F771F881F991FCA95D2F72D
:104DC0000E94291B8DB79EB708960FB6F8949EBF18
:104DD0000FBE8DBFCF910C943517CF93482F50E065
:104DE000FA013697E334F10508F0AEC2E059FF4FFF
:104DF0000C94562C8DE69FE00E940E088DEA9CE0F4
:104E00000E940E080E94C3211F928F938AEA9CE0A1
:104E10009F938F930E94A70888EA9CE00E940E0847
:104E20000E94BA21C82F85E99CE00E940E081F92BB
:104E3000CF9320E93CE03F932F930E94A7088EE890
:104E40009CE00E940E0884E89CE00E940E088C2FD3
:104E500081701F928F9321E83CE03F932F930E9433
:104E6000A7088FE79CE00E940E0885E79CE00E945F
:104E70000E08C1FB882780F91F928F9322E73CE040
:104E80003F932F930E94A70880E79CE00E940E08A2
:104E900084E69CE00E940E08C2FB882780F91F92DE
:104EA0008F9321E63CE03F932F930E94A7088FE564
:104EB0009CE00E940E0886E59CE00E940E08C3FB61
:104EC000CC27C0F91F92CF9383E59CE09F938F93EB
:104ED0000E94A70881E59CE00E940E080E94CC2158
:104EE000C82F8DE39CE00E940E081F92CF9328E309
:104EF0003CE03F932F930E94A70886E39CE00E942A
:104F00000E088DE19CE00E940E088C2F81701F928C
:104F10008F932AE13CE03F932F930E94A7088DB71F
:104F20009EB780960FB6F8949EBF0FBE8DBF88E1E6
:104F30009CE00E940E0881E09CE00E940E08C1FBEC
:104F4000882780F91F928F932EEF3BE03F932F939A
:104F50000E94A7088CEF9BE00E940E088AEE9BE05F
:104F60000E940E08C2FB882780F91F928F9327EEBC
:104F70003BE03F932F930E94A70885EE9BE00E94A1
:104F80000E0883ED9BE00E940E08C3FB882780F982
:104F90001F928F9320ED3BE03F932F930E94A70831
:104FA0008EEC9BE00E940E0884EC9BE00E940E08B1
:104FB000C4FB882780F91F928F9321EC3BE03F933D
:104FC0002F930E94A7088FEB9BE00E940E088DEAAA
:104FD0009BE00E940E08C5FB882780F91F928F93E3
:104FE0002AEA3BE03F932F930E94A70888EA9BE0C0
:104FF0000E940E088CE89BE00E940E08C6FB8827E2
:1050000080F91F928F9329E83BE03F932F930E94F2
:10501000A70887E89BE00E940E088FE79BE00E94AC
:105020000E08C7FBCC27C0F91F92CF938CE79BE0FB
:105030009F938F930E94A7088AE79BE00E940E0827
:105040008DB79EB74C960FB6F8949EBF0FBE8DBF1E
:105050001DC00E945611892B79F00E945611909321
:10506000D6018093D5010E94351780E090E00E9420
:10507000511184E69FE008C08091D5019091D6013E
:105080000E94511189E59FE00E940E08C1E061C1B4
:105090008EE59BE00E940E0887E49BE00E940E08CC
:1050A0008FE29BE00E940E0887E19BE00E940E08C1
:1050B0008DEF9AE00E940E0886EE9AE00E940E089C
:1050C00086EC9AE00E940E0880EB9AE00E940E089F
:1050D0008FE99AE00E940E0887E89AE00E940E0885
:1050E00087E79AE00E940E088DE59AE00E940E087C
:1050F00084E49AE00E940E088BE29AE00E940E0877
:1051000082E19AE00E940E0889EF99E00E940E0861
:1051100088ED99E00E940E0886EB99E00E940E0847
:105120008CE999E0B1CF8091C301817F8E7F80931C
:10513000C3010E947D2484E49FE00E940E0880E465
:105140009FE00E940E0881E08093D4019FCF0E94CF
:10515000351787E29FE00E940E089FEF23ED80E362
:10516000915020408040E1F700C000000E94F81FED
:1051700087E19FE089CF8091C301C82FC17080FF74
:1051800009C084E09FE00E940E088091C301817FE6
:105190008E7F44C082EF9EE00E940E088091C30182
:1051A00081608093C30172CF8091C30181FBCC27C2
:1051B000C0F991E0C927C0FB81F98093C301CC23DA
:1051C00019F089ED9EE025C08FEB9EE05DCF8091C8
:1051D000C30182FBCC27C0F991E0C927C0FB82F94B
:1051E0008093C301CC2319F084EA9EE012C088E8C2
:1051F0009EE04ACF8091C30183FBCC27C0F991E0A8
:10520000C927C0FB83F98093C301CC2351F080E709
:105210009EE00E940E088091C30181608093C301CB
:1052200098C087E59EE030CF80E49EE00E940E08A3
:1052300081E29EE00E940E088CEE9DE00E940E0826
:105240008FEB9DE00E940E088AE79DE00E940E0809
:105250008CE49DE019CF8091C7019091C801A09185
:10526000C901B091CA01BF93AF939F938F9388E315
:105270009DE09F938F930E94A7080F900F900F902F
:105280000F900F900F9002CF82E29DE00E940E08D7
:105290000E945B111F928F9388E09DE09F938F93F4
:1052A0000E94A70880910B011F928F9381EF9CE0D1
:1052B0009F938F930E94A70880914C011F928F9318
:1052C0008EED9CE09F938F930E94A7088DB79EB7A9
:1052D0000C960FB6F8949EBF0FBE8DBFD7CE0E941E
:1052E0003517C0910C0181E0C827C0930C01CC2375
:1052F00029F08FEC9CE00E940E082BC08FEB9CE005
:10530000C3CE81E890E00E94B7119FEF21EE84E0C8
:10531000915020408040E1F700C0000080E090E024
:105320000E94B7119FEF29E688E19150204080400C
:10533000E1F700C00000AACE80E003C08D5101C09B
:1053400089530E94AD26A2CE8DEB9CE00E940E08F0
:10535000C0E08C2FCF91089580E0089580E00895FB
:10536000CF93C82F8091D401813071F020F082302A
:1053700009F44EC05DC1A0910D01B0910E018C9158
:10538000823209F057C107C0A0910D01B0910E0102
:105390008C91823249F48C2F0E94AC29811135C046
:1053A0008C2F0E94ED2632C08C2F0E94AE298111D5
:1053B0002CC0C431F1F090F4CB30A1F0C03101F534
:1053C0000E94892481E199E00E940E088DE099E015
:1053D0000E940E0882E08093D40117C0C93249F0C0
:1053E000C83371F40E947D248EE399E00E940E0878
:1053F0000CC08AE299E00E940E081092D4011CC1F0
:105400008BE099E00E940E0817C181E0817016C1FF
:10541000C83228F5CE3108F0C0C0CB30A1F1D0F4AD
:10542000C73009F0E8C08EE18093140182E38093D5
:1054300013018AE08093120184E18093110188E0D6
:105440008093100188E280930F0183EB96E00E9425
:105450000E08D6C0C33141F1C431C1F0CCC0CB3449
:1054600009F4BEC028F4C93289F0C83361F0C3C062
:10547000C13509F4B3C0C23509F4AEC0CE3409F069
:10548000BAC06AE0B3C00E948924BAC01092D701A2
:1054900086EE96E00E940E0882EE96E00E940E08CC
:1054A00081E08093D401CAC086E896E00E940E088D
:1054B00081E796E00E940E08809114011F928F935D
:1054C0008EE696E09F938F930E94A7088CE696E065
:1054D0000E940E0887E596E00E940E088091130155
:1054E0001F928F9384E596E09F938F930E94A70865
:1054F00082E596E00E940E0880E496E00E940E0885
:10550000809112011F928F938DE396E09F938F936A
:105510000E94A7088BE396E00E940E0887E296E0BF
:105520000E940E08809111011F928F9384E296E0F1
:105530009F938F930E94A70882E296E00E940E0834
:105540008AE096E00E940E08809110011F928F93CE
:1055500087E096E09F938F930E94A70885E096E0EE
:105560000E940E088BEE95E00E940E0880910F01BC
:105570001F928F9388EE95E09F938F930E94A708C8
:1055800086EE95E00E940E088DB79EB748960FB63E
:10559000F8949EBF0FBE8DBF33C0CE51EC2FF0E00C
:1055A000E25DFE4F80818093D7018DEC96E00E94F2
:1055B0000E088091D7011F928F938AEC96E09F93FB
:1055C0008F930E94A70888EC96E00E940E080F9027
:1055D0000F900F900F9014C061E003C061E006C00F
:1055E0006AE08091D7010E94EF240AC08091D70120
:1055F0000E94E02505C081EB96E00E940E0816C0CF
:105600008FEA96E00E940E088091D7011F928F9337
:105610008CEA96E09F938F930E94A70889EA96E010
:105620000E940E080F900F900F900F9081E006C01F
:105630001092D40180E002C080E0E8CECF910895BE
:1056400004D06894B1118DC0089570D088F09F5730
:1056500090F0B92F9927B751A0F0D1F0660F771FBE
:10566000881F991F1AF0BA95C9F712C0B13081F09E
:1056700077D0B1E0089574C0672F782F8827B85F7E
:1056800039F0B93FCCF3869577956795B395D9F7FF
:105690003EF490958095709561957F4F8F4F9F4F09
:1056A0000895E89409C097FB3EF490958095709515
:1056B00061957F4F8F4F9F4F9923A9F0F92F96E95E
:1056C000BB279395F695879577956795B795F111D3
:1056D000F8CFFAF4BB0F11F460FF1BC06F5F7F4F70
:1056E0008F4F9F4F16C0882311F096E911C0772382
:1056F00021F09EE8872F762F05C0662371F096E88B
:10570000862F70E060E02AF09A95660F771F881F59
:10571000DAF7880F9695879597F9089557FD905871
:10572000440F551F59F05F3F71F04795880F97FB65
:10573000991F61F09F3F79F087950895121613061F
:105740001406551FF2CF4695F1DF08C0161617064E
:105750001806991FF1CF8695710561050894089583
:10576000E894BB2766277727CB0197F908950BD0DC
:1057700078C069D028F06ED018F0952309F05AC08F
:105780005FC01124EECFCADFA0F3959FD1F3950F30
:1057900050E0551F629FF001729FBB27F00DB11DB5
:1057A000639FAA27F00DB11DAA1F649F6627B00D45
:1057B000A11D661F829F2227B00DA11D621F739F2E
:1057C000B00DA11D621F839FA00D611D221F749F3C
:1057D0003327A00D611D231F849F600D211D822F83
:1057E000762F6A2F11249F5750408AF0E1F08823CA
:1057F0004AF0EE0FFF1FBB1F661F771F881F9150D7
:105800005040A9F79E3F510570F014C0AACF5F3FEA
:10581000ECF3983EDCF3869577956795B795F79509
:10582000E7959F5FC1F7FE2B880F911D9695879591
:1058300097F9089597F99F6780E870E060E0089510
:105840009FEF80EC089500240A9416161706180698
:105850000906089500240A94121613061406050674
:105860000895092E0394000C11F4882352F0BB0F05
:1058700040F4BF2B11F460FF04C06F5F7F4F8F4F68
:105880009F4F089597FB072E16F4009407D077FDDD
:1058900009D00E945C2C07FC05D03EF490958195C0
:1058A0009F4F0895709561957F4F0895EE0FFF1FEC
:1058B0000590F491E02D0994AA1BBB1B51E107C090
:1058C000AA1FBB1FA617B70710F0A61BB70B881F90
:1058D000991F5A95A9F780959095BC01CD0108951F
:1058E000F999FECF92BD81BDF89A992780B50895A8
:1058F000A8E1B0E042E050E00C94932C262FF999F7
:10590000FECF1FBA92BD81BD20BD0FB6F894FA9AA2
:10591000F99A0FBE019608950E947E2C272F0C94B1
:105920007F2CDC01CB01FC01F999FECF06C0F2BD52
:10593000E1BDF89A319600B40D9241505040B8F74D
:065940000895F894FFCF6A
:1059460005E309C40AA10A6D0A3A0A0101B1012850
:1059560008140A321E3F4D362039BF0372033C033A
:105966001C03E30256026F028802A102C102010271
:085976000304050607080900FF
:00000001FF
