:100000000C94DD050C9421060C9421060C94210619
:100010000C9421060C9421060C9421060C942106C4
:100020000C9421060C9421060C94C30C0C94930D93
:100030000C944B1E0C9421060C9421060C94210662
:100040000C9421060C9421060C9421060C94210694
:100050000C9421060C94B21E0C9421060C942106DB
:100060000C9421060C9421060C9421060C94210674
:100070000C9421060C9421060C9421060C94210664
:100080000C9421060C9421060C9421060C94210654
:100090000C9421060C9421060C9421060C94210644
:1000A0000C9421060C9421060C942106FB0E1D0FC6
:1000B00009101D0F09105F0F830F0910D80FEB0FE8
:1000C0003313331361136113B613F213E315E315FE
:1000D0000A14E31501150115BD15E315E315D11536
:1000E000F1A1291E1F20212223242526272D2E3170
:1000F0002B141A0815171C180C12132F302AC104C0
:100100001607090A0B0D0E0F3334284BE11D1B0691
:1001100019051110363738E5524EE0E2E32CE7E6D8
:100120000000E40000005051353A3B3C3D3E3F406A
:100130004142434445010101010101010101010165
:10014000010101010101010101010101010101019F
:1001500001A80101010101010101010101014B019E
:100160000101012C0101000001000000014E0A0004
:100170002530313662003A200025303258000A72AC
:100180002F632030313233343536373839414243EA
:100190004445460A000A002530325800626F756EE9
:1001A0006365213A20005B735D004B6579626F6186
:1001B00072642073746172742E0A00555342206376
:1001C0006F6E666967757265642E0A005B575D0025
:1001D0005B535D005B525D005B445D005B435D0013
:1001E0000E036A0075006C00690061006E0000007B
:1001F0000E036A0075006C00690061006E0000006B
:100200000403090409028D00050100A0320904005D
:10021000000103010100092111010001223F000733
:1002200005810308000A0904010001030102000915
:100230002111010001224D000705820308000A096F
:10024000040200010300000009211101000122360F
:10025000000705830308000A0904030002030000E5
:10026000000921110100012220000705840320005C
:100270000107050403200001090404000103000034
:100280000009211101000122390007058503100032
:10029000011201100100000008EDFE606001000184
:1002A00002000105010906A101050719E029E7156A
:1002B0000025019508750181020508190129059598
:1002C0000575019102950175039101050719002932
:1002D0007715002501957875018102C00631FF0967
:1002E00074A1010975150025FF9520750881020983
:1002F00076150025FF952075089102C0050109803B
:10030000A101850216010026B7001A01002AB700D4
:10031000751095018100C0050C0901A10185031626
:100320000100269C021A01002A9C02751095018189
:1003300000C005010902A1010901A1000509190177
:1003400029051500250195057501810295017503A3
:1003500081010501093009311581257F9502750854
:10036000810609381581257F950175088106050CE0
:100370000A38021581257F950175088106C0C005E0
:10038000010906A101050719E029E71500250195D6
:100390000875018102950175088101050819012977
:1003A00005950575019102950175039101050719E0
:1003B0000029FF150025FF950675088100C00A0079
:1003C0002530325820006B6579626F6172645F720C
:1003D00065706F72743A20000A0025303258006B45
:1003E0006579626F6172645F7365745F6C65643AAE
:1003F000200064656C5F6B65795F6269743A2063A5
:10040000616E27742064656C3A20253032580A00EA
:100410006164645F6B65795F6269743A2063616EE1
:100420002774206164643A20253032580A00646FD2
:100430006E652E0A00626F6F676D61676963207376
:1004400063616E3A202E2E2E2000290A00257500A9
:100450002F002575005D280025640020002564001C
:10046000200025640020002564007C0025303258DF
:10047000006D6F7573656B6579205B62746E7C7857
:100480002079207620685D287265702F61636C2961
:100490003A205B006D6B5F776865656C5F74696DB2
:1004A000655F746F5F6D6178203D2025640A006D83
:1004B0006B5F776865656C5F6D61785F73706565AC
:1004C00064203D2025640A006D6B5F74696D655F73
:1004D000746F5F6D6178203D2025640A006D6B5F4D
:1004E0006D61785F7370656564203D2025640A0046
:1004F0006D6B5F696E74657276616C203D2025645A
:100500000A006D6B5F64656C6179203D2025640A8B
:10051000006D6B5F776865656C5F74696D655F74AE
:100520006F5F6D6178203D2025640A006D6B5F77F9
:100530006865656C5F6D61785F7370656564203DAB
:100540002025640A006D6B5F74696D655F746F5F71
:100550006D6178203D2025640A006D6B5F6D6178C8
:100560005F7370656564203D2025640A006D6B5FD4
:10057000696E74657276616C203D2025640A006D99
:100580006B5F64656C6179203D2025640A000A0078
:10059000257500363A20776865656C5F74696D650E
:1005A0005F746F5F6D61783A20000A002575003531
:1005B0003A20776865656C5F6D61785F737065651B
:1005C000643A20000A00257500343A2074696D658C
:1005D0005F746F5F6D61783A20000A002575003303
:1005E0003A206D61785F73706565643A20000A0097
:1005F000257500323A20696E74657276616C286DDB
:1006000073293A20000A00257500313A2064656C90
:100610006179282A31306D73293A20000A092D208A
:1006200056616C756573202D0A004D3E004D2564A2
:100630003E20003F007365742064656661756C74CC
:100640000A00433E200077686572652064656C741B
:10065000613A20637572736F723D25642C20776850
:1006600065656C3D25640A53656520687474703A4D
:100670002F2F656E2E77696B6970656469612E6FC7
:1006800072672F77696B692F4D6F7573655F6B6547
:1006900079730A000A092D204D6F7573656B6579B2
:1006A000202D0A4553432F713A09717569740A3137
:1006B0003A0964656C6179282A31306D73290A32F0
:1006C0003A09696E74657276616C286D73290A3314
:1006D0003A096D61785F73706565640A343A09742C
:1006E000696D655F746F5F6D61780A353A09776887
:1006F00065656C5F6D61785F73706565640A363A35
:1007000009776865656C5F74696D655F746F5F6DAF
:1007100061780A0A703A097072696E742076616CA9
:100720007565730A643A097365742064656661755A
:100730006C74730A75703A092B310A646F776E3ADC
:10074000092D310A706775703A092B31300A7067CC
:10075000646F776E3A092D31300A0A7370656564EB
:10076000203D2064656C7461202A206D61785F7380
:1007700070656564202A2028726570656174202F79
:100780002074696D655F746F5F6D6178290A003F41
:10079000004D3E2000433E20004C25640A000A091B
:1007A0002D20436F6E736F6C65202D0A4553432FC8
:1007B000713A09717569740A6D3A096D6F757365DF
:1007C0006B65790A000A092D204D61676963202D48
:1007D0000A643A0964656275670A783A0964656271
:1007E0007567206D61747269780A6B3A0964656295
:1007F0007567206B6579626F6172640A6D3A09648E
:1008000065627567206D6F7573650A763A0976655E
:100810007273696F6E0A733A097374617475730A3F
:10082000633A09636F6E736F6C65206D6F64650A60
:10083000302D343A096C61796572302D3428463197
:10084000302D4634290A506175733A09626F6F740E
:100850006C6F616465720A653A09656570726F6DE7
:100860000A6E3A094E4B524F0A000A002575002EB7
:100870006E6B726F3A20000A002575002E73776147
:10088000705F6261636B736C6173685F6261636BFD
:1008900073706163653A20000A002575002E737736
:1008A00061705F67726176655F6573633A20000A05
:1008B000002575002E6E6F5F6775693A20000A008B
:1008C0002575002E737761705F72616C745F72675B
:1008D00075693A20000A002575002E737761705FF4
:1008E0006C616C745F6C6775693A20000A0025754D
:1008F000002E636170736C6F636B5F746F5F636F07
:100900006E74726F6C3A20000A002575002E7377A2
:1009100061705F636F6E74726F6C5F636170736C34
:100920006F636B3A20000A0025303258006B6579FE
:100930006D61705F636F6E6669672E7261773A20D2
:10094000000A002575002E6D6F7573653A20000A48
:10095000002575002E6B6579626F6172643A200024
:100960000A002575002E6D61747269783A20000ABC
:10097000002575002E656E61626C653A20000A00E4
:10098000253032580064656275675F636F6E666913
:10099000672E7261773A20000A002575006465664B
:1009A00061756C745F6C617965723A20003F004E2E
:1009B0004B524F3A206F66660A004E4B524F3A2018
:1009C0006F6E0A0074696D65725F636F756E743A5D
:1009D000202530346C580A006B6579626F6172644F
:1009E0005F69646C653A2025580A006B6579626F0F
:1009F0006172645F70726F746F636F6C3A20255818
:100A00000A00686F73745F6B6579626F6172645F0F
:100A10006C65647328293A2025580A000A092D209C
:100A2000537461747573202D0A004743433A203490
:100A30002E382E31204156522D4C4942433A203116
:100A40002E382E3073766E204156525F4152434805
:100A50003A20617672350A004F5054494F4E533A4E
:100A6000204C55464120424F4F544D414749432069
:100A70004D4F5553454B45592045585452414B45D0
:100A80005920434F4E534F4C4520434F4D4D414EFF
:100A900044204E4B524F20343039360A00425549DB
:100AA0004C443A20383164333432632D64697274B3
:100AB00079202832313A33303A3132204A756C206D
:100AC00032362032303135290A005649443A203036
:100AD0007846454544286A756C69616E29205049FD
:100AE000443A20307836303630286A756C69616E49
:100AF00029205645523A203078303030310A0044AF
:100B00004553433A206669726D7761726520666F5E
:100B10007220746865207465656E73790A000A092D
:100B20002D2056657273696F6E202D0A000A6D6F55
:100B30007573653A206F66660A000A6D6F75736596
:100B40003A206F6E0A000A6B6579626F6172643ACF
:100B5000206F66660A000A6B6579626F6172643A9B
:100B6000206F6E0A000A6D61747269783A206F66B0
:100B7000660A000A6D61747269783A206F6E0A0025
:100B80000A64656275673A206F66660A000A6465E2
:100B90006275673A206F6E0A000A0A626F6F746CA2
:100BA0006F616465722E2E2E2000433E2000656525
:100BB000636F6E6669673A0A000011241FBECFEFAB
:100BC000DAE0DEBFCDBF04B603FE24C08091E601AB
:100BD0009091E701A091E801B091E9018730904B35
:100BE000A740B04BB9F41092E6011092E7011092C1
:100BF000E8011092E90114BE84B7877F84BF88E1C1
:100C00000FB6F89480936000109260000FBEE0E091
:100C1000F8E3099511E0A0E0B1E0E6E0F4E502C0F8
:100C200005900D92A833B107D9F721E0A8E3B1E010
:100C300001C01D92A63EB207E1F70E940A0B0C9478
:100C4000012A0C940000FF93EF93E0914C01F09186
:100C50004D01309709F00995EF91FF910895FC013E
:100C60008591803011F0EFDFFBCF0895FF27E0E2A0
:100C700030E247FF0CC0419597FF09C0EDE2609557
:100C8000709580959095611D711D811D911D27FFA7
:100C900002C0219530E350E2AA27660F771F881F14
:100CA000991FAA1FA41710F0A41B63955A95A9F7C2
:100CB000AA3008F0A95FA05DAF93F39561157105A7
:100CC0008105910541F7ED3211F4EF93F395F21799
:100CD00018F43F93F395FBCF8F91B5DFFA95E1F7C9
:100CE0000895E991F9918591803021F0853219F0CC
:100CF000AADFF9CF089520E0E89455915532C1F369
:100D0000503311F4689455915A3348F4505390F38A
:100D1000220F022E220F220F200D250FF4CF0EF4EA
:100D2000219589919991533619F3533729F1533508
:100D300059F1BC0188279927E8945C3621F4899100
:100D4000999168945591543639F446EF7EF077FFC7
:100D50000DC08FEF9FEF0AC055374AE039F0583584
:100D600040E121F0523642E009F00895FF93EF93FD
:100D70007DDFEF91FF91B7CFFF93EF93FC0181915E
:100D80008030B9F360DFFBCFFF93EF9368DFF1CFE3
:100D9000DF93CF93CDB7DEB72596A3DFCF91DF9159
:100DA0000895089508959EE0799FF001112496E436
:100DB000899FE00DF11D1124E60FF11DEE51FF4F4B
:100DC00084910895E82FF0E0EE0FFF1FE05AF04005
:100DD00085919491089584B18F7884B985B18F7885
:100DE00085B957985F9808950E94EB0680B38C7080
:100DF00080BB81B3836F81BB84B114B885B18FEFA1
:100E000085B957985F9AE2E4F1E0A8E3B1E0119266
:100E100011921D921D9281E0EC34F807C1F70895FC
:100E2000EF92FF921F93CF93DF93C8E3D1E010E0DE
:100E3000E7E9EE2EE1E0FE2E123071F018F41130E9
:100E400041F004C0133059F0143061F0509A5898B2
:100E50000BC0519A599808C0529A5A9805C0539A93
:100E60005B9802C03E9A469880EA8A95F1F723B1D2
:100E7000332727FD309520953095832F881F8827AD
:100E8000881F90E01B9B03C060E070E002C062E03E
:100E900070E0862B972B1A9B03C060E070E002C0C5
:100EA00064E070E0682B792B199B03C040E050E0B0
:100EB00002C048E050E09B01242B352B189B03C057
:100EC00040E050E002C040E150E0242B352B89B1D6
:100ED000992787FD9095809590958827990F881F71
:100EE000992775E0880F991F7A95E1F7282B392B00
:100EF0001C9B03C080E090E002C080E490E0282BBF
:100F0000392B1D9B03C080E090E002C080E890E098
:100F1000282B392B1E9B03C080E090E002C080E0AC
:100F200091E0282B392B8FB1992787FD90958095DB
:100F300090958827990F881F9927982F8827990FB0
:100F4000282B392B7E9B03C060E070E002C060E07C
:100F500074E0262B372B7D9B03C060E070E002C05D
:100F600060E078E0262B372B7C9B03C040E050E00C
:100F700002C040E050E1242B352B799B03C080E078
:100F800090E002C080E090E2282B392B789B03C0D0
:100F900080E090E002C080E090E4282B392B88812B
:100FA00099818217930749F1398328838091000141
:100FB000882301F18091C70180FF04C08CE991E092
:100FC0000E942F068091C70180FF0CC08091000114
:100FD0001F928F93FF92EF920E94C8060F900F907E
:100FE0000F900F908091C70180FF04C085E991E0C8
:100FF0000E942F0685E0809300010E94EB061F5F90
:101000002296153009F018CF809100018823C1F095
:10101000815080930001882339F08FE99FE0019788
:10102000F1F700C000000CC0A2E4B1E0E8E3F1E099
:10103000819191918D939D9391E0E234F907C1F7ED
:101040006091AC017091AD018091AE019091AF01C2
:101050000E948F1D882329F0833028F43F9A479AF5
:1010600002C03F98479881E0DF91CF911F91FF9098
:10107000EF900895E82FF0E0EE0FFF1FEE5BFE4FBC
:10108000808191810895CF92DF92EF92FF920F932A
:101090001F93CF93DF938EE791E00E942F06C2E467
:1010A000EC2EC1E0FC2EC0E0D0E019E7C12E11E02B
:1010B000D12E00E711E0DF93CF93DF92CF920E9411
:1010C000C80686E791E00E942F06F7018191919171
:1010D0007F010E94F41D9F938F931F930F930E9493
:1010E000C8068EE691E00E942F0621968DB79EB726
:1010F00008960FB6F8949EBF0FBE8DBFC530D105C0
:10110000D1F6DF91CF911F910F91FF90EF90DF907B
:10111000CF90089585FF03C0809A889A089580989B
:10112000889808958091610108959FB7F89410926E
:1011300050019FBF9091DD01943009F058C090910B
:10114000E9009F702091EC0020FF02C020E801C060
:1011500020E0292B94E09093E9009091EB0090FF20
:1011600043C09091EE0097FF3FC090914E019923AC
:1011700021F09091E80095FF37C010924E0196E063
:101180003091E80035FD15C03091DD01343061F556
:101190003091EB0035FD28C0915021F481E080931F
:1011A0004E0122C0EFE9FFE03197F1F700C00000E7
:1011B000E7CF8093F1008091E80085FD0AC080911F
:1011C000E80080FFFCCF8091E8008E778093E800F4
:1011D00006C08FB7F89491E0909350018FBF2F70A5
:1011E0002093E90080E008952F702093E9008FEFAD
:1011F0000895CF93DF9300D01F92CDB7DEB7209133
:10120000DD01243019F523E029839B838A83209311
:10121000E9008FEF9091E800815095FD06C095EDB3
:101220009A95F1F700008111F5CF8091E80085FFD4
:101230000DC040E050E063E070E0CE0101960E94F6
:10124000CF0D8091E8008E778093E8000F900F908B
:101250000F90DF91CF910895CF93DF9300D01F922D
:10126000CDB7DEB72091DD01243021F522E02983BE
:101270009B838A8383E08093E9008FEF9091E8005D
:10128000815095FD06C095ED9A95F1F7000081110A
:10129000F5CF8091E80085FF0DC040E050E063E0AD
:1012A00070E0CE0101960E94CF0D8091E8008E770C
:1012B0008093E8000F900F900F90DF91CF910895E9
:1012C0002091DD012430F1F422E02093E9002FEF9A
:1012D0003091E800215035FD06C035ED3A95F1F723
:1012E00000002111F5CF2091E80025FF0BC040E060
:1012F00050E065E070E00E94CF0D8091E8008E77AD
:101300008093E8000895CF93DF93EC018091DD0195
:10131000843009F043C080910C018823C1F085E03E
:101320008093E9008FEF9091E800815095FD06C011
:1013300095E19A95F1F700008111F5CF8091E800D1
:1013400085FF2CC040E050E060E170E017C081E014
:101350008093E9008FEF9091E800815095FD06C0E1
:1013600095ED9A95F1F700008111F5CF8091E80095
:1013700085FF14C040E050E068E070E0CE010E94BC
:10138000CF0D8091E8008E778093E80080E1FE0128
:10139000A1E5B1E001900D928A95E1F7DF91CF913F
:1013A00008958CED91E00E942F068091DC0181115F
:1013B00009C00E944D0C0E94AA0C8091E20084603A
:1013C0008093E200089588ED91E00E942F0610922C
:1013D000DC01089584ED91E00C942F0680ED91E0FE
:1013E0000C942F068CEC91E00E942F060C94491E61
:1013F00080914F018F5F80934F0162E30E94962995
:10140000911135C010924F0180915001882379F1DC
:101410008091DD01843049F58091E9008F709091D1
:10142000EC0090FF02C090E801C090E0982B84E0AF
:101430008093E9008091EB0080FF14C08091EE0062
:1014400087FF10C08091E80085FF03C01092F10073
:10145000F9CF8091E80080FF05C08091E8008E7789
:101460008093E8009F709093E900109250010895D6
:1014700042E061EC81E00E94C70B42E061EC82E057
:101480000E94C70B42E061EC83E00E94C70B46E27A
:1014900061EC84E00E94C70B42E161EC85E00C94B2
:1014A000C70B8091DF01833009F455C030F48130DF
:1014B00071F0823009F495C008958A3009F481C032
:1014C0008B3009F460C0893009F0A3C020C080913E
:1014D000DE01813A09F09DC08091E800877F80930A
:1014E000E8008091E2019091E301892B21F060E016
:1014F00080E090E003C060E181E591E070E00E944F
:10150000180E8091E8008B778093E8000895809111
:10151000DE01813209F07DC08091E2019091E3010A
:10152000009719F0049709F074C08091E800877F54
:101530008093E8008091E80082FD05C08091DD0184
:101540008111F8CF66C08091F10080936101809194
:10155000E8008B775AC08091DE01813A09F059C0CA
:101560008091E2019091E301892B09F052C08091B2
:10157000E800877F8093E8008091E80080FFFCCF3F
:1015800080910B013DC08091DE01813209F041C0A4
:101590008091E2019091E301892BD9F58091E800D7
:1015A000877F8093E8000E94FC0B9091E00181E02E
:1015B000911101C080E080930B0180930C010C9489
:1015C00004168091DE01813221F58091E800877F49
:1015D0008093E8000E94FC0B8091E10180936201FE
:1015E00008958091DE01813AA1F48091E800877F1F
:1015F0008093E8008091E80080FFFCCF8091620139
:101600008093F1008091E8008E778093E8000C943D
:10161000FC0B089584B7877F84BF88E10FB6F894E8
:1016200080936000109260000FBE90E080E80FB6DB
:10163000F89480936100909361000FBE0E94B010F7
:101640000E944D0C0E94AA0C8091E200846080935D
:10165000E20085E998E00E948A1D78948091DD017E
:101660008430E1F78BEB91E00E942F060E94B210CC
:1016700081E091E00E9422108AEA91E00E942F0608
:101680008091DD01853089F486EA91E00E942F0681
:101690000E940E1E8091DB01882391F30E94341E6C
:1016A000882371F30E94B10BEBCF0E94E010E8CFCA
:1016B000292F332723303105A9F06CF4213031056F
:1016C00009F442C02230310509F043C08DE890E0B2
:1016D00024E032E042C021323105C9F02232310526
:1016E00019F137C099278130910541F08230910579
:1016F00041F0892B71F5E0E0F2E005C0E0EFF1E0A8
:1017000002C0E0EEF1E0849190E09F0126C06530D8
:1017100000F5E62FF0E0EE0FFF1FEC5DFE4F20819D
:10172000318189E090E019C0653098F4E62FF0E04F
:10173000DF01AA0FBB1FA65EBE4F2D913C91EB5E51
:10174000FE4F808190E009C082E190E021E932E023
:1017500004C080E090E020E030E0FA013183208393
:10176000089580E189BD82E189BD09B400FEFDCF05
:101770008091D8008F7D8093D8008091E0008260B6
:101780008093E0008091E00081FDFCCF0895982FC8
:10179000973058F59093E900981739F07091EC0064
:1017A0002091ED005091F00003C0242F762F50E0DF
:1017B00021FF19C03091EB003E7F3093EB00309158
:1017C000ED003D7F3093ED003091EB0031603093C0
:1017D000EB007093EC002093ED005093F00020910B
:1017E000EE0027FF07C09F5FD3CF8F708093E90083
:1017F00081E0089580E008958091DE0187FD05C0B5
:101800008091E80080FF0EC012C08091E80082FD48
:1018100005C08091DD018111F8CF08958091E80025
:101820008B7708C08091DD018111EACF0895809106
:10183000E8008E778093E80008958091E40090910D
:10184000E50045E62091EC0020FF21C02091E80052
:1018500020FD21C02091DD01222389F0253089F06F
:101860002091EB0025FD0FC02091E4003091E500B0
:101870002817390739F3415041F0C901E3CF82E01D
:10188000089583E0089581E0089584E0089520910B
:10189000E80022FFDFCF80E008950E94B60C0E948E
:1018A000BE0CE0EEF0E0808181608083E8EDF0E046
:1018B00080818F77808319BCA7EDB0E08C918E7FFB
:1018C0008C9380818F7E80831092DC0108950F932A
:1018D0001F93CF93DF930E94B60C0E94BE0CC8EDFD
:1018E000D0E088818F778883888180688883888129
:1018F0008F7D888319BC1092DD011092D90110925E
:10190000DB011092DA0100EE10E0F80180818B7F9C
:10191000808388818160888342E060E080E00E946B
:10192000C70BE1EEF0E080818E7F8083E2EEF0E095
:10193000808181608083808188608083F8018081DC
:101940008E7F8083888180618883DF91CF911F9112
:101950000F910895E7EDF0E080818160808384E05D
:1019600082BF81E08093DC010C94670CE8EDF0E02D
:1019700080818E7F80831092E20008951092DA00B9
:101980001092E10008951F920F920FB60F9211244A
:101990002F933F934F935F936F937F938F939F9377
:1019A000AF93BF93EF93FF938091E10082FF0BC051
:1019B0008091E20082FF07C08091E1008B7F8093DD
:1019C000E1000E94F8098091DA0080FF1FC0809139
:1019D000D80080FF1BC08091DA008E7F8093DA00F0
:1019E0008091D90080FF0DC080E189BD82E189BD71
:1019F00009B400FEFDCF81E08093DD010E94D10992
:101A000005C019BC1092DD010E94E3098091E1003C
:101A100080FF19C08091E20080FF15C08091E20034
:101A20008E7F8093E2008091E20080618093E200EB
:101A30008091D80080628093D80019BC85E08093A3
:101A4000DD010E94EE098091E10084FF2EC08091AB
:101A5000E20084FF2AC080E189BD82E189BD09B42A
:101A600000FEFDCF8091D8008F7D8093D8008091BB
:101A7000E1008F7E8093E1008091E2008F7E809371
:101A8000E2008091E20081608093E2008091D901C0
:101A9000811104C08091E30087FF02C084E001C08F
:101AA00081E08093DD010E94F2098091E10083FFD3
:101AB00029C08091E20083FF25C08091E100877FEB
:101AC0008093E10082E08093DD011092D901809142
:101AD000E1008E7F8093E1008091E2008E7F809311
:101AE000E2008091E20080618093E20042E060E0E9
:101AF00080E00E94C70B8091F00088608093F00026
:101B00000E94EA09FF91EF91BF91AF919F918F9150
:101B10007F916F915F914F913F912F910F900FBEE9
:101B20000F901F9018951F920F920FB60F921124CD
:101B30002F933F934F935F936F937F938F939F93D5
:101B4000AF93BF93CF93EF93FF93C091E900CF7012
:101B50008091EC001092E9008091F000877F8093E3
:101B6000F00078940E94D10E1092E9008091F0006C
:101B700088608093F000C093E900FF91EF91CF91CE
:101B8000BF91AF919F918F917F916F915F914F9195
:101B90003F912F910F900FBE0F901F901895CF92ED
:101BA000DF92EF92FF920F931F93CF93DF937C010D
:101BB0008B01EA010E941D0C811131C0209731F088
:101BC00088819981081B190BE80EF91EC12CD12CB4
:101BD0000115110519F18091E80085FD14C080916F
:101BE000E8008E778093E800209741F08881998102
:101BF0008C0D9D1D9983888385E011C00E941D0C6A
:101C0000882331F30CC0F70181917F018093F100AB
:101C100001501109FFEFCF1ADF0ADACF80E0DF9120
:101C2000CF911F910F91FF90EF90DF90CF9008958B
:101C30002091E4013091E5012617370748F061153E
:101C4000710539F42091E8002E772093E80001C057
:101C5000B901FC0120E061157105A9F18091DD0158
:101C60008823E9F18530E9F18091E80083FD35C0F2
:101C70008091E80082FF06C08091E80082FF26C0C4
:101C800080E008958091E80080FFE5CF2091F30087
:101C90008091F20090E0922B6115710551F088302F
:101CA000910538F421912093F1006150710901965A
:101CB000F3CF21E0089709F020E08091E8008E77CB
:101CC0008093E800C8CF2111C9CFD6CF8091DD0124
:101CD000882329F0853081F604C081E0089582E0F0
:101CE000089583E008952091E4013091E5012617DD
:101CF000370748F06115710539F42091E8002E7717
:101D00002093E80001C0B901FC0120E061157105D4
:101D1000C1F18091DD01882309F43FC0853009F4C9
:101D20003EC08091E80083FD36C08091E80082FFCC
:101D300006C08091E80082FF27C080E0089580916E
:101D4000E80080FFE3CF2091F3008091F20090E063
:101D5000922B6115710559F08830910540F424915A
:101D60002093F1003196615071090196F2CF21E084
:101D7000089709F020E08091E8008E778093E800D2
:101D8000C5CF2111C6CFD5CF8091DD01882329F0A1
:101D9000853079F604C081E0089582E0089583E0FB
:101DA00008950F931F93CF93DF93CDB7DEB7AA9714
:101DB0000FB6F894DEBF0FBECDBFEEEDF1E080911F
:101DC000F100819321E0E63EF207C9F70E94510A33
:101DD0008091E80083FF1DC12091DE013091DF0179
:101DE000832F90E08A30910508F013C1FC01EA5A74
:101DF000FF4F0C94B629203881F0223809F009C130
:101E00008091E2018F708093E9008091EB0085FB67
:101E1000882780F91092E90006C08091DA0190913C
:101E2000DB01911182609091E800977F9093E80028
:101E30008093F1001092F100C6C0822F8D7F09F0CF
:101E4000E8C0222319F0223061F0E3C08091E00164
:101E5000813009F0DEC0333009F080E08093DB018F
:101E600028C08091E001811124C02091E2012F70EF
:101E700009F4CFC02093E9008091EB0080FF19C0E6
:101E80008091EB00333011F4806211C08061809347
:101E9000EB0081E090E0022E01C0880F0A94EAF77F
:101EA0008093EA001092EA008091EB0088608093B2
:101EB000EB001092E9008091E800877F87C0211134
:101EC000A8C01091E0011F770FB7F8948091E80047
:101ED000877F8093E8000E94FC0B8091E80080FFE0
:101EE000FCCF8091E3008078812B8093E3008068B1
:101EF0008093E300112311F083E001C082E080931E
:101F0000DD010FBF86C02058223008F082C08091CA
:101F1000E0019091E1018C3D23E0920779F583E0A7
:101F20008A838AE289834FB7F894DE01139620E012
:101F30003EE051E2E32FF0E050935700E49120FFA0
:101F400003C0E295EF703F5FEF708E2F90E0EA30B4
:101F500010F0C79601C0C0968D939D932F5F2431DA
:101F600049F74FBF8091E800877F8093E8006AE2DD
:101F700070E0CE0101960E94180E14C0AE014F5FB2
:101F80005F4F6091E2010E94580B009709F441C035
:101F90002091E800277F2093E800BC0189819A8185
:101FA0000E94730E8091E8008B778093E80031C027
:101FB000203879F58091E800877F8093E800809150
:101FC000D9018093F1008091E8008E778093E8003A
:101FD0000E94FC0B1EC021111CC09091E0019230A8
:101FE000C0F48091E800877F8093E8009093D90146
:101FF0000E94FC0B8091D901811104C08091E30003
:1020000087FF02C084E001C081E08093DD010E946F
:10201000380A8091E80083FF0AC08091EB0080625B
:102020008093EB008091E800877F8093E800AA9678
:102030000FB6F894DEBF0FBECDBFDF91CF911F91D9
:102040000F91089590936801809367010895E0913E
:102050006701F0916801309721F00190F081E02D47
:10206000099480E00895FF920F931F93CF93DF931D
:102070008C01E0916701F0916801309799F102803D
:10208000F381E02D09958091C70182FF2BC080FF6D
:1020900004C086EC93E00E942F06E80180E1F82E50
:1020A00000EC13E08091C70180FF0BC088811F9274
:1020B0008F931F930F930E94C8060F900F900F905D
:1020C0000F90FA942196F110EDCF8091C70180FF17
:1020D00009C08EEB93E0DF91CF911F910F91FF909C
:1020E0000C942F06DF91CF911F910F91FF900895CF
:1020F000E0916701F0916801309721F00480F5814B
:10210000E02D0994089520916501309166018217B0
:10211000930771F09093660180936501E0916701E8
:10212000F0916801309721F00680F781E02D099445
:10213000089520916301309164018217930771F033
:102140009093640180936301E0916701F0916801CD
:10215000309721F00084F185E02D099408950895C9
:102160000C94AF100E94741E0E94F4060C94411F40
:10217000CF93C82F8091C70182FF1EC080FF04C08B
:102180008FED93E00E942F068091C70180FF0CC065
:102190001F92CF932AED33E03F932F930E94C806FE
:1021A0000F900F900F900F908091C70180FF04C097
:1021B00088ED93E00E942F068C2FCF910C948A0813
:1021C0005F926F927F928F929F92AF92BF92CF92C7
:1021D000DF92EF92FF920F931F93CF93DF93CDB7D0
:1021E000DEB72A970FB6F894DEBF0FBECDBF0E94B0
:1021F00010079AE6C92E91E0D92E00E010E0AA243B
:10220000A394B12C502E802F0E943A083C01F60175
:10221000E190F1906F01E826F926E114F104B1F4A0
:102220000F5F1F4F0530110569F78FEF89838A8390
:102230001B820E947D1E8160782F9D838C83498143
:102240005A816B818D810E9499113AC08091C7019A
:1022500081FD0E94430820E030E04501022E02C0CB
:10226000880C991C0A94E2F7C4018E219F21892BC6
:1022700009F12E835F826820792081E0672809F4C4
:1022800080E088870E947D1E8160782F9A878987E9
:102290004E815F8168858A850E949911F801EE0F51
:1022A000FF1FE659FE4F80819181882599259183F2
:1022B000808306C02F5F3F4F2E30310571F6B0CFBF
:1022C0000E94AF22109169010E9427101817D9F0BF
:1022D0000E942710809369012A960FB6F894DEBFFA
:1022E0000FBECDBFDF91CF911F910F91FF90EF9067
:1022F000DF90CF90BF90AF909F908F907F906F9026
:102300005F900C94B8102A960FB6F894DEBF0FBEFB
:10231000CDBFDF91CF911F910F91FF90EF90DF9094
:10232000CF90BF90AF909F908F907F906F905F9075
:102330000895CF93DF93CDB7DEB72B970FB6F89400
:10234000DEBF0FBECDBF4F83588769877A878B87E3
:10235000DE01119686E0FD0111928A95E9F785E08C
:10236000FE01379601900D928A95E1F749815A81D5
:102370006B817C818D819E810E94D0182B960FB637
:10238000F894DEBF0FBECDBFDF91CF910895CF93FC
:10239000C82F882309F4C1C0823859F40E9427103D
:1023A00081FDBBC089E30E946B1B0E943F1C89E337
:1023B0000CC0833879F40E94271080FDAEC083E5FD
:1023C0000E946B1B0E943F1C83E50E94B81BCF91AB
:1023D0000C943F1C843859F40E94271082FD9DC044
:1023E00087E40E946B1B0E943F1C87E4EECF8CEFBA
:1023F0008C0F813A48F48C2F0E94222781118DC0C6
:102400008C2F0E946B1BE3CF80E28C0F883048F446
:10241000C77081E001C0880FCA95EAF70E94061CC8
:10242000D6CF8BE58C0F833078F4C53A29F0C63AC5
:1024300031F482E890E005C081E890E002C083E8D2
:1024400090E0CF910C94831088E58C0F833108F0D5
:1024500064C0C83A39F1C93A41F1CA3A49F1CB3AB4
:1024600051F1CC3A59F1CD3A61F1C03B69F1CE3A24
:1024700071F1CF3A79F1C13B81F1C23B89F1C33BA4
:1024800091F1C43B99F1C53BA1F1C63BA9F1C73B12
:10249000B1F1C83BB9F1C93BC1F1CA3BC9F58AE208
:1024A00092E038C082EE90E035C089EE90E032C014
:1024B0008AEE90E02FC085EB90E02CC086EB90E098
:1024C00029C087EB90E026C08CEC90E023C08DEC17
:1024D00090E020C083E891E01DC08AE891E01AC036
:1024E00082E991E017C084E991E014C081E292E0B2
:1024F00011C083E292E00EC084E292E00BC085E25C
:1025000092E008C086E292E005C087E292E002C055
:1025100080E090E0CF910C949910CF91089588239A
:1025200009F44BC0823859F40E94271081FF45C03E
:1025300089E30E946B1B0E943F1C89E30CC0833817
:1025400071F40E94271080FF38C083E50E946B1B46
:102550000E943F1C83E50E94B81B0C943F1C8438EA
:1025600059F40E94271082FF28C087E40E946B1B49
:102570000E943F1C87E4EFCF9CEF980F913A58F3ED
:1025800090E2980F983050F4877091E001C0990F55
:102590008A95EAF7892F0E940C1CDFCF9BE5980FE4
:1025A000933020F480E090E00C948310885A8331BB
:1025B00020F480E090E00C9499100895882321F095
:1025C0000E94061C0C943F1C0895882321F00E9451
:1025D0000C1C0C943F1C0895CF92DF92EF92FF9257
:1025E0000F931F93CF93DF93CDB7DEB728970FB626
:1025F000F894DEBF0FBECDBF8C0185E0F801DE018F
:10260000119601900D928A95E1F7F8014081318190
:10261000F280258122952F7083819481892B31F05E
:102620003F3F31F481E04F3F19F403C081E001C026
:1026300080E080FDC8C249833A8389819A812F83D3
:102640000E94291B9E8388870E94281B0E94FB19D9
:102650004E81E42FE295EF70F0E0E05AFF4F2F81BA
:1026600068850C94B629842F807F142F1F708823CF
:1026700011F01295107FFF2059F0112309F458C270
:10268000812F68870E94161C0E943F1C688550C2DB
:10269000862F0E948F12112309F495C2812F0E9468
:1026A0001C1C28960FB6F894DEBF0FBECDBFDF917D
:1026B000CF911F910F91FF90EF90DF90CF900C94EE
:1026C0003F1C342F307F842F8F70303211F0829571
:1026D000807F662319F0613009F12AC0FF20A1F044
:1026E000222381F1213071F528960FB6F894DEBFD0
:1026F0000FBECDBFDF91CF911F910F91FF90EF9053
:10270000DF90CF900C94261C222319F0213009F47D
:102710005AC28E830E94291C8E818EC1FF2021F017
:10272000263008F050C20EC0253008F04CC284C1DB
:10273000FF20C1F0222331F0F801958190FFF8C10C
:102740009F70958328960FB6F894DEBF0FBECDBF5D
:10275000DF91CF911F910F91FF90EF90DF90CF907D
:102760000C94DE12222309F467C1F6C1242F2695AA
:102770002695237030E02115310521F021303105F7
:10278000C9F021C2FF2021F0862F942F937002C040
:1027900080E090E028960FB6F894DEBF0FBECDBF64
:1027A000DF91CF911F910F91FF90EF90DF90CF902D
:1027B0000C948310FF2021F0862F942F937002C079
:1027C00080E090E028960FB6F894DEBF0FBECDBF34
:1027D000DF91CF911F910F91FF90EF90DF90CF90FD
:1027E0000C949910862FFF2019F00E94352102C009
:1027F0000E949D2128960FB6F894DEBF0FBECDBF74
:10280000DF91CF911F910F91FF90EF90DF90CF90CC
:102810000C942222842F837009F076C0F110D3C16A
:10282000262F229526952770220F220F862F8F7034
:10283000C82ED12CE12CF12C022E04C0CC0CDD1CB6
:10284000EE1CFF1C0A94D2F764FF10C06FE070E02A
:1028500080E090E004C0660F771F881F991F2A95BB
:10286000D2F7609570958095909503C060E070E018
:10287000CB01242F269526952370422F50E042301D
:102880005105D1F04330510559F16C297D298E292C
:102890009F294130510541F128960FB6F894DEBFCB
:1028A0000FBECDBFDF91CF911F910F91FF90EF90A1
:1028B000DF90CF900C94201A6C297D298E299F29B6
:1028C00028960FB6F894DEBF0FBECDBFDF91CF9133
:1028D0001F910F91FF90EF90DF90CF900C943A1AD8
:1028E0000E94201AC701B60128960FB6F894DEBFE1
:1028F0000FBECDBFDF91CF911F910F91FF90EF9051
:10290000DF90CF900C94061AFF2019F0842F81706D
:1029100001C08695882309F456C1262F2295269555
:102920002770220F220F862F8F70C82ED12CE12CFA
:10293000F12C022E04C0CC0CDD1CEE1CFF1C0A94F2
:10294000D2F764FF10C06FE070E080E090E004C058
:10295000660F771F881F991F2A95D2F7609570958B
:102960008095909503C060E070E0CB01242F269500
:1029700026952370422F50E042305105D1F043306C
:10298000510559F16C297D298E299F294130510526
:1029900041F128960FB6F894DEBF0FBECDBFDF9190
:1029A000CF911F910F91FF90EF90DF90CF900C94FB
:1029B000F41A6C297D298E299F2928960FB6F89440
:1029C000DEBF0FBECDBFDF91CF911F910F91FF9062
:1029D000EF90DF90CF900C940E1B0E94F41AC70169
:1029E000B60128960FB6F894DEBF0FBECDBFDF91BB
:1029F000CF911F910F91FF90EF90DF90CF900C94AB
:102A0000DA1A603F49F118F4603E48F48CC0623F26
:102A100009F451C0E0F1633F09F461C084C0162F8E
:102A20001F70842F8F71FF2021F00E94731A812F55
:102A300089CE0E94941A812F28960FB6F894DEBF93
:102A40000FBECDBFDF91CF911F910F91FF90EF90FF
:102A5000DF90CF900C94E512FF20A9F0253008F00C
:102A6000B2C0842F8F7128960FB6F894DEBF0FBEC8
:102A7000CDBFDF91CF911F910F91FF90EF90DF902D
:102A8000CF900C94B91A263008F09DC0EACFFF20F1
:102A9000A1F0842F8F7128960FB6F894DEBF0FBE79
:102AA000CDBFDF91CF911F910F91FF90EF90DF90FD
:102AB000CF900C94731AFF2061F3842F8F712896A6
:102AC0000FB6F894DEBF0FBECDBFDF91CF911F913F
:102AD0000F91FF90EF90DF90CF900C94941AFF200D
:102AE00091F0842F8F7128960FB6F894DEBF0FBE39
:102AF000CDBFDF91CF911F910F91FF90EF90DF90AD
:102B0000CF900C945E1A28960FB6F894DEBF0FBED5
:102B1000CDBFDF91CF911F910F91FF90EF90DF908C
:102B2000CF900C94541AFF20A1F0222309F4B1CFC6
:102B3000862F28960FB6F894DEBF0FBECDBFDF916B
:102B4000CF911F910F91FF90EF90DF90CF900C9459
:102B5000C711222309F4B1CF862F28960FB6F89417
:102B6000DEBF0FBECDBFDF91CF911F910F91FF90C0
:102B7000EF90DF90CF900C948F124F70C8010E949D
:102B8000861D28960FB6F894DEBF0FBECDBFDF912D
:102B9000CF911F910F91FF90EF90DF90CF900C9409
:102BA0007D194F70C80128960FB6F894DEBF0FBE8E
:102BB000CDBFDF91CF911F910F91FF90EF90DF90EC
:102BC000CF900C94891D28960FB6F894DEBF0FBEE7
:102BD000CDBFDF91CF911F910F91FF90EF90DF90CC
:102BE000CF9008950E94231C0E94F81B0E943F1C56
:102BF0000E9450230E94222280E090E00E948310D5
:102C000080E090E00C9499100E94131C0C94F21533
:102C10000E94291B292F22952F7030E02C3031057E
:102C20004CF42A3031056CF4225031092230310540
:102C300090F407C02C30310551F02F30310539F0B8
:102C40000AC0803E10F0803F31F481E0089593FB8C
:102C5000882780F9089580E00895CF93DF9300D00E
:102C600000D01F92CDB7DEB70F900F900F900F904E
:102C70000F90DF91CF910895CF93DF9300D000D0D4
:102C800000D0CDB7DEB726960FB6F894DEBF0FBEE4
:102C9000CDBFDF91CF9108951F93CF93DF93C09164
:102CA000740116E080917501C81799F0D0E01C9F5F
:102CB000F0011D9FF00D1124EA58FE4F4081518113
:102CC00062817381848195810E943C162196C77030
:102CD000E9CFDF91CF911F9108954091A6015091C6
:102CE000A7016091A8017091A9018091AA0190911A
:102CF000AB010C943C16CF938091AB0182958F7001
:102D000009F05FC08091A801882309F45AC020917E
:102D10007401A09175016091A6017091A701809145
:102D2000A9019091AA0131E06F3F09F030E0B32F83
:102D3000C6E02A1709F445C0009721F07F3F21F42F
:102D40004B2F03C041E001C040E030E040FD35C002
:102D5000C29FF001C39FF00D1124EA58FE4F41813C
:102D600074132BC04081641328C04281411125C0D7
:102D7000438154814817590710F441505109481BA9
:102D8000590B483C5105C8F48091AB018F708061AC
:102D90008093AB0186E0829FF001839FF00D1124A8
:102DA000E558FE4F80818F708061808386EA91E0D4
:102DB0000E94EC12CF910C944C162F5F3F4F27705E
:102DC000B8CFCF910895CF92DF92EF92FF920F93F9
:102DD0001F93CF93DF93CDB7DEB762970FB6F8940A
:102DE000DEBF0FBECDBF8C0185E0F801DE011D9670
:102DF00001900D928A95E1F7D8014C9111965C9162
:102E0000119712966C9112971396ED90FC9014976F
:102E10007091A601E091A7012091A9013091AA012A
:102E20002115310531F0EF3F31F481E07F3F19F496
:102E300003C081E001C080E0B82FB170CB2E80FDCF
:102E40006CC1D090A801DD2009F4F5C0F091AB0170
:102E5000E216F30638F0C701821B930B883C9105FC
:102E600048F09BC0209530952E0D3F1D283C310524
:102E700008F093C08F2F807F09F052C0E51314C073
:102E8000741312C0D62E61110FC0FF70F061F09361
:102E9000AB010E946D1686EA91E00E94EC128091CF
:102EA000AB01F80185836CC1EF2831F05F3F31F44D
:102EB00081E04F3F19F403C081E001C080E080FD54
:102EC00003C081E0862701C080E0F82FF170FF2E5B
:102ED00080FF1CC0809174012091750136E082173B
:102EE00009F428C190E0389FF001399FF00D1124BA
:102EF000EA58FE4F7181571306C07081471303C013
:102F00007281671303C001968770E9CFD62E6623BE
:102F100009F436C18091AB0181608093AB0153C04D
:102F2000E51308C0741306C0611104C0D8011596DA
:102F3000FC93AEC04D875E878D859E856A8B0E940F
:102F400008166A89882329F1D62E662311F120916B
:102F5000AB01822F82958F7090E002970CF460C0D5
:102F60008091A6019091A70198878F831986FB868F
:102F7000EA862C87CE01079651C0E51731F14D87BF
:102F80005E878D859E856A8B0E9408166A898111ED
:102F90002EC0C8010E94EC12A4C08F2F807F69F759
:102FA0007E2DF98AE88A89890E942D1686EA91E0A9
:102FB0000E94EC12E6EAF1E086E0DF011D928A95BC
:102FC000E9F70E946D16D12CDBC07413D8CF6111C4
:102FD000D6CFD8011596FC93C8010E94EC12E6EA00
:102FE000F1E086E0DF011D928A95E9F7C9C0D62E8F
:102FF000662379F22091AB01822F82958F7090E049
:10300000029774F08091A6019091A7019A83898319
:103010001B82FD82EC822E83CE0101960E94EC126F
:1030200086E0F801A6EAB1E001900D928A95E1F7F9
:103030000E947B166FC0E216F30628F0C701821BC0
:10304000930B9C0104C0209530952E0D3F1D283C0C
:10305000310508F052C0D62E662309F49ACFE51345
:103060002CC074132AC08091AB0180FD1DC0982F25
:1030700092959F70C9F0D80115968C9315979F3043
:1030800039F09F5F9295907F8F70892B15968C9366
:10309000C8010E94EC1286E0F801A6EAB1E00190B6
:1030A0000D928A95E1F736C086E0F801A6EAB1E014
:1030B00001900D928A95E1F763C04D875E878D85FB
:1030C0009E850E940816882379F086E0F801A6EA1A
:1030D000B1E001900D928A95E1F70E947B160E9463
:1030E0006D16DD24D3944CC08091AB018160809338
:1030F000AB01C8010E94EC1243C07E2DF98AE88A18
:1031000089890E942D16E6EAF1E086E0DF011D9232
:103110008A95E9F70E946D1633C0662309F439CF0A
:103120004D875E878D859E850E940816882309F449
:1031300030CFCBCF4D875E878D859E850E94291B22
:10314000292F22952F7030E0223031052CF49F700A
:1031500041F0811106C00CC0243031052CF49F7061
:1031600049F4805E883020F0C8010E94EC12CF2C18
:10317000DC2C06C0D80115969C91907F91F7F8CF72
:103180008D2D62960FB6F894DEBF0FBECDBFDF91D6
:10319000CF911F910F91FF90EF90DF90CF90089506
:1031A0001F93CF93DF93CDB7DEB72C970FB6F8946C
:1031B000DEBF0FBECDBF4F83588769877A878B8765
:1031C0009C87CE0107960E94E3168823C1F02F81C9
:1031D00038858A859B85892B31F03F3F11F080E04F
:1031E00003C02F3FE1F781E0811147C04F8158852F
:1031F00069857A858B859C850E943C163EC086E059
:10320000FE013796DE01119601900D928A95E1F745
:10321000FF81E8854A855B854115510531F0EF3F17
:1032200031F481E0FF3F19F403C081E001C080E088
:1032300080FD23C02091750130E0C901019687709F
:1032400099276091740170E086179707F1F1F9836F
:10325000EA835D834C8396E0929FD001939FB00DEB
:103260001124AA58BE4FFE01319601900D929A95F5
:10327000E1F7809375010E944C1616E0809174016D
:1032800090917501891779F1189FC00111248A580E
:103290009E4F0E94E316882331F1E09174011E9F36
:1032A000F0011124EA58FE4F4081518162817381FF
:1032B000848195810E943C168091740190E0019672
:1032C0008770992780937401D9CF0E9404161092B9
:1032D000750110927401E6EAF1E086E0DF011D92CB
:1032E0008A95E9F7CACF2C960FB6F894DEBF0FBEC9
:1032F000CDBFDF91CF911F910895EF92FF920F9371
:103300001F93CF93DF93FC01009709F46DC0F12C5C
:10331000EE24E394EF0121968491843740F48430C5
:1033200008F053C0813081F0823021F15DC08537D3
:1033300009F445C0B0F19CE7980F903708F054C0ED
:103340008F770E948F1243C08F010E5F1F4FFE01C7
:10335000849190E2980F983050F48770FE2D01C050
:10336000FF0F8A95EAF78F2F0E94161C15C00E9446
:10337000C71112C08F010E5F1F4FFE01849190E2B2
:10338000980F983058F48770FE2D01C0FF0F8A9572
:10339000EAF78F2F0E941C1CE80119C00E948F12AF
:1033A000FBCFCF010296FE01C491CC2361F0EFE97F
:1033B000FFE03197F1F700C00000C150F6CFCF0118
:1033C0000296FE01F490EC0102C00E94C7118F2DFD
:1033D000882341F0EFE9FFE03197F1F700C00000EA
:1033E0008150F6CFFE0196CFDF91CF911F910F91C3
:1033F000FF90EF90089508956093B0017093B1012C
:103400008093B2019093B3010C94F2150F931F9324
:103410000091B0011091B1012091B2013091B3013E
:10342000062B172B282B392B0093B0011093B101D9
:103430002093B2013093B3011F910F910C94F215B8
:103440000F931F930091B0011091B1012091B2012F
:103450003091B30106231723282339230093B001A9
:103460001093B1012093B2013093B3011F910F91DA
:103470000C94F2150F931F930091B0011091B101BC
:103480002091B2013091B301062717272827392749
:103490000093B0011093B1012093B2013093B301B6
:1034A0001F910F910C94F2151092AC011092AD0186
:1034B0001092AE011092AF010C94F21541E050E071
:1034C00060E070E004C0440F551F661F771F8A95A7
:1034D000D2F74093AC015093AD016093AE0170936D
:1034E000AF010C94F21541E050E060E070E004C0E0
:1034F000440F551F661F771F8A95D2F78091AC0144
:103500009091AD01A091AE01B091AF01842B952BAC
:10351000A62BB72B8093AC019093AD01A093AE0185
:10352000B093AF010C94F21541E050E060E070E020
:1035300004C0440F551F661F771F8A95D2F7409528
:103540005095609570958091AC019091AD01A091DE
:10355000AE01B091AF0184239523A623B7238093B6
:10356000AC019093AD01A093AE01B093AF010C9468
:10357000F21541E050E060E070E004C0440F551FD8
:10358000661F771F8A95D2F78091AC019091AD01AB
:10359000A091AE01B091AF0184279527A627B72748
:1035A0008093AC019093AD01A093AE01B093AF01B5
:1035B0000C94F2150F931F930091AC011091AD0183
:1035C0002091AE013091AF01062B172B282B392B00
:1035D0000093AC011093AD012093AE013093AF0185
:1035E0001F910F910C94F2150F931F930091AC0152
:1035F0001091AD012091AE013091AF010623172348
:10360000282339230093AC011093AD012093AE0120
:103610003093AF011F910F910C94F2150F931F93EC
:103620000091AC011091AD012091AE013091AF013C
:1036300006271727282739270093AC011093AD01DF
:103640002093AE013093AF011F910F910C94F215AE
:103650000895CF92DF92EF92FF920F931F93CF9333
:10366000DF93EC01C090B001D090B101E090B201C5
:10367000F090B3018091AC019091AD01A091AE01A9
:10368000B091AF01C82AD92AEA2AFB2A0FE110E03B
:10369000B701A601002E04C076956795579547950A
:1036A0000A94D2F740FF07C0BE01802F0E94131D6D
:1036B0008130910539F40150110950F7BE0180E0C5
:1036C0000E94131DDF91CF911F910F91FF90EF90FA
:1036D000DF90CF90089590910C01992341F1982F9C
:1036E0009695969596959F3088F4E0910D01F0910E
:1036F0000E01E90FF11D877021E030E001C0220FBB
:103700008A95EAF78181822B818308959091C70180
:1037100090FF2DC01F928F9380E194E09F938F9331
:103720000E94C8060F900F900F900F90089540913F
:103730000D0150910E0120E030E09FEFFA01E20F01
:10374000F31F6281681799F09F3F19F4611101C05E
:10375000922F2F5F3F4F2E30310581F79F3F39F079
:10376000FA01E90FF11D97FDFA95828308950895F6
:1037700090910C01992349F1982F969596959695DD
:103780009F3090F4E0910D01F0910E01E90FF11DD1
:10379000877021E030E001C0220F8A95EAF720957A
:1037A00081812823218308959091C70190FF1FC034
:1037B0001F928F9382EF93E09F938F930E94C8068E
:1037C0000F900F900F900F90089540910D01509120
:1037D0000E0120E030E0FA01E20FF31F928198130E
:1037E00001C012822F5F3F4F2E303105A1F708959F
:1037F00081E090E0E0910D01F0910E01E80FF91FDA
:103800001082019680319105A9F708959091C60123
:10381000982B9093C601089580959091C6019823A6
:103820009093C60108951092C60108959091C50124
:10383000982B9093C501089580959091C501982388
:103840009093C50108951092C50108958093B40125
:1038500008951092B401089540910D0150910E0108
:1038600020E030E080E0FA01E20FF31F9181911136
:103870008F5F2F5F3F4F2F303105A9F70895E091FB
:103880000D01F0910E018091C6018083E0910D0140
:10389000F0910E0180819091C501892B80839091D8
:1038A000B401992361F0E0910D01F0910E01808146
:1038B000892B80830E942C1C81111092B40180916D
:1038C0000D0190910E010C9433108D3B60F4883AF9
:1038D00000F5853AA8F4843088F4813009F05BC0A3
:1038E00081E090E00895803E08F455C0883E30F0B5
:1038F000803F08F450C090E09065089590E00895EE
:10390000853A09F44BC0863A09F04BC082E890E44E
:103910000895883A09F448C0893A09F448C08A3AB7
:1039200009F448C08B3A09F448C08C3A09F448C0FD
:103930008B3B09F448C08C3B09F448C08D3A09F42C
:1039400048C0803B09F448C08E3A09F448C08F3A19
:1039500009F448C0813B09F448C0823B09F448C0DF
:10396000833B09F448C0843B09F448C0853B09F413
:1039700048C0863B09F448C0873B09F448C0883BEF
:1039800009F448C0893B09F448C08A3B09F048C0A3
:103990008AE296E4089580E090E0089581E890E45A
:1039A000089583E890E4089582EE94E4089589EE02
:1039B00094E408958AEE94E4089585EB94E40895E0
:1039C00086EB94E4089583EB94E4089584EB94E407
:1039D000089587EB94E408958CEC94E408958DECBD
:1039E00094E4089583E895E408958AE895E40895B9
:1039F00082E995E4089584E995E4089581E296E4E6
:103A0000089583E296E4089584E296E4089585E2B9
:103A100096E4089586E296E4089587E296E4089590
:103A200080E094E408950E94D306803EA8F4803C90
:103A300000F5813309F45CC038F4893209F452C0CE
:103A40008A3209F45BC05FC08933B1F08238A1F0DB
:103A5000853309F441C057C0833E41F128F4803ECC
:103A600099F0823EB9F04FC0863E31F1873E71F148
:103A70004AC00E94E20608959091D80190FD02C0CC
:103A800091FF41C080EE3FC08091D80180FFFACF06
:103A900089E339C08091D80182FF0CC08091D801A0
:103AA00084FF02C080E02FC083EE2DC08091D8013A
:103AB00082FFF4CF82EE27C08091D80183FF0AC035
:103AC0008091D80184FDEECF87EE1DC08091D80192
:103AD00083FFF6CF86EE17C08091D80185FF06C020
:103AE00089E211C08091D80185FFFACF85E30BC030
:103AF0008091D80186FF06C08AE205C08091D80176
:103B000086FFFACF81E30E94651C089580E090E073
:103B10000895089590934D0180934C010895CF929C
:103B2000DF92EF92FF920F931F936C01EE24FF241C
:103B3000C114D104E104F10421F46B017C0180E0A3
:103B400001C080E133272F2D1E2D0D2D01151105EC
:103B50002105310519F0885F680179019701860117
:103B6000A4E03695279517950795AA95D1F70115E5
:103B700011052105310519F08C5F68017901970164
:103B80008601F2E03695279517950795FA95D1F7B6
:103B9000011511052105310519F08E5F68017901C4
:103BA000B701A6017695679557954795452B462B06
:103BB000472B09F08F5F1F910F91FF90EF90DF90DF
:103BC000CF9008958295982F9C7C969596958373B7
:103BD00044E0849F90011124922B892F8A7A869544
:103BE0009575990F892B08951F93CF93DF931F929B
:103BF000CDB7DEB799830E94E21D182F9981892FD6
:103C00000E94E21D212F30E0322F2227A901482BEC
:103C1000CA010F90DF91CF911F9108958091DD012E
:103C2000843009F11092C80120E488E190E00FB6D9
:103C3000F894A895809360000FBE2093600083B72E
:103C4000817F846083BF83B7816083BF78948895C8
:103C500083B78E7F83BF88E10FB6F89480936000AE
:103C6000109260000FBE0895CF930E94D1060E946B
:103C700010070E94D206C0E08C2F0E943A08892BC0
:103C800029F4CF5FC530C1F780E001C081E0CF915A
:103C900008950C9404161F920F920FB60F921124E0
:103CA0008F939F93AF93BF938091C801811113C0ED
:103CB0008091C9019091CA01A091CB01B091CC0132
:103CC0004196A11DB11D8093C9019093CA01A09393
:103CD000CB01B093CC01BF91AF919F918F910F9089
:103CE0000FBE0F901F90189582E084BD93E095BDA4
:103CF0009AEF97BD80936E0008952FB7F894809146
:103D0000C9019091CA01A091CB01B091CC012FBF04
:103D10000895CF92DF92EF92FF920F931F932FB7E8
:103D2000F8944091C9015091CA016091CB01709102
:103D3000CC012FBF6A017B01EE24FF248C0120E01F
:103D400030E0C016D106E206F30610F441505109E6
:103D5000481B590BCA011F910F91FF90EF90DF9004
:103D6000CF9008951F920F920FB60F9211248F9348
:103D70009F93AF93BF938091C9019091CA01A09185
:103D8000CB01B091CC010196A11DB11D8093C90159
:103D90009093CA01A093CB01B093CC01BF91AF9196
:103DA0009F918F910F900FBE0F901F9018950E94BA
:103DB0004D0CF8942FEF87EA91E621508040904017
:103DC000E1F700C0000087E090EBDC018093E601A2
:103DD0009093E701A093E801B093E9012CE088E11A
:103DE00090E00FB6F894A895809360000FBE2093E2
:103DF0006000FFCFCF92DF92EF92FF920F931F935D
:103E0000CF93DF93C82ED12C01E010E08D2D0E94BE
:103E10003A087C01C0E0D0E098010C2E02C0220FCD
:103E2000331F0A94E2F72E213F21232B29F42196F8
:103E3000CE30D10589F709C06C2F7D2D80E00E941E
:103E4000D306C812F4CF81E005C0D39485E0D81220
:103E5000DDCF80E0DF91CF911F910F91FF90EF9028
:103E6000DF90CF900895CF93C82F8CE20E94FA1E66
:103E7000882321F08C2FCF910C94FA1E80E0CF91F3
:103E80000895CF930E948E20811102C00E94742059
:103E900085E394E00E942F06C5E6C15049F00E94D8
:103EA00010078FE39CE90197F1F700C00000F5CF00
:103EB0008EE294E00E942F0689E20E94331F811156
:103EC00011C18AE20E94331F81110E94742085E093
:103ED0000E94331F81110E94D71E0E949920809357
:103EE000C70187E00E94331F882399F18BE10E946C
:103EF000331F882351F09091C70191FB882780F9E7
:103F000021E0822780FB91F922C08EE00E94331FBE
:103F1000882351F09091C70192FB882780F921E016
:103F2000822780FB92F913C080E10E94331F909199
:103F3000C701882341F093FB882780F921E082277D
:103F400080FB93F904C0892F809580FB90F99093B2
:103F5000C7018091C7010E949D200E94AB208093E1
:103F6000D80180EE0E94331F882341F08091D80150
:103F7000982F909590FB80F98093D80189E30E9457
:103F8000331F882359F09091D80191FB882780F93D
:103F900021E0822780FB91F99093D80182EE0E9464
:103FA000331F882359F09091D80192FB882780F91C
:103FB00021E0822780FB92F99093D80186EE0E943F
:103FC000331F882359F09091D80193FB882780F9FB
:103FD00021E0822780FB93F99093D80183EE0E9421
:103FE000331F882359F09091D80194FB882780F9DA
:103FF00021E0822780FB94F99093D80185E30E9409
:10400000331F882359F09091D80195FB882780F9B8
:1040100021E0822780FB95F99093D80181E30E94EB
:10402000331F882359F09091D80196FB882780F997
:1040300021E0822780FB96F99093D80181E10E94CC
:10404000331F882359F09091D80197FB882780F976
:1040500021E0822780FB97F99093D8018091D801C5
:104060000E94AF208091D80187FB882780F9809338
:104070000C0187E20E94331FC82F8EE10E94331F7C
:104080008111C2608FE10E94331F8111C46080E200
:104090000E94331F8111C86081E20E94331F811189
:1040A000C06182E20E94331F8111C06283E20E94DC
:1040B000331F8111C06484E20E94331F882311F0F2
:1040C000C06802C0CC2329F08C2F0E94A6206C2F40
:1040D00003C00E94A220682F70E080E090E0CF91A2
:1040E0000C94FC19CF9108956DEE7EEF80E090E086
:1040F0000E94EC2960E082E090E00E94DE2960E00E
:1041000083E090E00E94DE2960E084E090E00E947D
:10411000DE2960E085E090E00C94DE2980E090E00C
:104120000E94D82921E08D3E9E4F09F020E0822F89
:10413000089582E090E00C94D029682F82E090E00E
:104140000C94DE2983E090E00C94D029682F83E062
:1041500090E00C94DE2984E090E00C94D029682F44
:1041600084E090E00C94DE298091CF0180FF0BC0A9
:104170006091120185E0689FB001112475956795E3
:10418000759567952AC081FF09C06091120185E08D
:10419000689FB0011124759567951FC082FF07C005
:1041A0006091120185E0689FB001112416C0409112
:1041B000D0014423C9F060911101461788F720917E
:1041C000120185E0289F90011124429FC001439F66
:1041D000900D112470E00E94A2296038710540F40E
:1041E0006115710539F002C065E070E0862F089511
:1041F0008FE7089581E008958091CF0180FF08C086
:104200006091100170E0759567957595679521C06F
:1042100081FF06C06091100170E07595679519C027
:1042200082FF04C06091100170E010C08091D00145
:104230008823C1F060910F018617A0F790911001BB
:10424000989FC001112470E00E94A2296038710576
:1042500028F46115710521F0862F08958FE70895E0
:1042600081E0089561E070E0F4CF803F21F40E9486
:10427000B420819504C0813F29F40E94B42080932A
:10428000D3010895823F21F40E94B420819504C097
:10429000833F29F40E94B4208093D2010895893F7E
:1042A00019F40E94FC2005C08A3F31F40E94FC20D2
:1042B00081958093D40108958B3F21F40E94FC20C6
:1042C000819504C08C3F29F40E94FC208093D50185
:1042D0000895843F21F48091D101816017C0853F0A
:1042E00021F48091D101826011C0863F21F4809138
:1042F000D10184600BC0873F21F48091D101886097
:1043000005C0883F31F48091D10180618093D10153
:1043100008958D3F21F48091CF0181600BC08E3FC5
:1043200021F48091CF01826005C08F3F29F48091F4
:10433000CF0184608093CF010895803F39F480914C
:10434000D30187FF6CC01092D30169C0813F29F46B
:104350008091D3011816BCF362C09091D201823FC4
:1043600029F497FF5CC01092D20159C0833F19F421
:104370001916CCF354C0893F41F48091D40118162A
:104380000CF04DC01092D4014AC08A3F29F48091AC
:10439000D40187FF44C0F6CF8B3F39F48091D5011B
:1043A00087FF3DC01092D5013AC08C3F29F480911F
:1043B000D5011816BCF333C0843F21F48091D1019C
:1043C0008E7F17C0853F21F48091D1018D7F11C070
:1043D000863F21F48091D1018B7F0BC0873F21F470
:1043E0008091D101877F05C0883F31F48091D10150
:1043F0008F7E8093D10113C08D3F21F48091CF0136
:104400008E7F0BC08E3F21F48091CF018D7F05C040
:104410008F3F29F48091CF018B7F8093CF018091D2
:10442000D20181110EC08091D30181110AC0809107
:10443000D401811106C08091D501811102C0109272
:10444000D00108958091C70183FF7EC081E794E089
:104450000E942F068091D1011F928F938CE694E0E9
:104460009F938F930E94C8068AE694E00E942F06CD
:104470002091D201822F992787FD90959F932F93AA
:1044800087E694E09F938F930E94C80685E694E0A8
:104490000E942F062091D301822F992787FD9095A6
:1044A0009F932F9382E694E09F938F930E94C80678
:1044B00080E694E00E942F062091D401822F992754
:1044C00087FD90959F932F938DE594E09F938F9315
:1044D0000E94C8068BE594E00E942F062091D5012A
:1044E000822F992787FD90959F932F9388E594E0DD
:1044F0009F938F930E94C80685E594E00E942F0643
:104500008091D0011F928F9382E594E09F938F93C7
:104510000E94C80680E594E00E942F068091CF019A
:104520001F928F938DE494E09F938F930E94C8060F
:104530008AE494E00E942F068DB79EB74C960FB682
:10454000F8949EBF0FBE8DBF81ED91E00E94781060
:104550000E947D1E9093CE018093CD0108951F93FC
:10456000CF93DF938091CD019091CE010E94891E5F
:104570004091D001442321F02091130130E006C086
:10458000209114015AE0259F90011124821793076E
:1045900008F482C08091D2011091D301D091D4014E
:1045A000C091D501811107C0111105C0D11103C0FF
:1045B000CC2309F471C04F3F19F04F5F4093D001F5
:1045C000181624F40E94B4208093D2018091D20165
:1045D00087FF05C00E94B42081958093D2011116F7
:1045E00024F40E94B4208093D3018091D30187FFEB
:1045F00005C00E94B42081958093D3016091D201BF
:10460000662339F11091D301112319F1772767FD42
:104610007095872F972F0E94A72823E333E343E366
:104620005FE30E940B290E9474286093D201612FDE
:10463000772767FD7095872F972F0E94A72823E380
:1046400033E343E35FE30E940B290E9474286093E5
:10465000D3011D1624F40E94FC208093D401809184
:10466000D40187FF05C00E94FC2081958093D4016E
:104670001C1624F40E94FC208093D5018091D50162
:1046800087FF05C00E94FC2081958093D501DF91B2
:10469000CF911F910C942222DF91CF911F91089509
:1046A000E1EDF1E085E0DF011D928A95E9F71092D6
:1046B000D0011092CF01089584E996E00E942F0660
:1046C0001F9281E08F931F9285E08F9386E496E09E
:1046D0009F938F930E94C8060F900F900F900F909A
:1046E0000F900F9008958330E9F128F4813061F044
:1046F000823009F10895853009F462C008F449C098
:10470000863009F474C0089520911401862F90E03A
:10471000820F911D8F3F910520F4620F6093140169
:1047200003C08FEF80931401809114011F928F9327
:104730008FE795E072C020911301862F90E0820FE1
:10474000911D8F3F910520F4620F6093130103C008
:104750008FEF80931301809113011F928F938DE649
:1047600095E05BC020911201862F90E0820F911D91
:104770008F3F910520F4620F6093120103C08FEF09
:1047800080931201809112011F928F938AE595E028
:1047900044C020911101862F90E0820F911D8F3F20
:1047A000910520F4620F6093110103C08FEF809395
:1047B0001101809111011F928F9385E495E02DC026
:1047C00020911001862F90E0820F911D8F3F91055F
:1047D00020F4620F6093100103C08FEF80931001EB
:1047E000809110011F928F938CE295E016C020916A
:1047F0000F01862F90E0820F911D8F3F910520F4CD
:10480000620F60930F0103C08FEF80930F018091BF
:104810000F011F928F9381E195E09F938F930E94E8
:10482000C8060F900F900F900F900895833081F17C
:1048300028F4813059F08230D1F00895853009F4A0
:1048400049C0B8F1863009F456C00895809114012A
:10485000681720F4861B8093140102C01092140183
:10486000809114011F928F9382E095E054C0809153
:104870001301681720F4861B8093130102C0109265
:104880001301809113011F928F9380EF94E043C036
:1048900080911201681720F4861B8093120102C0D8
:1048A00010921201809112011F928F938DED94E06E
:1048B00032C080911101681720F4861B809311018A
:1048C00002C010921101809111011F928F9388EC08
:1048D00094E021C080911001681720F4861B80931A
:1048E000100102C010921001809110011F928F934D
:1048F0008FEA94E010C080910F01681720F4861BA6
:1049000080930F0102C010920F0180910F011F923E
:104910008F9384E994E09F938F930E94C8060F9031
:104920000F900F900F900895CF93C82F1F928F93E1
:1049300029E937E03F932F930E94C80661E070E0B9
:1049400080E090E004C0660F771F881F991FCA950A
:10495000D2F70E94FC190F900F900F900F90CF91FB
:104960000C940416CF938B3109F4CBC108F049C0E5
:104970008E3009F4D9C100F5873009F4A9C1A8F433
:10498000863009F053C28091C701817F8E7F80936A
:10499000C7018EE997E00E942F068AEA9BE00E94F9
:1049A0002F0681E08093D70191C1883009F45BC064
:1049B0008B3009F487C13AC2813109F41FC220F457
:1049C000803109F4C4C132C2863109F4DAC18931B7
:1049D00009F02CC28EE19BE00E942F068FEF9AE037
:1049E0000E942F068AEC9AE00E942F068DE99AE039
:1049F0000E942F0688E59AE00E942F068AE29AE03C
:104A000063C1853309F40CC268F4873209F408C223
:104A100028F48E3108F40AC28D5105C2893209F496
:104A2000FFC104C2833438F48A3308F0FBC18833F1
:104A300009F448C1FBC1833409F4F2C1883409F098
:104A4000F5C10E94041689E99BE00E942F069FEFA2
:104A500023ED80E3915020408040E1F700C000004A
:104A60000E94D71E33C18EEA9BE00E942F068DE97B
:104A700099E00E942F060E94A2201F928F938AE93C
:104A800099E09F938F930E94C80688E999E00E945D
:104A90002F060E949920C82F85E899E00E942F06D2
:104AA0001F92CF9320E839E03F932F930E94C806CE
:104AB0008EE799E00E942F0684E799E00E942F0676
:104AC0008C2F81701F928F9321E739E03F932F93B2
:104AD0000E94C8068FE699E00E942F0685E699E0BD
:104AE0000E942F06C1FB882780F91F928F9322E630
:104AF00039E03F932F930E94C80680E699E00E9418
:104B00002F0684E599E00E942F06C2FB882780F9D2
:104B10001F928F9321E539E03F932F930E94C8069F
:104B20008FE499E00E942F0686E499E00E942F0608
:104B3000C3FBCC27C0F91F92CF9383E499E09F93E6
:104B40008F930E94C80681E499E00E942F060E947C
:104B5000AB20C82F8DE299E00E942F061F92CF93C1
:104B600028E239E03F932F930E94C80686E299E03D
:104B70000E942F068DE099E00E942F068C2F8170F5
:104B80001F928F932AE039E03F932F930E94C8062B
:104B90008DB79EB780960FB6F8949EBF0FBE8DBF9F
:104BA00088E099E00E942F0681EF98E00E942F068E
:104BB000C1FB882780F91F928F932EEE38E03F9338
:104BC0002F930E94C8068CEE98E00E942F068AED73
:104BD00098E00E942F06C2FB882780F91F928F93CE
:104BE00027ED38E03F932F930E94C80685ED98E0AB
:104BF0000E942F0683EC98E00E942F06C3FB8827B3
:104C000080F91F928F9320EC38E03F932F930E94FE
:104C1000C8068EEB98E00E942F0684EB98E00E9475
:104C20002F06C4FB882780F91F928F9321EB38E071
:104C30003F932F930E94C8068FEA98E00E942F06A8
:104C40008DE998E00E942F06C5FB882780F91F9206
:104C50008F932AE938E03F932F930E94C80688E992
:104C600098E00E942F068CE798E00E942F06C6FB72
:104C7000882780F91F928F9329E738E03F932F937D
:104C80000E94C80687E798E00E942F068FE698E00A
:104C90000E942F06C7FBCC27C0F91F92CF938CE64A
:104CA00098E09F938F930E94C8068AE698E00E943E
:104CB0002F068DB79EB74C960FB6F8949EBF0FBEC9
:104CC0008DBF04C085EC97E00E942F06C1E0B3C001
:104CD0008091C701C82FC17080FF09C08DE89BE09B
:104CE0000E942F068091C701817F8E7F44C080E89B
:104CF0009BE00E942F068091C70181608093C701CD
:104D0000E5CF8091C70181FBCC27C0F991E0C9278D
:104D1000C0FB81F98093C701CC2319F083E79BE0A6
:104D200025C085E69BE0D0CF8091C70182FBCC27D0
:104D3000C0F991E0C927C0FB82F98093C701CC2359
:104D400019F086E59BE012C086E49BE0BDCF809120
:104D5000C70183FBCC27C0F991E0C927C0FB83F9C9
:104D60008093C701CC2351F08AE39BE00E942F0679
:104D70008091C70181608093C7015DC08DE29BE097
:104D8000A3CF8CE19AE00E942F060E9427101F9269
:104D90008F9382E09AE09F938F930E94C806809140
:104DA0000B011F928F938BEE99E09F938F930E943C
:104DB000C806809162011F928F9388ED99E09F93BE
:104DC0008F930E94C8068091C9019091CA01A09159
:104DD000CB01B091CC01BF93AF939F938F9384ECA1
:104DE00099E09F938F930E94C8068DB79EB7429615
:104DF0000FB6F8949EBF0FBE8DBF68CF0E940416F9
:104E0000C0910C0181E0C827C0930C01CC2329F08C
:104E10008AEB99E00E942F060EC08FEA99E054CFEA
:104E200080E001C089530E94942450CF8DEA99E01C
:104E30000E942F06C0E08C2FCF91089580E0089546
:104E400080E00895CF93C82F8091D701813071F011
:104E500020F0823009F448C03FC1A0910D01B0910B
:104E60000E018C91823209F039C107C0A0910D0169
:104E7000B0910E018C91823249F48C2F0E941E2732
:104E800081112FC08C2F0E94B2242CC08C2F0E9425
:104E90002027811126C0C431E1F070F4CB3081F0BD
:104EA000C031D1F40E945C2381E997E00E942F0673
:104EB00082E08093D70115C0C93259F0C83361F43C
:104EC0008EE997E00E942F0685E997E00E942F0661
:104ED00008C01092D70104C18FE897E00E942F0606
:104EE000FFC081E08170FEC0C43228F5CE3108F0E9
:104EF000C1C0CB30A1F1D0F4C73009F0D3C08EE1EE
:104F00008093140182E3809313018AE0809312015D
:104F100084E18093110188E08093100188E28093FE
:104F20000F0185E396E00E942F06BFC0C33149F10F
:104F3000C431C1F0B7C0CB3409F4A9C028F4C932D8
:104F400089F0C83361F0AEC0C13509F49EC0C235E6
:104F500009F499C0CE3409F0A5C06AE09EC00E9451
:104F60005C23A3C08091D601882319F01092D6014A
:104F70009CC082E496E00E942F0681E08093D701D6
:104F8000B1C08CE196E00E942F068AE096E00E9474
:104F90002F06809114011F928F9387E096E09F93D4
:104FA0008F930E94C80685E096E00E942F0683EF4B
:104FB00095E00E942F06809113011F928F9380EF3E
:104FC00095E09F938F930E94C8068EEE95E00E9415
:104FD0002F068FED95E00E942F06809112011F92FF
:104FE0008F938CED95E09F938F930E94C8068AED76
:104FF00095E00E942F0689EC95E00E942F06809193
:1050000011011F928F9386EC95E09F938F930E94DE
:10501000C80684EC95E00E942F068FEA95E00E9476
:105020002F06809110011F928F938CEA95E09F9339
:105030008F930E94C8068AEA95E00E942F0683E9B2
:1050400095E00E942F0680910F011F928F9380E9B7
:1050500095E09F938F930E94C8068EE895E00E948A
:105060002F068DB79EB748960FB6F8949EBF0FBE19
:105070008DBF1BC0CE51EC2FF0E0E25DFE4F808172
:105080008093D60112C061E003C061E006C06AE00F
:105090008091D6010E94732308C08091D6010E949E
:1050A000162403C083E396E013C08091D6018823C1
:1050B00069F01F928F938DE296E09F938F930E94E9
:1050C000C8060F900F900F900F9004C08AE296E0F0
:1050D0000E942F0681E006C01092D70180E002C036
:1050E00080E000CFCF91089504D06894B1118DC0B5
:1050F000089570D088F09F5790F0B92F9927B75135
:10510000A0F0D1F0660F771F881F991F1AF0BA958B
:10511000C9F712C0B13081F077D0B1E0089574C002
:10512000672F782F8827B85F39F0B93FCCF3869581
:1051300077956795B395D9F73EF4909580957095DE
:1051400061957F4F8F4F9F4F0895E89409C097FB5B
:105150003EF490958095709561957F4F8F4F9F4F4E
:105160009923A9F0F92F96E9BB279395F695879592
:1051700077956795B795F111F8CFFAF4BB0F11F455
:1051800060FF1BC06F5F7F4F8F4F9F4F16C08823FC
:1051900011F096E911C0772321F09EE8872F762F32
:1051A00005C0662371F096E8862F70E060E02AF073
:1051B0009A95660F771F881FDAF7880F969587955F
:1051C00097F9089557FD9058440F551F59F05F3FC8
:1051D00071F04795880F97FB991F61F09F3F79F019
:1051E00087950895121613061406551FF2CF46959B
:1051F000F1DF08C0161617061806991FF1CF86951D
:105200007105610508940895E894BB276627772700
:10521000CB0197F908950BD078C069D028F06ED0F3
:1052200018F0952309F05AC05FC01124EECFCADFF1
:10523000A0F3959FD1F3950F50E0551F629FF001A9
:10524000729FBB27F00DB11D639FAA27F00DB11D02
:10525000AA1F649F6627B00DA11D661F829F22278B
:10526000B00DA11D621F739FB00DA11D621F839F12
:10527000A00D611D221F749F3327A00D611D231FE8
:10528000849F600D211D822F762F6A2F11249F5736
:1052900050408AF0E1F088234AF0EE0FFF1FBB1F59
:1052A000661F771F881F91505040A9F79E3F5105F8
:1052B00070F014C0AACF5F3FECF3983EDCF3869504
:1052C00077956795B795F795E7959F5FC1F7FE2BA3
:1052D000880F911D9695879597F9089597F99F677F
:1052E00080E870E060E008959FEF80EC089500246E
:1052F0000A941616170618060906089500240A943B
:1053000012161306140605060895092E0394000CC0
:1053100011F4882352F0BB0F40F4BF2B11F460FF4F
:1053200004C06F5F7F4F8F4F9F4F0895991B79E0A7
:1053300004C0991F961708F0961B881F7A95C9F725
:105340008095089597FB072E16F4009407D077FDFB
:1053500009D00E94BC2907FC05D03EF490958195A8
:105360009F4F0895709561957F4F0895EE0FFF1F31
:105370000590F491E02D0994AA1BBB1B51E107C0D5
:10538000AA1FBB1FA617B70710F0A61BB70B881FD5
:10539000991F5A95A9F780959095BC01CD01089564
:1053A000F999FECF92BD81BDF89A992780B50895ED
:1053B000A8E1B0E042E050E00C94F329262FF999DF
:1053C000FECF1FBA92BD81BD20BD0FB6F894FA9AE8
:1053D000F99A0FBE019608950E94DE29272F0C949A
:1053E000DF29DC01CB01FC01F999FECF06C0F2BD3B
:1053F000E1BDF89A319600B40D9241505040B8F793
:065400000895F894FFCFAF
:10540600059208830960092C09F9080101B50128EC
:1054160008140A321E3F4D3620397F033203FC0240
:10542600DC02A30216022F02480261028102010277
:08543600030405060708090044
:00000001FF
