:100000000C949A070C94DE070C94DE070C94DE0720
:100010000C94DE070C94DE070C94DE070C94DE07CC
:100020000C94DE070C94DE070C94520E0C94220FF5
:100030000C94CC1F0C94DE070C94DE070C94DE07A6
:100040000C94DE070C94DE070C94DE070C94DE079C
:100050000C94DE070C9433200C94DE070C94DE071E
:100060000C94DE070C94DE070C94DE070C94DE077C
:100070000C94DE070C94DE070C94DE070C94DE076C
:100080000C94DE070C94DE070C94DE070C94DE075C
:100090000C94DE070C94DE070C94DE070C94DE074C
:1000A0000C94DE070C94DE070C94DE078A10AC106B
:1000B0009811AC109811EE101211981167117A1165
:1000C000C414C414F214F21447158315741774176A
:1000D0009B157417921692164E17741774176217A1
:1000E000F3281B295A27042A042AA828042A042AA8
:1000F0004729042A5A29CF29042A042A042A042A2F
:10010000A4298B29042A7429042A3429042A042ABC
:10011000FE29FE29FE29FE29FE29FE29FE29FE29A7
:10012000FE29FC29042AFC29042A042A042A042A78
:10013000042A042A042A042A042A042A042AFC2958
:10014000042A042AA8288928002A002A002A002A2A
:10015000002A002A002A002A002A002A002A002A4F
:10016000E129042A07290A002530313662003A20A5
:100170000025303258000A722F6320303132333478
:1001800035363738394142434445460A000A00258E
:1001900030325800626F756E6365213A20005B73E0
:1001A0005D004B6579626F61726420737461727473
:1001B0002E0A0055534220636F6E6669677572653B
:1001C000642E0A005B575D005B535D005B525D006F
:1001D0005B445D005B435D000A0347004800360056
:1001E000300000000E036A0075006C0069006100B9
:1001F0006E0000000403090409028D00050100A03F
:10020000320904000001030101000921110100016C
:10021000223F000705810308000A090401000103C9
:10022000010200092111010001224D00070582038E
:1002300008000A090402000103000000092111015D
:1002400000012236000705830308000A09040300A1
:10025000020300000009211101000122200007050E
:1002600084032000010705040320000109040400A1
:1002700001030000000921110100012239000705D6
:1002800085031000011201100100000008EDFE605E
:100290006001000102000105010906A1010507191D
:1002A000E029E71500250195087501810205081967
:1002B00001290595057501910295017503910105C7
:1002C000071900297715002501957875018102C06D
:1002D0000631FF0974A1010975150025FF952075E8
:1002E0000881020976150025FF952075089102C046
:1002F00005010980A101850216010026B7001A0137
:10030000002AB700751095018100C0050C0901A1F4
:10031000018503160100269C021A01002A9C027521
:100320001095018100C005010902A1010901A10088
:100330000509190129051500250195057501810299
:100340009501750381010501093009311581257F6A
:1003500095027508810609381581257F9501750874
:100360008106050C0A38021581257F9501750881E3
:1003700006C0C005010906A101050719E029E71516
:100380000025019508750181029501750881010517
:1003900008190129059505750191029501750391CB
:1003A000010507190029FF150025FF95067508812D
:1003B00000C00A002530325820006B6579626F61F9
:1003C00072645F7265706F72743A20000A002530A3
:1003D0003258006B6579626F6172645F7365745F38
:1003E0006C65643A200064656C5F6B65795F626977
:1003F000743A2063616E27742064656C3A2025305E
:1004000032580A006164645F6B65795F6269743AAF
:100410002063616E2774206164643A20253032586D
:100420000A00646F6E652E0A00626F6F676D616708
:100430006963207363616E3A202E2E2E2000290AF4
:10044000002575002F002575005D2800256400201B
:1004500000256400200025640020002564007C0045
:1004600025303258006D6F7573656B6579205B625E
:10047000746E7C782079207620685D287265702FF4
:1004800061636C293A205B000A002575006D6B5F83
:10049000776865656C5F74696D655F746F5F6D61CA
:1004A00078203D20000A002575006D6B5F77686538
:1004B000656C5F6D61785F7370656564203D2000D9
:1004C0000A002575006D6B5F74696D655F746F5F01
:1004D0006D6178203D20000A002575006D6B5F6D11
:1004E00061785F7370656564203D20000A002575A2
:1004F000006D6B5F696E74657276616C203D2000E3
:100500000A002575006D6B5F64656C6179203D2084
:10051000000A002575006D6B5F776865656C5F7418
:10052000696D655F746F5F6D6178203D20000A0022
:100530002575006D6B5F776865656C5F6D61785FD1
:100540007370656564203D20000A002575006D6BA1
:100550005F74696D655F746F5F6D6178203D200029
:100560000A002575006D6B5F6D61785F737065655E
:1005700064203D20000A002575006D6B5F696E7474
:10058000657276616C203D20000A002575006D6B58
:100590005F64656C6179203D20000A002575003696
:1005A0003A206D6B5F776865656C5F74696D655F38
:1005B000746F5F6D61783A20000A00257500353A46
:1005C000206D6B5F776865656C5F6D61785F7370D8
:1005D0006565643A20000A00257500343A206D6B89
:1005E0005F74696D655F746F5F6D61783A20000AB2
:1005F00000257500333A206D6B5F6D61785F737015
:100600006565643A20000A00257500323A206D6B5A
:100610005F696E74657276616C286D73293A20008B
:100620000A00257500313A206D6B5F64656C617955
:10063000282A31306D73293A20000A0A2D2D2D2DDC
:100640002D204D6F7573656B657920506172616DFA
:100650006574657273202D2D2D2D2D0A003E20000E
:100660002575004D003F00736574206465666175F3
:100670006C742076616C7565732E0A000A0025750E
:100680000073656C656374656420706172616D658B
:100690007465723A2000433E20000A517569742047
:1006A0004D6F7573656B657920436F6E736F6C6505
:1006B0000A0053656520687474703A2F2F656E2E9A
:1006C00077696B6970656469612E6F72672F7769EE
:1006D0006B692F4D6F7573655F6B6579730A000ADF
:1006E000002575002C20776865656C3D0025750038
:1006F00077686572652064656C74613A2063757211
:10070000736F723D000A7370656564203D206465F7
:100710006C7461202A206D61785F73706565642058
:100720002A2028726570656174202F2074696D65B8
:100730005F746F5F6D6178290A007067646F776E10
:100740003A09646563726561736520706172616DF9
:100750006574657273282D3130290A0070677570D1
:100760003A09696E63726561736520706172616DCB
:100770006574657273282B3130290A00646F776EB7
:100780003A09646563726561736520706172616DB9
:100790006574657273282D31290A0075703A0969EC
:1007A0006E63726561736520706172616D657465F9
:1007B0007273282B31290A00643A09736574206426
:1007C000656661756C742076616C7565730A00707E
:1007D0003A097072696E7420706172616D6574653A
:1007E00072730A00363A0973656C656374206D6B29
:1007F0005F776865656C5F74696D655F746F5F6D69
:1008000061780A00353A0973656C656374206D6B15
:100810005F776865656C5F6D61785F73706565644F
:100820000A00343A0973656C656374206D6B5F74FC
:10083000696D655F746F5F6D61780A00333A0973A3
:10084000656C656374206D6B5F6D61785F73706557
:1008500065640A00323A0973656C656374206D6BD8
:100860005F696E74657276616C286D73290A003158
:100870003A0973656C656374206D6B5F64656C61C8
:1008800079282A31306D73290A004553432F713A74
:1008900009717569740A000A0A2D2D2D2D2D204D20
:1008A0006F7573656B657920506172616D657465F4
:1008B00072732048656C70202D2D2D2D2D0A003F60
:1008C000004D303E000A456E746572204D6F7573A1
:1008D000656B657920436F6E736F6C650A000A5112
:1008E00075697420436F6E736F6C65204D6F64651E
:1008F0000A00433E20000A0025750020746F200086
:100900002575007377697463685F64656661756CEB
:10091000745F6C617965723A20006D3A096D6F758C
:1009200073656B65790A004553432F713A097175F8
:1009300069740A000A0A2D2D2D2D2D20436F6E7328
:100940006F6C652048656C70202D2D2D2D2D0A00B3
:10095000506175733A096A756D7020746F20626F0B
:100960006F746C6F616465720A00436170733A0959
:100970004C6F636B204B6579626F617264284368CA
:10098000696C642050726F6F66290A00505363725D
:100990003A09706F77657220646F776E2F72656D9C
:1009A0006F74652077616B652D75700A00342F4672
:1009B000343A0973776974636820746F204C6179E5
:1009C000657234200A00332F46333A09737769740D
:1009D000636820746F204C6179657233200A00329D
:1009E0002F46323A0973776974636820746F204C1C
:1009F0006179657232200A00312F46313A097377E6
:100A00006974636820746F204C6179657231200AC3
:100A100000302F4631303A09737769746368207467
:100A20006F204C6179657230200A006E3A09746F4C
:100A300067676C65204E4B524F0A00653A09707229
:100A4000696E7420656570726F6D20636F6E666984
:100A5000670A00733A097072696E74207374617466
:100A600075730A00743A097072696E742074696D46
:100A7000657220636F756E740A00763A0970726948
:100A80006E74206465766963652076657273696F3C
:100A90006E202620696E666F0A006D3A09746F67D2
:100AA000676C65206D6F7573652064656275670A94
:100AB000006B3A09746F67676C65206B6579626FCC
:100AC0006172642064656275670A00783A09746F20
:100AD00067676C65206D6174726978206465627502
:100AE000670A00643A09746F67676C652064656221
:100AF000756720656E61626C650A00633A09656E10
:100B000074657220636F6E736F6C65206D6F6465C2
:100B10000A000A0A2D2D2D2D2D20436F6D6D616E5B
:100B2000642048656C70202D2D2D2D2D0A000A00A3
:100B30002575002E6E6B726F3A20000A0025750035
:100B40002E737761705F6261636B736C6173685F52
:100B50006261636B73706163653A20000A002575FA
:100B6000002E737761705F67726176655F6573638E
:100B70003A20000A002575002E6E6F5F6775693A8E
:100B800020000A002575002E737761705F72616C1A
:100B9000745F726775693A20000A002575002E732C
:100BA0007761705F6C616C745F6C6775693A200087
:100BB0000A002575002E636170736C6F636B5F7440
:100BC0006F5F636F6E74726F6C3A20000A00257558
:100BD000002E737761705F636F6E74726F6C5F630A
:100BE0006170736C6F636B3A20000A0025303258D5
:100BF000006B65796D61705F636F6E6669672E72F9
:100C000061773A20000A002575002E6D6F757365B7
:100C10003A20000A002575002E6B6579626F6172BB
:100C2000643A20000A002575002E6D61747269789F
:100C30003A20000A002575002E656E61626C653AE7
:100C400020000A00253032580064656275675F63D2
:100C50006F6E6669672E7261773A20000A0025750B
:100C60000064656661756C745F6C617965723A20C9
:100C7000003F004E4B524F3A2064697361626C65CD
:100C8000640A004E4B524F3A20656E61626C656497
:100C90000A006B6579626F6172645F69646C653AC2
:100CA0002025580A006B6579626F6172645F70720B
:100CB0006F746F636F6C3A2025580A00686F737405
:100CC0005F6B6579626F6172645F6C65647328291C
:100CD0003A2025580A000A0A2D2D2D2D2D20537457
:100CE00061747573202D2D2D2D2D0A0074696D658D
:100CF000725F636F756E743A202530346C580A0049
:100D00004743433A20342E382E31204156522D4C41
:100D10004942433A20312E382E3073766E204156A8
:100D2000525F415243483A20617672350A004F5073
:100D300054494F4E533A204C55464120424F4F5450
:100D40004D41474943204D4F5553454B455920454B
:100D5000585452414B455920434F4E534F4C452018
:100D6000434F4D4D414E44204E4B524F203430396D
:100D7000360A004255494C443A20306161306637AA
:100D8000352D6469727479202831343A31343A331C
:100D900039204A756C2032362032303135290A002C
:100DA0005649443A20307846454544286A756C696E
:100DB000616E29205049443A203078363036302848
:100DC0004748363029205645523A20307830303066
:100DD000310A00444553433A20742E6D2E6B2E2069
:100DE0006B6579626F617264206669726D7761729A
:100DF0006520666F7220474836300A000A0A2D2D9A
:100E00002D2D2D2056657273696F6E202D2D2D2D81
:100E10002D0A000A44454255473A206D6F757365A7
:100E20002064697361626C65642E0A000A4445425D
:100E300055473A206D6F75736520656E61626C650C
:100E4000642E0A000A44454255473A206B65796290
:100E50006F6172642064697361626C65642E0A005C
:100E60000A44454255473A206B6579626F61726466
:100E700020656E61626C65642E0A000A4445425525
:100E8000473A206D61747269782064697361626C9D
:100E900065642E0A000A44454255473A206D617444
:100EA00072697820656E61626C65642E0A000A447E
:100EB000454255473A20656E61626C65642E0A00B2
:100EC0000A44454255473A2064697361626C65641F
:100ED0002E0A006E6F7420737570706F7274656483
:100EE0002E0A000A0A4A756D7020746F20626F6FB7
:100EF000746C6F616465722E2E2E2000433E2000BC
:100F00000A456E74657220436F6E736F6C65204D79
:100F10006F64650A00556E6C6F636B65642E0A0022
:100F20004C6F636B65642E0A006565636F6E66695E
:100F3000673A0A0011241FBECFEFDAE0DEBFCDBF53
:100F400004B603FE24C08091E6019091E701A091D0
:100F5000E801B091E9018730904BA740B04BB9F45C
:100F60001092E6011092E7011092E8011092E90157
:100F700014BE84B7877F84BF88E10FB6F89480934E
:100F80006000109260000FBEE0E0F8E3099511E008
:100F9000A0E0B1E0E6E0FAE502C005900D92A833CA
:100FA000B107D9F721E0A8E3B1E001C01D92A63E48
:100FB000B207E1F70E949B0C0C94012D0C940000E9
:100FC000FF93EF93E091C501F091C601309709F0CE
:100FD0000995EF91FF910895FC018591803011F002
:100FE000EFDFFBCF0895FF27E0E230E247FF0CC0C0
:100FF000419597FF09C0EDE26095709580959095B9
:10100000611D711D811D911D27FF02C0219530E3D7
:1010100050E2AA27660F771F881F991FAA1FA417DF
:1010200010F0A41B63955A95A9F7AA3008F0A95FA0
:10103000A05DAF93F395611571058105910541F7A9
:10104000ED3211F4EF93F395F21718F43F93F39503
:10105000FBCF8F91B5DFFA95E1F70895E991F9910A
:101060008591803021F0853219F0AADFF9CF0895FB
:1010700020E0E89455915532C1F3503311F468944F
:1010800055915A3348F4505390F3220F022E220FF9
:10109000220F200D250FF4CF0EF4219589919991FF
:1010A000533619F3533729F1533559F1BC018827C9
:1010B0009927E8945C3621F4899199916894559127
:1010C000543639F446EF7EF077FF0DC08FEF9FEF77
:1010D0000AC055374AE039F0583540E121F0523620
:1010E00042E009F00895FF93EF937DDFEF91FF91C8
:1010F000B7CFFF93EF93FC0181918030B9F360DFAC
:10110000FBCFFF93EF9368DFF1CFDF93CF93CDB7A2
:10111000DEB72596A3DFCF91DF9108950895089556
:101120000895089584B18F7884B985B18F7885B991
:1011300057985F9808950E94920887988F9A84B173
:10114000817084B985B18E6F85B98AB180778AB98B
:101150008BB18F688BB987B18F7387B988B1806C79
:1011600088B9E2E4F1E0A8E3B1E0119211921D9296
:101170001D9281E0EC34F807C1F70895EF92FF92D9
:101180000F931F93CF93DF93C8E3D1E010E001E00A
:10119000AFE8EA2EA1E0FA2E123071F018F4113007
:1011A00041F004C0133059F0143061F0509A58984F
:1011B0000BC0519A599808C0529A5A9805C0539A30
:1011C0005B9802C03E9A469880EA8A95F1F72FB163
:1011D0002170202730E0799B03C080E090E002C0BE
:1011E00082E090E0282B392B7C9B03C040E050E04C
:1011F00002C044E050E0242B352B7D9B03C080E0EF
:1012000090E002C088E090E0282B392B7E9B03C041
:1012100080E090E002C080E190E0282B392B8FB174
:10122000992787FD9095809590958827990F881F1D
:101230009927F5E0880F991FFA95E1F7282B392BAC
:101240001E9B03C080E090E002C080E490E0282B69
:10125000392B1D9B03C080E090E002C080E890E045
:10126000282B392B1C9B03C080E090E002C080E05B
:1012700091E0282B392B89B1992787FD909580958E
:1012800090958827990F881F9927982F8827990F5D
:10129000282B392B189B03C040E050E002C040E0EF
:1012A00054E0242B352B199B03C040E050E002C0D2
:1012B00040E058E0242B352B1A9B03C080E090E0DF
:1012C00002C080E090E1282B392B1B9B03C080E0FB
:1012D00090E002C080E090E2282B392B83B199275F
:1012E00087FD9095809590958827990F881F99275D
:1012F00090E4899F902D88271124282B392B8881F1
:1013000099818217930749F13983288380910001DD
:10131000882301F18091C30180FF04C084E991E03A
:101320000E94EC078091C30180FF0CC080910001F6
:101330001F928F93FF92EF920E9485080F900F905B
:101340000F900F908091C30180FF04C08DE891E061
:101350000E94EC0785E0809300010E9492081F5FC5
:101360002296153009F018CF809100018823C1F032
:10137000815080930001882339F08FE99FE0019725
:10138000F1F700C000000CC0A2E4B1E0E8E3F1E036
:10139000819191918D939D9391E0E234F907C1F78A
:1013A0006091A8017091A9018091AA019091AB016F
:1013B0000E94101F882329F0833028F43F9A479A0F
:1013C00002C03F98479881E0DF91CF911F910F9124
:1013D000FF90EF900895E82FF0E0EE0FFF1FEE5B17
:1013E000FE4F808191810895CF92DF92EF92FF921C
:1013F0000F931F93CF93DF9386E791E00E94EC0752
:1014000092E4E92E91E0F92EC0E0D0E021E7C22E6F
:1014100021E0D22E08E611E0DF93CF93DF92CF9246
:101420000E9485088EE691E00E94EC07F701819109
:1014300091917F010E94751F9F938F931F930F932C
:101440000E94850886E691E00E94EC0721968DB700
:101450009EB708960FB6F8949EBF0FBE8DBFC530DD
:10146000D105D1F6DF91CF911F910F91FF90EF90B1
:10147000DF90CF90089585FF03C0809A889A0895E1
:1014800080988898089580915E0108959091DD017B
:10149000943009F04DC09091E9009F702091EC00CC
:1014A00020FF02C020E801C020E0292B94E09093A7
:1014B000E9009091EB0090FF38C09091EE0097FF0B
:1014C00034C090914D01992321F09091E80095FF4F
:1014D0002CC010924D0196E03091E80035FD15C00A
:1014E0003091DD01343009F53091EB0035FD1DC040
:1014F000915021F481E080934D0117C0EFE9FFE0A6
:101500003197F1F700C00000E7CF8093F1008091A0
:10151000E80085FD05C08091E8008E778093E800A3
:101520002F702093E90080E008952F702093E90048
:101530008FEF0895CF93DF9300D01F92CDB7DEB722
:101540002091DD01243019F523E029839B838A83D0
:101550002093E9008FEF9091E800815095FD06C03F
:1015600095ED9A95F1F700008111F5CF8091E80093
:1015700085FF0DC040E050E063E070E0CE010196D1
:101580000E945E0F8091E8008E778093E8000F90B4
:101590000F900F90DF91CF910895CF93DF9300D0FC
:1015A0001F92CDB7DEB72091DD01243021F522E076
:1015B00029839B838A8383E08093E9008FEF909156
:1015C000E800815095FD06C095ED9A95F1F7000071
:1015D0008111F5CF8091E80085FF0DC040E050E01B
:1015E00063E070E0CE0101960E945E0F8091E800FA
:1015F0008E778093E8000F900F900F90DF91CF913E
:1016000008952091DD012430F1F422E02093E900D7
:101610002FEF3091E800215035FD06C035ED3A95A9
:10162000F1F700002111F5CF2091E80025FF0BC054
:1016300040E050E065E070E00E945E0F8091E800BD
:101640008E778093E8000895CF93DF93EC0180912B
:10165000DD01843009F043C080910C018823C1F082
:1016600085E08093E9008FEF9091E800815095FD2F
:1016700006C095E19A95F1F700008111F5CF8091B0
:10168000E80085FF2CC040E050E060E170E017C04A
:1016900081E08093E9008FEF9091E800815095FD03
:1016A00006C095ED9A95F1F700008111F5CF809174
:1016B000E80085FF14C040E050E068E070E0CE0133
:1016C0000E945E0F8091E8008E778093E80080E1B1
:1016D000FE01AEE4B1E001900D928A95E1F7DF9151
:1016E000CF91089584ED91E00E94EC078091DC0198
:1016F000811109C00E94DC0D0E94390E8091E20028
:1017000084608093E200089580ED91E00E94EC07F0
:101710001092DC0108958CEC91E00C94EC0788ECBD
:1017200091E00E94EC070C948F0884EC91E00E94F9
:10173000EC070C94CA1F8091DD01843049F580913B
:10174000E9008F709091EC0090FF02C090E801C01A
:1017500090E0982B84E08093E9008091EB0080FF7B
:1017600014C08091EE0087FF10C08091E80085FFD3
:1017700003C01092F100F9CF8091E80080FF05C00E
:101780008091E8008E778093E8009F709093E90045
:10179000089542E061EC81E00E94560D42E061EC68
:1017A00082E00E94560D42E061EC83E00E94560DFB
:1017B00046E261EC84E00E94560D42E161EC85E076
:1017C0000C94560D8091DF01833009F455C030F43C
:1017D000813071F0823009F495C008958A3009F49F
:1017E00081C08B3009F460C0893009F0A3C020C0EB
:1017F0008091DE01813A09F09DC08091E800877FE9
:101800008093E8008091E2019091E301892B21F01F
:1018100060E080E090E003C060E18EE491E070E081
:101820000E94A70F8091E8008B778093E8000895CD
:101830008091DE01813209F07DC08091E2019091BA
:10184000E301009719F0049709F074C08091E80053
:10185000877F8093E8008091E80082FD05C0809139
:10186000DD018111F8CF66C08091F10080935E01A7
:101870008091E8008B775AC08091DE01813A09F0AF
:1018800059C08091E2019091E301892B09F052C087
:101890008091E800877F8093E8008091E80080FFD6
:1018A000FCCF80910B013DC08091DE01813209F0B7
:1018B00041C08091E2019091E301892BD9F580919B
:1018C000E800877F8093E8000E948B0D9091E001F3
:1018D00081E0911101C080E080930B0180930C01A5
:1018E0000C9495178091DE01813221F58091E800FA
:1018F000877F8093E8000E948B0D8091E1018093A7
:101900004C0108958091DE01813AA1F48091E800B4
:10191000877F8093E8008091E80080FFFCCF809172
:101920004C018093F1008091E8008E778093E8006D
:101930000C948B0D089584B7877F84BF88E10FB620
:10194000F89480936000109260000FBE90E080E8F1
:101950000FB6F89480936100909361000FBE0E94CF
:10196000DC0D0E94390E8091E20084608093E200D9
:1019700086E49AE00E940B1F78948091DD01843008
:10198000E1F783EB91E00E94EC070E94431281E0B3
:1019900091E00E94B11182EA91E00E94EC078091EF
:1019A000DD01853089F48EE991E00E94EC070E9408
:1019B0008F1F8091DB01882391F30E94B51F88233C
:1019C00071F30E94400DEBCF0E947112E8CF292FD6
:1019D000332723303105A9F06CF42130310509F4A7
:1019E00042C02230310509F043C08DE890E028EF75
:1019F00031E042C021323105C9F02232310519F1FE
:101A000037C099278130910541F08230910541F02E
:101A1000892B71F5E4EFF1E005C0E4EEF1E002C0DE
:101A2000E8EDF1E0849190E09F0126C0653000F57B
:101A3000E62FF0E0EE0FFF1FEC5DFE4F20813181BD
:101A400089E090E019C0653098F4E62FF0E0DF01FE
:101A5000AA0FBB1FA65EBE4F2D913C91EB5EFE4FC1
:101A6000808190E009C082E190E025E832E004C086
:101A700080E090E020E030E0FA0131832083089597
:101A800080E189BD82E189BD09B400FEFDCF80916E
:101A9000D8008F7D8093D8008091E0008260809391
:101AA000E0008091E00081FDFCCF0895982F9730F1
:101AB00058F59093E900981739F07091EC00209157
:101AC000ED005091F00003C0242F762F50E021FF4D
:101AD00019C03091EB003E7F3093EB003091ED0068
:101AE0003D7F3093ED003091EB0031603093EB009F
:101AF0007093EC002093ED005093F0002091EE00E5
:101B000027FF07C09F5FD3CF8F708093E90081E0EC
:101B1000089580E008958091DE0187FD05C08091E1
:101B2000E80080FF0EC012C08091E80082FD05C071
:101B30008091DD018111F8CF08958091E8008B77C5
:101B400008C08091DD018111EACF08958091E800FD
:101B50008E778093E80008958091E4009091E500ED
:101B600045E62091EC0020FF21C02091E80020FDF7
:101B700021C02091DD01222389F0253089F02091B8
:101B8000EB0025FD0FC02091E4003091E5002817FF
:101B9000390739F3415041F0C901E3CF82E008959C
:101BA00083E0089581E0089584E008952091E8009D
:101BB00022FFDFCF80E008950E94450E0E944D0E67
:101BC000E0EEF0E0808181608083E8EDF0E08081EC
:101BD0008F77808319BCA7EDB0E08C918E7F8C93BA
:101BE00080818F7E80831092DC0108950F931F9374
:101BF000CF93DF930E94450E0E944D0EC8EDD0E0BA
:101C000088818F77888388818068888388818F7DA9
:101C1000888319BC1092DD011092D9011092DB016A
:101C20001092DA0100EE10E0F80180818B7F808352
:101C300088818160888342E060E080E00E94560DE8
:101C4000E1EEF0E080818E7F8083E2EEF0E0808143
:101C500081608083808188608083F80180818E7FAD
:101C60008083888180618883DF91CF911F910F915C
:101C70000895E7EDF0E080818160808384E082BF99
:101C800081E08093DC010C94F60DE8EDF0E08081BA
:101C90008E7F80831092E20008951092DA001092F5
:101CA000E10008951F920F920FB60F9211242F9307
:101CB0003F934F935F936F937F938F939F93AF93D4
:101CC000BF93EF93FF938091E10082FF0BC080915F
:101CD000E20082FF07C08091E1008B7F8093E100EA
:101CE0000E949B0B8091DA0080FF1FC08091D8007A
:101CF00080FF1BC08091DA008E7F8093DA00809194
:101D0000D90080FF0DC080E189BD82E189BD09B4A1
:101D100000FEFDCF81E08093DD010E94720B05C0C3
:101D200019BC1092DD010E94840B8091E10080FFBC
:101D300019C08091E20080FF15C08091E2008E7F83
:101D40008093E2008091E20080618093E2008091C4
:101D5000D80080628093D80019BC85E08093DD01B3
:101D60000E948F0B8091E10084FF2EC08091E200E1
:101D700084FF2AC080E189BD82E189BD09B400FEEB
:101D8000FDCF8091D8008F7D8093D8008091E100B5
:101D90008F7E8093E1008091E2008F7E8093E2004D
:101DA0008091E20081608093E2008091D9018111ED
:101DB00004C08091E30087FF02C084E001C081E09D
:101DC0008093DD010E94950B8091E10083FF29C083
:101DD0008091E20083FF25C08091E100877F80939E
:101DE000E10082E08093DD011092D9018091E10051
:101DF0008E7F8093E1008091E2008E7F8093E200ED
:101E00008091E20080618093E20042E060E080E047
:101E10000E94560D8091F00088608093F0000E942F
:101E20008B0BFF91EF91BF91AF919F918F917F911C
:101E30006F915F914F913F912F910F900FBE0F9037
:101E40001F9018951F920F920FB60F9211242F9387
:101E50003F934F935F936F937F938F939F93AF9332
:101E6000BF93CF93EF93FF93C091E900CF70809120
:101E7000EC001092E9008091F000877F8093F000E1
:101E800078940E9460101092E9008091F0008860C0
:101E90008093F000C093E900FF91EF91CF91BF9143
:101EA000AF919F918F917F916F915F914F913F91F2
:101EB0002F910F900FBE0F901F901895CF92DF9229
:101EC000EF92FF920F931F93CF93DF937C018B01CF
:101ED000EA010E94AC0D811131C0209731F0888158
:101EE0009981081B190BE80EF91EC12CD12C011584
:101EF000110519F18091E80085FD14C08091E8007A
:101F00008E778093E800209741F0888199818C0D2D
:101F10009D1D9983888385E011C00E94AC0D8823A4
:101F200031F30CC0F70181917F018093F1000150E2
:101F30001109FFEFCF1ADF0ADACF80E0DF91CF91EE
:101F40001F910F91FF90EF90DF90CF900895209117
:101F5000E4013091E5012617370748F06115710556
:101F600039F42091E8002E772093E80001C0B901F0
:101F7000FC0120E061157105A9F18091DD01882344
:101F8000E9F18530E9F18091E80083FD35C0809169
:101F9000E80082FF06C08091E80082FF26C080E052
:101FA00008958091E80080FFE5CF2091F3008091B3
:101FB000F20090E0922B6115710551F08830910587
:101FC00038F421912093F100615071090196F3CF0B
:101FD00021E0089709F020E08091E8008E77809357
:101FE000E800C8CF2111C9CFD6CF8091DD01882369
:101FF00029F0853081F604C081E0089582E00895DB
:1020000083E008952091E4013091E5012617370718
:1020100048F06115710539F42091E8002E7720937E
:10202000E80001C0B901FC0120E061157105C1F1B2
:102030008091DD01882309F43FC0853009F43EC05A
:102040008091E80083FD36C08091E80082FF06C0E1
:102050008091E80082FF27C080E008958091E80029
:1020600080FFE3CF2091F3008091F20090E0922B6B
:102070006115710559F08830910540F42491209341
:10208000F1003196615071090196F2CF21E0089775
:1020900009F020E08091E8008E778093E800C5CFBA
:1020A0002111C6CFD5CF8091DD01882329F085305D
:1020B00079F604C081E0089582E0089583E00895F0
:1020C0000F931F93CF93DF93CDB7DEB7AA970FB6C9
:1020D000F894DEBF0FBECDBFEEEDF1E08091F100D0
:1020E000819321E0E63EF207C9F70E94E20B80915E
:1020F000E80083FF1DC12091DE013091DF01832FB5
:1021000090E08A30910508F013C1FC01EA5AFF4FB4
:102110000C94B62C203881F0223809F009C1809146
:10212000E2018F708093E9008091EB0085FB8827A6
:1021300080F91092E90006C08091DA019091DB01EC
:10214000911182609091E800977F9093E8008093CE
:10215000F1001092F100C6C0822F8D7F09F0E8C017
:10216000222319F0223061F0E3C08091E001813038
:1021700009F0DEC0333009F080E08093DB0128C035
:102180008091E001811124C02091E2012F7009F4B7
:10219000CFC02093E9008091EB0080FF19C08091AF
:1021A000EB00333011F4806211C080618093EB004A
:1021B00081E090E0022E01C0880F0A94EAF7809334
:1021C000EA001092EA008091EB0088608093EB00B7
:1021D0001092E9008091E800877F87C02111A8C094
:1021E0001091E0011F770FB7F8948091E800877F86
:1021F0008093E8000E948B0D8091E80080FFFCCF67
:102200008091E3008078812B8093E3008068809345
:10221000E300112311F083E001C082E08093DD012F
:102220000FBF86C02058223008F082C08091E001A4
:102230009091E1018C3D23E0920779F583E08A8358
:102240008AE289834FB7F894DE01139620E03EE0DE
:1022500051E2E32FF0E050935700E49120FF03C0D8
:10226000E295EF703F5FEF708E2F90E0EA3010F054
:10227000C79601C0C0968D939D932F5F243149F777
:102280004FBF8091E800877F8093E8006AE270E0AA
:10229000CE0101960E94A70F14C0AE014F5F5F4FA1
:1022A0006091E2010E94E70C009709F441C020917F
:1022B000E800277F2093E800BC0189819A810E9471
:1022C00002108091E8008B778093E80031C02038BD
:1022D00079F58091E800877F8093E8008091D901AB
:1022E0008093F1008091E8008E778093E8000E944F
:1022F0008B0D1EC021111CC09091E0019230C0F4E2
:102300008091E800877F8093E8009093D9010E9434
:102310008B0D8091D901811104C08091E30087FF6A
:1023200002C084E001C081E08093DD010E94C90BFE
:102330008091E80083FF0AC08091EB008062809367
:10234000EB008091E800877F8093E800AA960FB6A3
:10235000F894DEBF0FBECDBFDF91CF911F910F91DB
:1023600008959093640180936301089580916301BF
:10237000909164010895E0916301F09164013097B8
:1023800021F00190F081E02D099480E00895FF9202
:102390000F931F93CF93DF938C01E0916301F09132
:1023A0006401309799F10280F381E02D09958091C5
:1023B000C30182FF2BC080FF04C08AEB93E00E9420
:1023C000EC07E80180E1F82E04EB13E08091C301F3
:1023D00080FF0BC088811F928F931F930F930E94E1
:1023E00085080F900F900F900F90FA942196F1109E
:1023F000EDCF8091C30180FF09C082EB93E0DF91B4
:10240000CF911F910F91FF900C94EC07DF91CF912A
:102410001F910F91FF900895E0916301F091640185
:10242000309721F00480F581E02D099408952091E2
:102430006101309162018217930771F090936201FC
:1024400080936101E0916301F0916401309721F084
:102450000680F781E02D0994089520915F01309165
:1024600060018217930771F09093600180935F0180
:10247000E0916301F0916401309721F00084F185CF
:10248000E02D099408950E94F51F0E949B080C946A
:10249000C220CF93C82F8091C30182FF1EC080FF4E
:1024A00004C083ED93E00E94EC078091C30180FF9C
:1024B0000CC01F92CF932EEC33E03F932F930E94DA
:1024C00085080F900F900F900F908091C30180FFAF
:1024D00004C08CEC93E00E94EC078C2FCF910C94FD
:1024E0003B0A5F926F927F928F929F92AF92BF92C0
:1024F000CF92DF92EF92FF920F931F93CF93DF93D0
:10250000CDB7DEB72A970FB6F894DEBF0FBECDBFAA
:102510000E94BE0896E6C92E91E0D92E00E010E098
:10252000AA24A394B12C502E802F0E94EB093C01C9
:10253000F601E190F1906F01E826F926E114F1042B
:10254000B1F40F5F1F4F0530110569F78FEF8983D5
:102550008A831B820E94FE1F8160782F9D838C835B
:1025600049815A816B818D810E942A133AC08091E2
:10257000C30181FD0E94F40920E030E04501022EF4
:1025800002C0880C991C0A94E2F7C4018E219F2195
:10259000892B09F12E835F826820792081E06728EA
:1025A00009F480E088870E94FE1F8160782F9A8757
:1025B00089874E815F8168858A850E942A13F80188
:1025C000EE0FFF1FEA59FE4F8081918188259925E2
:1025D0009183808306C02F5F3F4F2E30310571F607
:1025E000B0CF0E943024109165010E94BB111817D2
:1025F000D9F00E94BB11809365012A960FB6F8941A
:10260000DEBF0FBECDBFDF91CF911F910F91FF9025
:10261000EF90DF90CF90BF90AF909F908F907F9082
:102620006F905F900C9449122A960FB6F894DEBF13
:102630000FBECDBFDF91CF911F910F91FF90EF9013
:10264000DF90CF90BF90AF909F908F907F906F90D2
:102650005F900895CF93DF93CDB7DEB72B970FB67A
:10266000F894DEBF0FBECDBF4F83588769877A8746
:102670008B87DE01119686E0FD0111928A95E9F7BC
:1026800085E0FE01379601900D928A95E1F7498128
:102690005A816B817C818D819E810E945D1A2B966F
:1026A0000FB6F894DEBF0FBECDBFDF91CF91089576
:1026B000CF93C82F882309F4C1C0823859F40E94EF
:1026C000BB1181FDBBC089E30E94F81C0E94CC1D98
:1026D00089E30CC0833879F40E94BB1180FDAEC041
:1026E00083E50E94F81C0E94CC1D83E50E94451DD5
:1026F000CF910C94CC1D843859F40E94BB1182FDFB
:102700009DC087E40E94F81C0E94CC1D87E4EECF98
:102710008CEF8C0F813A48F48C2F0E94102A811183
:102720008DC08C2F0E94F81CE3CF80E28C0F883084
:1027300048F4C77081E001C0880FCA95EAF70E948B
:10274000931DD6CF8BE58C0F833078F4C53A29F0F2
:10275000C63A31F482E890E005C081E890E002C01A
:1027600083E890E0CF910C94171288E58C0F8331A9
:1027700008F064C0C83A39F1C93A41F1CA3A49F19E
:10278000CB3A51F1CC3A59F1CD3A61F1C03B69F104
:10279000CE3A71F1CF3A79F1C13B81F1C23B89F177
:1027A000C33B91F1C43B99F1C53BA1F1C63BA9F1F3
:1027B000C73BB1F1C83BB9F1C93BC1F1CA3BC9F54F
:1027C0008AE292E038C082EE90E035C089EE90E077
:1027D00032C08AEE90E02FC085EB90E02CC086EBF3
:1027E00090E029C087EB90E026C08CEC90E023C0FD
:1027F0008DEC90E020C083E891E01DC08AE891E074
:102800001AC082E991E017C084E991E014C081E226
:1028100092E011C083E292E00EC084E292E00BC02D
:1028200085E292E008C086E292E005C087E292E08D
:1028300002C080E090E0CF910C942D12CF910895CA
:10284000882309F44BC0823859F40E94BB1181FFE0
:1028500045C089E30E94F81C0E94CC1D89E30CC08E
:10286000833871F40E94BB1180FF38C083E50E9459
:10287000F81C0E94CC1D83E50E94451D0C94CC1DC4
:10288000843859F40E94BB1182FF28C087E40E945B
:10289000F81C0E94CC1D87E4EFCF9CEF980F913A73
:1028A00058F390E2980F983050F4877091E001C08F
:1028B000990F8A95EAF7892F0E94991DDFCF9BE532
:1028C000980F933020F480E090E00C941712885A0F
:1028D000833120F480E090E00C942D120895882339
:1028E00021F00E94931D0C94CC1D0895882321F0A3
:1028F0000E94991D0C94CC1D0895CF92DF92EF9207
:10290000FF920F931F93CF93DF93CDB7DEB7289736
:102910000FB6F894DEBF0FBECDBF8C0185E0F80185
:10292000DE01119601900D928A95E1F7F801408140
:102930003181F280258122952F7083819481892BAA
:1029400031F03F3F31F481E04F3F19F403C081E0A3
:1029500001C080E080FDC8C249833A8389819A81A1
:102960002F830E94B61C9E8388870E94B51C0E94FC
:10297000881B4E81E42FE295EF70F0E0E05AFF4FA4
:102980002F8168850C94B62C842F807F142F1F70A4
:10299000882311F01295107FFF2059F0112309F4BC
:1029A00058C2812F68870E94A31D0E94CC1D688594
:1029B00050C2862F0E942014112309F495C2812F42
:1029C0000E94A91D28960FB6F894DEBF0FBECDBF9A
:1029D000DF91CF911F910F91FF90EF90DF90CF90FB
:1029E0000C94CC1D342F307F842F8F70303211F037
:1029F0008295807F662319F0613009F12AC0FF209B
:102A0000A1F0222381F1213071F528960FB6F894B8
:102A1000DEBF0FBECDBFDF91CF911F910F91FF9011
:102A2000EF90DF90CF900C94B31D222319F021304A
:102A300009F45AC28E830E94B61D8E818EC1FF207A
:102A400021F0263008F050C20EC0253008F04CC2EC
:102A500084C1FF20C1F0222331F0F801958190FF5D
:102A6000F8C19F70958328960FB6F894DEBF0FBE0D
:102A7000CDBFDF91CF911F910F91FF90EF90DF902D
:102A8000CF900C946F14222309F467C1F6C1242F50
:102A900026952695237030E02115310521F021304F
:102AA0003105C9F021C2FF2021F0862F942F9370A9
:102AB00002C080E090E028960FB6F894DEBF0FBE0B
:102AC000CDBFDF91CF911F910F91FF90EF90DF90DD
:102AD000CF900C941712FF2021F0862F942F937023
:102AE00002C080E090E028960FB6F894DEBF0FBEDB
:102AF000CDBFDF91CF911F910F91FF90EF90DF90AD
:102B0000CF900C942D12862FFF2019F00E94B62230
:102B100002C00E941E2328960FB6F894DEBF0FBE97
:102B2000CDBFDF91CF911F910F91FF90EF90DF907C
:102B3000CF900C94A323842F837009F076C0F110FA
:102B4000D3C1262F229526952770220F220F862F7C
:102B50008F70C82ED12CE12CF12C022E04C0CC0C8D
:102B6000DD1CEE1CFF1C0A94D2F764FF10C06FE05E
:102B700070E080E090E004C0660F771F881F991F07
:102B80002A95D2F7609570958095909503C060E086
:102B900070E0CB01242F269526952370422F50E01C
:102BA00042305105D1F04330510559F16C297D294E
:102BB0008E299F294130510541F128960FB6F8948E
:102BC000DEBF0FBECDBFDF91CF911F910F91FF9060
:102BD000EF90DF90CF900C94AD1B6C297D298E294E
:102BE0009F2928960FB6F894DEBF0FBECDBFDF91A8
:102BF000CF911F910F91FF90EF90DF90CF900C94A9
:102C0000C71B0E94AD1BC701B60128960FB6F894EA
:102C1000DEBF0FBECDBFDF91CF911F910F91FF900F
:102C2000EF90DF90CF900C94931BFF2019F0842F2E
:102C3000817001C08695882309F456C1262F2295FC
:102C400026952770220F220F862F8F70C82ED12C29
:102C5000E12CF12C022E04C0CC0CDD1CEE1CFF1C60
:102C60000A94D2F764FF10C06FE070E080E090E05B
:102C700004C0660F771F881F991F2A95D2F76095A9
:102C800070958095909503C060E070E0CB01242F93
:102C9000269526952370422F50E042305105D1F001
:102CA0004330510559F16C297D298E299F294130E6
:102CB000510541F128960FB6F894DEBF0FBECDBF87
:102CC000DF91CF911F910F91FF90EF90DF90CF9008
:102CD0000C94811C6C297D298E299F2928960FB67A
:102CE000F894DEBF0FBECDBFDF91CF911F910F9142
:102CF000FF90EF90DF90CF900C949B1C0E94811C62
:102D0000C701B60128960FB6F894DEBF0FBECDBF3F
:102D1000DF91CF911F910F91FF90EF90DF90CF90B7
:102D20000C94671C603F49F118F4603E48F48CC075
:102D3000623F09F451C0E0F1633F09F461C084C00F
:102D4000162F1F70842F8F71FF2021F00E94001C0E
:102D5000812F89CE0E94211C812F28960FB6F894CE
:102D6000DEBF0FBECDBFDF91CF911F910F91FF90BE
:102D7000EF90DF90CF900C947614FF20A9F02530CF
:102D800008F0B2C0842F8F7128960FB6F894DEBF7A
:102D90000FBECDBFDF91CF911F910F91FF90EF90AC
:102DA000DF90CF900C94461C263008F09DC0EACFEF
:102DB000FF20A1F0842F8F7128960FB6F894DEBF04
:102DC0000FBECDBFDF91CF911F910F91FF90EF907C
:102DD000DF90CF900C94001CFF2061F3842F8F7143
:102DE00028960FB6F894DEBF0FBECDBFDF91CF910E
:102DF0001F910F91FF90EF90DF90CF900C94211CCA
:102E0000FF2091F0842F8F7128960FB6F894DEBFC3
:102E10000FBECDBFDF91CF911F910F91FF90EF902B
:102E2000DF90CF900C94EB1B28960FB6F894DEBF82
:102E30000FBECDBFDF91CF911F910F91FF90EF900B
:102E4000DF90CF900C94E11BFF20A1F0222309F426
:102E5000B1CF862F28960FB6F894DEBF0FBECDBF38
:102E6000DF91CF911F910F91FF90EF90DF90CF9066
:102E70000C945813222309F4B1CF862F28960FB64D
:102E8000F894DEBF0FBECDBFDF91CF911F910F91A0
:102E9000FF90EF90DF90CF900C9420144F70C801FA
:102EA0000E94071F28960FB6F894DEBF0FBECDBF55
:102EB000DF91CF911F910F91FF90EF90DF90CF9016
:102EC0000C940A1B4F70C80128960FB6F894DEBF09
:102ED0000FBECDBFDF91CF911F910F91FF90EF906B
:102EE000DF90CF900C940A1F28960FB6F894DEBF9F
:102EF0000FBECDBFDF91CF911F910F91FF90EF904B
:102F0000DF90CF9008950E94B01D0E94851D0E9401
:102F1000CC1D0E94D1240E94A32380E090E00E9457
:102F2000171280E090E00C942D120E94A01D0C94CA
:102F300083170E94B61C292F22952F7030E02C3069
:102F400031054CF42A3031056CF42250310922301D
:102F5000310570F407C02C30310531F02F303105C8
:102F600019F006C081E0089593FB882780F9089541
:102F700080E00895CF93DF9300D000D01F92CDB7AB
:102F8000DEB70F900F900F900F900F90DF91CF91C1
:102F90000895CF93DF9300D000D000D0CDB7DEB737
:102FA00026960FB6F894DEBF0FBECDBFDF91CF914E
:102FB00008951F93CF93DF93C091700116E0809125
:102FC0007101C81799F0D0E01C9FF0011D9FF00D12
:102FD0001124EE58FE4F40815181628173818481BA
:102FE00095810E94C9172196C770E9CFDF91CF91D3
:102FF0001F9108954091A2015091A3016091A401F5
:103000007091A5018091A6019091A7010C94C91718
:10301000CF938091A70182958F7009F05FC0809156
:10302000A401882309F45AC020917001A091710174
:103030006091A2017091A3018091A5019091A601D8
:1030400031E06F3F09F030E0B32FC6E02A1709F4F2
:1030500045C0009721F07F3F21F44B2F03C041E092
:1030600001C040E030E040FD35C0C29FF001C39F89
:10307000F00D1124EE58FE4F418174132BC0408196
:10308000641328C04281411125C0438154814817EF
:10309000590710F441505109481B590B483C510540
:1030A000C8F48091A7018F7080618093A70186E0AA
:1030B000829FF001839FF00D1124E958FE4F80811B
:1030C0008F708061808382EA91E00E947D14CF91AD
:1030D0000C94D9172F5F3F4F2770B8CFCF91089529
:1030E000CF92DF92EF92FF920F931F93CF93DF93D4
:1030F000CDB7DEB762970FB6F894DEBF0FBECDBF77
:103100008C0185E0F801DE011D9601900D928A95F3
:10311000E1F7D8014C9111965C91119712966C9140
:1031200012971396ED90FC9014977091A201E09184
:10313000A3012091A5013091A6012115310531F09F
:10314000EF3F31F481E07F3F19F403C081E001C01B
:1031500080E0B82FB170CB2E80FD6CC1D090A4015F
:10316000DD2009F4F5C0F091A701E216F30638F06E
:10317000C701821B930B883C910548F09BC02095AA
:1031800030952E0D3F1D283C310508F093C08F2F40
:10319000807F09F052C0E51314C0741312C0D62EFC
:1031A00061110FC0FF70F061F093A7010E94FA1740
:1031B00082EA91E00E947D148091A701F801858345
:1031C0006CC1EF2831F05F3F31F481E04F3F19F4DB
:1031D00003C081E001C080E080FD03C081E086275C
:1031E00001C080E0F82FF170FF2E80FF1CC080919D
:1031F00070012091710136E0821709F428C190E036
:10320000389FF001399FF00D1124EE58FE4F718167
:10321000571306C07081471303C07281671303C040
:1032200001968770E9CFD62E662309F436C18091C6
:10323000A70181608093A70153C0E51308C07413F0
:1032400006C0611104C0D8011596FC93AEC04D872D
:103250005E878D859E856A8B0E9499176A8988236F
:1032600029F1D62E662311F12091A701822F829594
:103270008F7090E002970CF460C08091A201909151
:10328000A30198878F831986FB86EA862C87CE0157
:10329000079651C0E51731F14D875E878D859E8574
:1032A0006A8B0E9499176A8981112EC0C8010E94F9
:1032B0007D14A4C08F2F807F69F77E2DF98AE88A5C
:1032C00089890E94BA1782EA91E00E947D14E2EA9D
:1032D000F1E086E0DF011D928A95E9F70E94FA1776
:1032E000D12CDBC07413D8CF6111D6CFD80115967D
:1032F000FC93C8010E947D14E2EAF1E086E0DF0160
:103300001D928A95E9F7C9C0D62E662379F22091DD
:10331000A701822F82958F7090E0029774F08091C0
:10332000A2019091A3019A8389831B82FD82EC8282
:103330002E83CE0101960E947D1486E0F801A2EA58
:10334000B1E001900D928A95E1F70E9408186FC0D4
:10335000E216F30628F0C701821B930B9C0104C000
:10336000209530952E0D3F1D283C310508F052C0A8
:10337000D62E662309F49ACFE5132CC074132AC005
:103380008091A70180FD1DC0982F92959F70C9F074
:10339000D80115968C9315979F3039F09F5F9295C1
:1033A000907F8F70892B15968C93C8010E947D1495
:1033B00086E0F801A2EAB1E001900D928A95E1F76A
:1033C00036C086E0F801A2EAB1E001900D928A953C
:1033D000E1F763C04D875E878D859E850E949917B2
:1033E000882379F086E0F801A2EAB1E001900D921D
:1033F0008A95E1F70E9408180E94FA17DD24D394F9
:103400004CC08091A70181608093A701C8010E94F0
:103410007D1443C07E2DF98AE88A89890E94BA17F3
:10342000E2EAF1E086E0DF011D928A95E9F70E9469
:10343000FA1733C0662309F439CF4D875E878D852F
:103440009E850E949917882309F430CFCBCF4D87F2
:103450005E878D859E850E94B61C292F22952F7030
:1034600030E0223031052CF49F7041F0811106C00C
:103470000CC0243031052CF49F7049F4805E8830F4
:1034800020F0C8010E947D14CF2CDC2C06C0D8018E
:1034900015969C91907F91F7F8CF8D2D62960FB67F
:1034A000F894DEBF0FBECDBFDF91CF911F910F917A
:1034B000FF90EF90DF90CF9008951F93CF93DF930D
:1034C000CDB7DEB72C970FB6F894DEBF0FBECDBFD9
:1034D0004F83588769877A878B879C87CE010796A9
:1034E0000E9470188823C1F02F8138858A859B85BA
:1034F000892B31F03F3F11F080E003C02F3FE1F70F
:1035000081E0811147C04F81588569857A858B8517
:103510009C850E94C9173EC086E0FE013796DE01F9
:10352000119601900D928A95E1F7FF81E8854A8511
:103530005B854115510531F0EF3F31F481E0FF3FEC
:1035400019F403C081E001C080E080FD23C0209118
:10355000710130E0C901019687709927609170016F
:1035600070E086179707F1F1F983EA835D834C8356
:1035700096E0929FD001939FB00D1124AE58BE4F9C
:10358000FE01319601900D929A95E1F780937101B9
:103590000E94D91716E080917001909171018917EE
:1035A00079F1189FC00111248E589E4F0E94701807
:1035B000882331F1E09170011E9FF0011124EE5833
:1035C000FE4F4081518162817381848195810E9487
:1035D000C9178091700190E00196877099278093B8
:1035E0007001D9CF0E94951710927101109270014D
:1035F000E2EAF1E086E0DF011D928A95E9F7CACFA1
:103600002C960FB6F894DEBF0FBECDBFDF91CF91E1
:103610001F910895EF92FF920F931F93CF93DF9323
:10362000FC01009709F46DC0F12CEE24E394EF0146
:1036300021968491843740F4843008F053C081305F
:1036400081F0823021F15DC0853709F445C0B0F1C9
:103650009CE7980F903708F054C08F770E94201491
:1036600043C08F010E5F1F4FFE01849190E2980FBF
:10367000983050F48770FE2D01C0FF0F8A95EAF74D
:103680008F2F0E94A31D15C00E94581312C08F01D6
:103690000E5F1F4FFE01849190E2980F983058F40E
:1036A0008770FE2D01C0FF0F8A95EAF78F2F0E94C9
:1036B000A91DE80119C00E942014FBCFCF0102967A
:1036C000FE01C491CC2361F0EFE9FFE03197F1F7FF
:1036D00000C00000C150F6CFCF010296FE01F49069
:1036E000EC0102C00E9458138F2D882341F0EFE9AE
:1036F000FFE03197F1F700C000008150F6CFFE01E6
:1037000096CFDF91CF911F910F91FF90EF90089589
:1037100008956093AC017093AD018093AE019093D6
:10372000AF010C9483170F931F930091AC0110917C
:10373000AD012091AE013091AF01062B172B282B44
:10374000392B0093AC011093AD012093AE0130935F
:10375000AF011F910F910C9483170F931F9300914A
:10376000AC011091AD012091AE013091AF01062363
:103770001723282339230093AC011093AD01209324
:10378000AE013093AF011F910F910C9483170F93EB
:103790001F930091AC011091AD012091AE013091C9
:1037A000AF0106271727282739270093AC0110936C
:1037B000AD012093AE013093AF011F910F910C9496
:1037C00083171092A8011092A9011092AA011092D9
:1037D000AB010C94831741E050E060E070E004C05E
:1037E000440F551F661F771F8A95D2F74093A80193
:1037F0005093A9016093AA017093AB010C948317B5
:1038000041E050E060E070E004C0440F551F661FC7
:10381000771F8A95D2F78091A8019091A901A09174
:10382000AA01B091AB01842B952BA62BB72B8093CB
:10383000A8019093A901A093AA01B093AB010C94A5
:10384000831741E050E060E070E004C0440F551F72
:10385000661F771F8A95D2F74095509560957095B1
:103860008091A8019091A901A091AA01B091AB010A
:1038700084239523A623B7238093A8019093A901BD
:10388000A093AA01B093AB010C94831741E050E0E0
:1038900060E070E004C0440F551F661F771F8A95D3
:1038A000D2F78091A8019091A901A091AA01B091AD
:1038B000AB0184279527A627B7278093A80190936B
:1038C000A901A093AA01B093AB010C9483170F93A5
:1038D0001F930091A8011091A9012091AA01309194
:1038E000AB01062B172B282B392B0093A801109323
:1038F000A9012093AA013093AB011F910F910C9461
:1039000083170F931F930091A8011091A901209193
:10391000AA013091AB0106231723282339230093F2
:10392000A8011093A9012093AA013093AB011F9124
:103930000F910C9483170F931F930091A80110917E
:10394000A9012091AA013091AB010627172728274A
:1039500039270093A8011093A9012093AA0130935D
:10396000AB011F910F910C9483170895CF92DF92B2
:10397000EF92FF920F931F93CF93DF93EC01C090D0
:10398000AC01D090AD01E090AE01F090AF0180911C
:10399000A8019091A901A091AA01B091AB01C82AF8
:1039A000D92AEA2AFB2A0FE110E0B701A601002E6E
:1039B00004C076956795579547950A94D2F740FFCE
:1039C00007C0BE01802F0E94941E8130910539F4FA
:1039D0000150110950F7BE0180E00E94941EDF9152
:1039E000CF911F910F91FF90EF90DF90CF900895AE
:1039F00090910C01992341F1982F96959695969563
:103A00009F3088F4E0910D01F0910E01E90FF11D56
:103A1000877021E030E001C0220F8A95EAF78181AA
:103A2000822B818308959091C30190FF2DC01F9236
:103A30008F9384E094E09F938F930E9485080F906A
:103A40000F900F900F90089540910D0150910E012D
:103A500020E030E09FEFFA01E20FF31F6281681768
:103A600099F09F3F19F4611101C0922F2F5F3F4FD2
:103A70002E30310581F79F3F39F0FA01E90FF11D32
:103A800097FDFA9582830895089590910C019923EA
:103A900049F1982F9695969596959F3090F4E091E0
:103AA0000D01F0910E01E90FF11D877021E030E06A
:103AB00001C0220F8A95EAF720958181282321836E
:103AC00008959091C30190FF1FC01F928F9386EEBF
:103AD00093E09F938F930E9485080F900F900F9013
:103AE0000F90089540910D0150910E0120E030E0BB
:103AF000FA01E20FF31F9281981301C012822F5F27
:103B00003F4F2E303105A1F7089581E090E0E0911C
:103B10000D01F0910E01E80FF91F1082019680311E
:103B20009105A9F708959091C201982B9093C20135
:103B3000089580959091C20198239093C2010895B1
:103B40001092C20108959091C101982B9093C101E8
:103B5000089580959091C10198239093C101089593
:103B60001092C10108958093B00108951092B001A0
:103B7000089540910D0150910E0120E030E080E069
:103B8000FA01E20FF31F918191118F5F2F5F3F4F79
:103B90002F303105A9F70895E0910D01F0910E0144
:103BA0008091C2018083E0910D01F0910E0180812E
:103BB0009091C101892B80839091B001992361F08C
:103BC000E0910D01F0910E018081892B80830E948C
:103BD000B91D81111092B00180910D0190910E01DB
:103BE0000C94C7118B3B60F4883A00F5853AA8F431
:103BF000843088F4813009F055C081E090E0089568
:103C0000803E08F44FC0883E30F0803F08F44AC040
:103C100090E09065089590E00895853A09F445C0D4
:103C2000863A09F045C082E890E40895883A09F49C
:103C300042C0893A09F442C08A3A09F442C08B3A38
:103C400009F442C08C3A09F442C08D3A09F442C0EA
:103C5000803B09F442C08E3A09F442C08F3A09F41D
:103C600042C0813B09F442C0823B09F442C0833B1D
:103C700009F442C0843B09F442C0853B09F442C0C8
:103C8000863B09F442C0873B09F442C0883B09F4F3
:103C900042C0893B09F442C08A3B09F042C08AE233
:103CA00096E4089580E090E0089581E890E4089516
:103CB00083E890E4089582EE94E4089589EE94E414
:103CC00008958AEE94E4089585EB94E4089586EBD4
:103CD00094E4089587EB94E408958CEC94E40895BB
:103CE0008DEC94E4089583E895E408958AE895E4DA
:103CF000089582E995E4089584E995E4089581E2C0
:103D000096E4089583E296E4089584E296E40895A3
:103D100085E296E4089586E296E4089587E296E4C3
:103D2000089580E094E408950E949008803EA8F4ED
:103D3000803C00F5813309F45CC038F4893209F421
:103D400052C08A3209F45BC05FC08933B1F0823857
:103D5000A1F0853309F441C057C0833E41F128F4F6
:103D6000803E99F0823EB9F04FC0863E31F1873EE9
:103D700071F14AC00E94910808959091D80190FD78
:103D800002C091FF41C080EE3FC08091D80180FF0A
:103D9000FACF89E339C08091D80182FF0CC08091AD
:103DA000D80184FF02C080E02FC083EE2DC0809137
:103DB000D80182FFF4CF82EE27C08091D80183FF23
:103DC0000AC08091D80184FDEECF87EE1DC080919E
:103DD000D80183FFF6CF86EE17C08091D80185FF0A
:103DE00006C089E211C08091D80185FFFACF85E332
:103DF0000BC08091D80186FF06C08AE205C0809181
:103E0000D80186FFFACF81E30E94F21D089580E079
:103E100090E0089508959093C6018093C501089598
:103E2000CF92DF92EF92FF920F931F936C01EE24DB
:103E3000FF24C114D104E104F10421F46B017C01DD
:103E400080E001C080E133272F2D1E2D0D2D01159F
:103E500011052105310519F0885F68017901970185
:103E60008601A4E03695279517950795AA95D1F771
:103E7000011511052105310519F08C5F68017901E3
:103E800097018601F2E03695279517950795FA95E3
:103E9000D1F7011511052105310519F08E5F680173
:103EA0007901B701A6017695679557954795452BFA
:103EB000462B472B09F08F5F1F910F91FF90EF90DA
:103EC000DF90CF9008958295982F9C7C969596953B
:103ED000837344E0849F90011124922B892F8A7A66
:103EE00086959575990F892B08951F93CF93DF932E
:103EF0001F92CDB7DEB799830E94631F182F998157
:103F0000892F0E94631F212F30E0322F2227A90121
:103F1000482BCA010F90DF91CF911F910895809196
:103F2000DD01843009F11092C40120E488E190E0C1
:103F30000FB6F894A895809360000FBE20936000A0
:103F400083B7817F846083BF83B7816083BF7894A8
:103F5000889583B78E7F83BF88E10FB6F8948093EE
:103F60006000109260000FBE0895CF930E948E08EB
:103F70000E94BE080E948F08C0E08C2F0E94EB09AF
:103F8000892B29F4CF5FC530C1F780E001C081E003
:103F9000CF9108950C9495171F920F920FB60F9220
:103FA00011248F939F93AF93BF938091C40181118C
:103FB00013C08091C7019091C801A091C901B0912F
:103FC000CA014196A11DB11D8093C7019093C801FC
:103FD000A093C901B093CA01BF91AF919F918F91F6
:103FE0000F900FBE0F901F90189582E084BD93E054
:103FF00095BD9AEF97BD80936E0008952FB7F89402
:104000008091C7019091C801A091C901B091CA01E6
:104010002FBF0895CF92DF92EF92FF920F931F93DD
:104020002FB7F8944091C7015091C8016091C90120
:104030007091CA012FBF6A017B01EE24FF248C011D
:1040400020E030E0C016D106E206F30610F441503D
:104050005109481B590BCA011F910F91FF90EF9016
:10406000DF90CF9008951F920F920FB60F921124F8
:104070008F939F93AF93BF938091C7019091C80195
:10408000A091C901B091CA010196A11DB11D8093F3
:10409000C7019093C801A093C901B093CA01BF9111
:1040A000AF919F918F910F900FBE0F901F90189519
:1040B0000E94DC0DF8942FEF87EA91E621508040B2
:1040C0009040E1F700C0000087E090EBDC018093B6
:1040D000E6019093E701A093E801B093E9012CE099
:1040E00088E190E00FB6F894A895809360000FBE29
:1040F00020936000FFCFCF92DF92EF92FF920F9359
:104100001F93CF93DF93C82ED12C01E010E08D2DAB
:104110000E94EB097C01C0E0D0E098010C2E02C0A7
:10412000220F331F0A94E2F72E213F21232B29F47B
:104130002196CE30D10589F709C06C2F7D2D80E006
:104140000E949008C812F4CF81E005C0D39485E0A6
:10415000D812DDCF80E0DF91CF911F910F91FF90BA
:10416000EF90DF90CF900895CF93C82F8CE20E94FC
:104170007B20882321F08C2FCF910C947B2080E032
:10418000CF910895CF930E940F22811102C00E9407
:10419000F52189E294E00E94EC07C5E6C15049F0A0
:1041A0000E94BE088FE39CE90197F1F700C0000070
:1041B000F5CF82E294E00E94EC0789E20E94B420ED
:1041C000811111C18AE20E94B42081110E94F5215F
:1041D00085E00E94B42081110E9458200E941A227A
:1041E0008093C30187E00E94B420882399F18BE17A
:1041F0000E94B420882351F09091C30191FB88273D
:1042000080F921E0822780FB91F922C08EE00E9494
:10421000B420882351F09091C30192FB882780F944
:1042200021E0822780FB92F913C080E10E94B42034
:104230009091C301882341F093FB882780F921E006
:10424000822780FB93F904C0892F809580FB90F929
:104250009093C3018091C3010E941E220E942C22D0
:104260008093D80180EE0E94B420882341F0809191
:10427000D801982F909590FB80F98093D80189E31D
:104280000E94B420882359F09091D80191FB88278F
:1042900080F921E0822780FB91F99093D80182EE8A
:1042A0000E94B420882359F09091D80192FB88276E
:1042B00080F921E0822780FB92F99093D80186EE65
:1042C0000E94B420882359F09091D80193FB88274D
:1042D00080F921E0822780FB93F99093D80183EE47
:1042E0000E94B420882359F09091D80194FB88272C
:1042F00080F921E0822780FB94F99093D80185E32F
:104300000E94B420882359F09091D80195FB88270A
:1043100080F921E0822780FB95F99093D80181E311
:104320000E94B420882359F09091D80196FB8827E9
:1043300080F921E0822780FB96F99093D80181E1F2
:104340000E94B420882359F09091D80197FB8827C8
:1043500080F921E0822780FB97F99093D801809122
:10436000D8010E9430228091D80187FB882780F9EC
:1043700080930C0187E20E94B420C82F8EE10E9436
:10438000B4208111C2608FE10E94B4208111C46009
:1043900080E20E94B4208111C86081E20E94B420B2
:1043A0008111C06182E20E94B4208111C06283E267
:1043B0000E94B4208111C06484E20E94B42088234A
:1043C00011F0C06802C0CC2329F08C2F0E94272254
:1043D0006C2F03C00E942322682F70E080E090E0E1
:1043E000CF910C94891BCF9108956DEE7EEF80E004
:1043F00090E00E94EC2C60E082E090E00E94DE2CD5
:1044000060E083E090E00E94DE2C60E084E090E0D9
:104410000E94DE2C60E085E090E00C94DE2C80E0D1
:1044200090E00E94D82C21E08D3E9E4F09F020E0C4
:10443000822F089582E090E00C94D02C682F82E0C7
:1044400090E00C94DE2C83E090E00C94D02C682F4C
:1044500083E090E00C94DE2C84E090E00C94D02C6F
:10446000682F84E090E00C94DE2C8091CD0180FFD9
:104470000BC06091120185E0689FB0011124759511
:104480006795759567952AC081FF09C060911201F3
:1044900085E0689FB0011124759567951FC082FF64
:1044A00007C06091120185E0689FB001112416C019
:1044B0004091CE014423C9F060911101461788F75D
:1044C0002091120185E0289F90011124429FC00194
:1044D000439F900D112470E00E94A22C603871055A
:1044E00040F46115710539F002C065E070E0862F77
:1044F00008958FE7089581E008958091CD0180FFB0
:1045000008C06091100170E0759567957595679585
:1045100021C081FF06C06091100170E0759567951C
:1045200019C082FF04C06091100170E010C080913A
:10453000CE018823C1F060910F018617A0F79091FA
:104540001001989FC001112470E00E94A22C6038D5
:10455000710528F46115710521F0862F08958FE704
:10456000089581E0089561E070E0F4CF803F21F488
:104570000E943522819504C0813F29F40E94352292
:104580008093D1010895823F21F40E9435228195C4
:1045900004C0833F29F40E9435228093D0010895FE
:1045A000893F19F40E947D2205C08A3F31F40E94A0
:1045B0007D2281958093D20108958B3F21F40E9442
:1045C0007D22819504C08C3F29F40E947D22809336
:1045D000D3010895843F21F48091CF01816017C0F9
:1045E000853F21F48091CF01826011C0863F21F484
:1045F0008091CF0184600BC0873F21F48091CF016F
:10460000886005C0883F31F48091CF01806180933C
:10461000CF0108958D3F21F48091CD0181600BC0C1
:104620008E3F21F48091CD01826005C08F3F29F437
:104630008091CD0184608093CD010895803F39F44D
:104640008091D10187FF6CC01092D10169C0813F78
:1046500029F48091D1011816BCF362C09091D00169
:10466000823F29F497FF5CC01092D00159C0833F6C
:1046700019F41916CCF354C0893F41F48091D2014A
:1046800018160CF04DC01092D2014AC08A3F29F48E
:104690008091D20187FF44C0F6CF8B3F39F48091DF
:1046A000D30187FF3DC01092D3013AC08C3F29F45B
:1046B0008091D3011816BCF333C0843F21F480915C
:1046C000CF018E7F17C0853F21F48091CF018D7F70
:1046D00011C0863F21F48091CF018B7F0BC0873FB3
:1046E00021F48091CF01877F05C0883F31F480910C
:1046F000CF018F7E8093CF0113C08D3F21F4809135
:10470000CD018E7F0BC08E3F21F48091CD018D7F36
:1047100005C08F3F29F48091CD018B7F8093CD011F
:104720008091D00181110EC08091D10181110AC008
:104730008091D201811106C08091D301811102C004
:104740001092CE0108958091C30183FF7EC085E65B
:1047500094E00E94EC078091CF011F928F9380E636
:1047600094E09F938F930E9485088EE594E00E94C9
:10477000EC072091D001822F992787FD90959F9378
:104780002F938BE594E09F938F930E94850889E592
:1047900094E00E94EC072091D101822F992787FD98
:1047A00090959F932F9386E594E09F938F930E941B
:1047B000850884E594E00E94EC072091D201822FC5
:1047C000992787FD90959F932F9381E594E09F9380
:1047D0008F930E9485088FE494E00E94EC0720915B
:1047E000D301822F992787FD90959F932F938CE477
:1047F00094E09F938F930E94850889E494E00E943F
:10480000EC078091CE011F928F9386E494E09F93F2
:104810008F930E94850884E494E00E94EC078091C5
:10482000CD011F928F9381E494E09F938F930E9418
:1048300085088EE394E00E94EC078DB79EB74C96F6
:104840000FB6F8949EBF0FBE8DBF8FEC91E00E9413
:104850000C120E94FE1F9093CC018093CB0108950F
:104860001F93CF93DF938091CB019091CC010E9455
:104870000A204091CE01442321F02091130130E021
:1048800006C0209114015AE0259F9001112482173F
:10489000930708F482C08091D0011091D101D0918A
:1048A000D201C091D301811107C0111105C0D111EE
:1048B00003C0CC2309F471C04F3F19F04F5F409300
:1048C000CE01181624F40E9435228093D0018091E5
:1048D000D00187FF05C00E94352281958093D001C9
:1048E000111624F40E9435228093D1018091D101C8
:1048F00087FF05C00E94352281958093D101609188
:10490000D001662339F11091D101112319F17727D4
:1049100067FD7095872F972F0E94B32B23E333E316
:1049200043E35FE30E94172C0E94802B6093D00129
:10493000612F772767FD7095872F972F0E94B32BE4
:1049400023E333E343E35FE30E94172C0E94802BB1
:104950006093D1011D1624F40E947D228093D20120
:104960008091D20187FF05C00E947D2281958093AE
:10497000D2011C1624F40E947D228093D3018091E1
:10498000D30187FF05C00E947D2281958093D301CA
:10499000DF91CF911F910C94A323DF91CF911F91B1
:1049A0000895EFECF1E085E0DF011D928A95E9F7CB
:1049B0001092CE011092CD01089584E399E00E94F7
:1049C000EC0787E299E00E94EC078AE199E00C94F9
:1049D000EC0787E998E00E94EC078AE898E00E94DB
:1049E000EC078FE698E00E94EC0784E598E00E94CF
:1049F000EC078CE398E00E94EC0782E298E00E94CA
:104A0000EC0784E098E00E94EC0784EE97E00E94B7
:104A1000EC078FEC97E00E94EC0788EB97E00E9490
:104A2000EC078BE997E00E94EC078CE797E00E9487
:104A3000EC078CE597E00E94EC078AE397E00E9480
:104A4000EC0785E097E00E94EC0780EF96E00E947B
:104A5000EC071F9285E08F938DEE96E09F938F93E6
:104A60000E94850884EE96E00E94EC071F9281E088
:104A70008F9381EE96E09F938F930E9485088FED30
:104A800096E00E94EC078DB79EB708960FB6F89493
:104A90009EBF0FBE8DBF82EB96E00C94EC07833077
:104AA00009F459C028F4813061F0823079F1089519
:104AB000853009F49AC008F473C0863009F4BAC08E
:104AC000089520911401862F90E0820F911D8F3F51
:104AD000910520F4620F6093140103C08FEF80935F
:104AE00014018EE895E00E94EC07809114011F925A
:104AF0008F938BE895E09F938F930E9485080F908A
:104B00000F900F900F9089E895E0B8C020911301A5
:104B1000862F90E0820F911D8F3F910520F4620F48
:104B20006093130103C08FEF809313018AE795E030
:104B30000E94EC07809113011F928F9387E795E005
:104B40009F938F930E9485080F900F900F900F9066
:104B500085E795E093C020911201862F90E0820FA7
:104B6000911D8F3F910520F4620F6093120103C0E5
:104B70008FEF8093120185E695E00E94EC0780910B
:104B800012011F928F9382E695E09F938F930E946C
:104B900085080F900F900F900F9080E695E06EC003
:104BA00020911101862F90E0820F911D8F3F91057A
:104BB00020F4620F6093110103C08FEF8093110105
:104BC0008EE495E00E94EC07809111011F928F9373
:104BD0008BE495E09F938F930E9485080F900F9030
:104BE0000F900F9089E495E049C020911001862F25
:104BF00090E0820F911D8F3F910520F4620F60932A
:104C0000100103C08FEF8093100183E395E00E94B1
:104C1000EC07809110011F928F9380E395E09F93A2
:104C20008F930E9485080F900F900F900F908EE247
:104C300095E024C020910F01862F90E0820F911DF6
:104C40008F3F910520F4620F60930F0103C08FEF37
:104C500080930F0186E195E00E94EC0780910F019F
:104C60001F928F9383E195E09F938F930E94850815
:104C70000F900F900F900F9081E195E00C94EC074E
:104C8000833009F44DC028F4813061F0823049F15D
:104C90000895853009F482C008F461C0863009F4B3
:104CA0009CC0089580911401681720F4861B80939E
:104CB000140102C01092140185E095E00E94EC07F7
:104CC000809114011F928F9382E095E09F938F93C0
:104CD0000E9485080F900F900F900F9080E095E054
:104CE0009AC080911301681720F4861B80931301EA
:104CF00002C01092130181EF94E00E94EC078091B2
:104D000013011F928F938EEE94E09F938F930E94D6
:104D100085080F900F900F900F908CEE94E07BC061
:104D200080911201681720F4861B8093120102C043
:104D3000109212018CED94E00E94EC078091120118
:104D40001F928F9389ED94E09F938F930E94850823
:104D50000F900F900F900F9087ED94E05CC08091C2
:104D60001101681720F4861B8093110102C0109274
:104D7000110185EC94E00E94EC07809111011F92D3
:104D80008F9382EC94E09F938F930E9485080F90FD
:104D90000F900F900F9080EC94E03DC08091100137
:104DA000681720F4861B8093100102C01092100136
:104DB0008AEA94E00E94EC07809110011F928F9381
:104DC00087EA94E09F938F930E9485080F900F903D
:104DD0000F900F9085EA94E01EC080910F01681734
:104DE00020F4861B80930F0102C010920F018DE802
:104DF00094E00E94EC0780910F011F928F938AE844
:104E000094E09F938F930E9485080F900F900F90CE
:104E10000F9088E894E00C94EC07CF93C82F83E0C0
:104E200099E00E94EC076091AC017091AD01809116
:104E3000AE019091AF010E94101F1F928F9320E04E
:104E400039E03F932F930E9485088BEF98E00E94F2
:104E5000EC071F92CF9328EF38E03F932F930E94E7
:104E6000850886EF98E00E94EC0761E070E080E042
:104E700090E004C0660F771F881F991FCA95D2F76C
:104E80000E94891B8DB79EB708960FB6F8949EBFF7
:104E90000FBE8DBFCF910C949517CF93482F50E044
:104EA000FA013697E334F10508F0AEC2E059FF4F3E
:104EB0000C94B62C89E29FE00E94EC0781E69CE00E
:104EC0000E94EC070E9423221F928F938EE59CE0A4
:104ED0009F938F930E9485088CE59CE00E94EC07CD
:104EE0000E941A22C82F89E49CE00E94EC071F92BE
:104EF000CF9324E43CE03F932F930E94850882E403
:104F00009CE00E94EC0788E39CE00E94EC078C2F59
:104F100081701F928F9325E33CE03F932F930E9473
:104F2000850883E39CE00E94EC0789E29CE00E94F4
:104F3000EC07C1FB882780F91F928F9326E23CE0A3
:104F40003F932F930E94850884E29CE00E94EC0727
:104F500088E19CE00E94EC07C2FB882780F91F9241
:104F60008F9325E13CE03F932F930E94850883E1D6
:104F70009CE00E94EC078AE09CE00E94EC07C3FBE7
:104F8000CC27C0F91F92CF9387E09CE09F938F932B
:104F90000E94850885E09CE00E94EC070E942C227C
:104FA000C82F81EF9BE00E94EC071F92CF932CEE5D
:104FB0003BE03F932F930E9485088AEE9BE00E947E
:104FC000EC0781ED9BE00E94EC078C2F81701F9213
:104FD0008F932EEC3BE03F932F930E9485088DB773
:104FE0009EB780960FB6F8949EBF0FBE8DBF8CEC17
:104FF0009BE00E94EC0785EB9BE00E94EC07C1FB65
:10500000882780F91F928F9322EB3BE03F932F93E9
:105010000E94850880EB9BE00E94EC078EE99BE0F4
:105020000E94EC07C2FB882780F91F928F932BE91F
:105030003BE03F932F930E94850889E99BE00E9403
:10504000EC0787E89BE00E94EC07C3FB882780F908
:105050001F928F9324E83BE03F932F930E94850893
:1050600082E89BE00E94EC0788E79BE00E94EC0747
:10507000C4FB882780F91F928F9325E73BE03F937D
:105080002F930E94850883E79BE00E94EC0781E64E
:105090009BE00E94EC07C5FB882780F91F928F9345
:1050A0002EE53BE03F932F930E9485088CE59BE023
:1050B0000E94EC0780E49BE00E94EC07C6FB882777
:1050C00080F91F928F932DE33BE03F932F930E9433
:1050D00085088BE39BE00E94EC0783E39BE00E9442
:1050E000EC07C7FBCC27C0F91F92CF9380E39BE06E
:1050F0009F938F930E9485088EE29BE00E94EC07AD
:105100008DB79EB74C960FB6F8949EBF0FBE8DBF5D
:105110001DC00E94B611892B79F00E94B6119093A0
:10512000D6018093D5010E94951780E090E00E94FF
:10513000B11180E29FE008C08091D5019091D60125
:105140000E94B11185E19FE00E94EC07C1E061C1BE
:1051500082E19BE00E94EC078BEF9AE00E94EC0753
:1051600083EE9AE00E94EC078BEC9AE00E94EC0739
:1051700081EB9AE00E94EC078AE99AE00E94EC0732
:105180008AE79AE00E94EC0784E69AE00E94EC0726
:1051900083E59AE00E94EC078BE39AE00E94EC071B
:1051A0008BE29AE00E94EC0781E19AE00E94EC0712
:1051B00088EF99E00E94EC078FED99E00E94EC07E0
:1051C00086EC99E00E94EC078DEA99E00E94EC07DA
:1051D0008CE899E00E94EC078AE699E00E94EC07CF
:1051E00080E599E0B1CF8091C301817F8E7F80936C
:1051F000C3010E94DD2480E09FE00E94EC078CEF59
:105200009EE00E94EC0781E08093D4019FCF0E9432
:10521000951783EE9EE00E94EC079FEF23ED80E35D
:10522000915020408040E1F700C000000E945820CB
:1052300083ED9EE089CF8091C301C82FC17080FFAC
:1052400009C080EC9EE00E94EC078091C301817F41
:105250008E7F44C08EEA9EE00E94EC078091C301DD
:1052600081608093C30172CF8091C30181FBCC2701
:10527000C0F991E0C927C0FB81F98093C301CC2319
:1052800019F085E99EE025C08BE79EE05DCF809117
:10529000C30182FBCC27C0F991E0C927C0FB82F98A
:1052A0008093C301CC2319F080E69EE012C084E411
:1052B0009EE04ACF8091C30183FBCC27C0F991E0E7
:1052C000C927C0FB83F98093C301CC2351F08CE242
:1052D0009EE00E94EC078091C30181608093C3012E
:1052E00098C083E19EE030CF8CEF9DE00E94EC07F8
:1052F00083ED9DE00E94EC0780EA9DE00E94EC07B0
:1053000083E79DE00E94EC078EE29DE00E94EC079F
:1053100080E09DE019CF8091C7019091C801A091D4
:10532000C901B091CA01BF93AF939F938F938CEE45
:105330009CE09F938F930E9485080F900F900F9091
:105340000F900F900F9002CF86ED9CE00E94EC072B
:105350000E94BB111F928F938CEB9CE09F938F93C5
:105360000E94850880910B011F928F9385EA9CE033
:105370009F938F930E94850880914C011F928F9379
:1053800082E99CE09F938F930E9485088DB79EB71A
:105390000C960FB6F8949EBF0FBE8DBFD7CE0E945D
:1053A0009517C0910C0181E0C827C0930C01CC2354
:1053B00029F083E89CE00E94EC072BC083E79CE087
:1053C000C3CE81E890E00E9417129FEF21EE84E0A7
:1053D000915020408040E1F700C0000080E090E064
:1053E0000E9417129FEF29E688E1915020408040EB
:1053F000E1F700C00000AACE80E003C08D5101C0DB
:1054000089530E940D27A2CE81E79CE00E94EC0701
:10541000C0E08C2FCF91089580E0089580E008953A
:10542000CF93C82F8091D401813071F020F0823069
:1054300009F44EC05DC1A0910D01B0910E018C9197
:10544000823209F057C107C0A0910D01B0910E0141
:105450008C91823249F48C2F0E940C2A811135C024
:105460008C2F0E944D2732C08C2F0E940E2A811152
:105470002CC0C431F1F090F4CB30A1F0C03101F573
:105480000E94E92485EC98E00E94EC0781EC98E00A
:105490000E94EC0782E08093D40117C0C93249F022
:1054A000C83371F40E94DD2482EF98E00E94EC077B
:1054B0000CC08EED98E00E94EC071092D4011CC144
:1054C0008FEB98E00E94EC0717C181E0817016C154
:1054D000C83228F5CE3108F0C0C0CB30A1F1D0F4ED
:1054E000C73009F0E8C08EE18093140182E3809315
:1054F00013018AE08093120184E18093110188E016
:105500008093100188E280930F0187E696E00E9465
:10551000EC07D6C0C33141F1C431C1F0CCC0CB34AB
:1055200009F4BEC028F4C93289F0C83361F0C3C0A1
:10553000C13509F4B3C0C23509F4AEC0CE3409F0A8
:10554000BAC06AE0B3C00E94E924BAC01092D70181
:105550008AE996E00E94EC0786E996E00E94EC0753
:1055600081E08093D401CAC08AE396E00E94EC07F0
:1055700085E296E00E94EC07809114011F928F93C0
:1055800082E296E09F938F930E94850880E296E0E6
:105590000E94EC078BE096E00E94EC0780911301DB
:1055A0001F928F9388E096E09F938F930E948508C7
:1055B00086E096E00E94EC0784EF95E00E94EC07FD
:1055C000809112011F928F9381EF95E09F938F93AB
:1055D0000E9485088FEE95E00E94EC078BED95E028
:1055E0000E94EC07809111011F928F9388ED95E046
:1055F0009F938F930E94850886ED95E00E94EC07AB
:105600008EEB95E00E94EC07809110011F928F9322
:105610008BEB95E09F938F930E94850889EB95E033
:105620000E94EC078FE995E00E94EC0780910F0142
:105630001F928F938CE995E09F938F930E9485082A
:105640008AE995E00E94EC078DB79EB748960FB6A1
:10565000F8949EBF0FBE8DBF33C0CE51EC2FF0E04B
:10566000E25DFE4F80818093D70181E896E00E9441
:10567000EC078091D7011F928F938EE796E09F935E
:105680008F930E9485088CE796E00E94EC070F90AC
:105690000F900F900F9014C061E003C061E006C04E
:1056A0006AE08091D7010E944F250AC08091D701FE
:1056B0000E94402605C085E696E00E94EC0716C0D1
:1056C00083E696E00E94EC078091D7011F928F93AA
:1056D00080E696E09F938F930E9485088DE596E083
:1056E0000E94EC070F900F900F900F9081E006C082
:1056F0001092D40180E002C080E0E8CECF910895FE
:1057000004D06894B1118DC0089570D088F09F576F
:1057100090F0B92F9927B751A0F0D1F0660F771FFD
:10572000881F991F1AF0BA95C9F712C0B13081F0DD
:1057300077D0B1E0089574C0672F782F8827B85FBD
:1057400039F0B93FCCF3869577956795B395D9F73E
:105750003EF490958095709561957F4F8F4F9F4F48
:105760000895E89409C097FB3EF490958095709554
:1057700061957F4F8F4F9F4F9923A9F0F92F96E99D
:10578000BB279395F695879577956795B795F11112
:10579000F8CFFAF4BB0F11F460FF1BC06F5F7F4FAF
:1057A0008F4F9F4F16C0882311F096E911C07723C1
:1057B00021F09EE8872F762F05C0662371F096E8CA
:1057C000862F70E060E02AF09A95660F771F881F99
:1057D000DAF7880F9695879597F9089557FD9058B1
:1057E000440F551F59F05F3F71F04795880F97FBA5
:1057F000991F61F09F3F79F087950895121613065F
:105800001406551FF2CF4695F1DF08C0161617068D
:105810001806991FF1CF86957105610508940895C2
:10582000E894BB2766277727CB0197F908950BD01B
:1058300078C069D028F06ED018F0952309F05AC0CE
:105840005FC01124EECFCADFA0F3959FD1F3950F6F
:1058500050E0551F629FF001729FBB27F00DB11DF4
:10586000639FAA27F00DB11DAA1F649F6627B00D84
:10587000A11D661F829F2227B00DA11D621F739F6D
:10588000B00DA11D621F839FA00D611D221F749F7B
:105890003327A00D611D231F849F600D211D822FC2
:1058A000762F6A2F11249F5750408AF0E1F0882309
:1058B0004AF0EE0FFF1FBB1F661F771F881F915016
:1058C0005040A9F79E3F510570F014C0AACF5F3F2A
:1058D000ECF3983EDCF3869577956795B795F79549
:1058E000E7959F5FC1F7FE2B880F911D96958795D1
:1058F00097F9089597F99F6780E870E060E0089550
:105900009FEF80EC089500240A94161617061806D7
:105910000906089500240A941216130614060506B3
:105920000895092E0394000C11F4882352F0BB0F44
:1059300040F4BF2B11F460FF04C06F5F7F4F8F4FA7
:105940009F4F089597FB072E16F4009407D077FD1C
:1059500009D00E94BC2C07FC05D03EF4909581959F
:105960009F4F0895709561957F4F0895EE0FFF1F2B
:105970000590F491E02D0994AA1BBB1B51E107C0CF
:10598000AA1FBB1FA617B70710F0A61BB70B881FCF
:10599000991F5A95A9F780959095BC01CD0108955E
:1059A000F999FECF92BD81BDF89A992780B50895E7
:1059B000A8E1B0E042E050E00C94F32C262FF999D6
:1059C000FECF1FBA92BD81BD20BD0FB6F894FA9AE2
:1059D000F99A0FBE019608950E94DE2C272F0C9491
:1059E000DF2CDC01CB01FC01F999FECF06C0F2BD32
:1059F000E1BDF89A319600B40D9241505040B8F78D
:065A00000895F894FFCFA9
:105A060005430A240B010BCD0A9A0A0101B10128AC
:105A160008140A321E3F4D36203973032603F0025E
:105A2600D00297020A0223023C02550275020102C5
:085A360003040506070809003E
:00000001FF
