:100000000C94BF070C9403080C9403080C94030889
:100010000C9403080C9403080C9403080C94030834
:100020000C9403080C9403080C94730E0C94430F67
:100030000C94ED1F0C9403080C9403080C94030813
:100040000C9403080C9403080C9403080C94030804
:100050000C9403080C9454200C9403080C9403088B
:100060000C9403080C9403080C9403080C940308E4
:100070000C9403080C9403080C9403080C940308D4
:100080000C9403080C9403080C9403080C940308C4
:100090000C9403080C9403080C9403080C940308B4
:1000A0000C9403080C9403080C940308AB10CD10B7
:1000B000B911CD10B9110F113311B91188119B115C
:1000C000E514E514131513156815A4159517951760
:1000D000BC159517B316B3166F1795179517831799
:1000E00014293C297B27252A252AC928252A252A9F
:1000F0006829252A7B29F029252A252A252A252A27
:10010000C529AC29252A9529252A5529252A252AB4
:100110001F2A1F2A1F2A1F2A1F2A1F2A1F2A1F2A97
:100120001F2A1D2A252A1D2A252A252A252A252A6D
:10013000252A252A252A252A252A252A252A1D2A4F
:10014000252A252AC928AA28212A212A212A212A22
:10015000212A212A212A212A212A212A212A212A47
:10016000022A252A2829F1A1291E1F202122232421
:100170002526272D2E2AA92B141A0815171C180C12
:1001800012132F3031AAC0041607090A0B0D0E0FE7
:10019000333400284BE1001D1B06190511103637BA
:1001A00038E5524EE0E2E30000002C0000E7E6E410
:1001B00050514F0A002530313662003A2000253078
:1001C0003258000A722F63203031323334353637DB
:1001D00038394142434445460A000A002530325826
:1001E00000626F756E6365213A20005B735D004BA2
:1001F0006579626F6172642073746172742E0A0093
:1002000055534220636F6E666967757265642E0A86
:10021000005B575D005B535D005B525D005B445DBE
:10022000005B435D000E036A0075006C00690061AD
:10023000006E0000000E036A0075006C006900612A
:10024000006E0000000403090409028D000501008E
:10025000A03209040000010301010009211101007D
:1002600001223F000705810308000A09040100017B
:1002700003010200092111010001224D000705823E
:100280000308000A0904020001030000000921110B
:100290000100012236000705830308000A09040350
:1002A00000020300000009211101000122200007C3
:1002B000058403200001070504032000010904044C
:1002C000000103000000092111010001223900078B
:1002D0000585031000011201100100000008EDFE69
:1002E000606001000102000105010906A101050786
:1002F00019E029E715002501950875018102050817
:100300001901290595057501910295017503910162
:1003100005071900297715002501957875018102D7
:10032000C00631FF0974A1010975150025FF95204C
:10033000750881020976150025FF95207508910240
:10034000C005010980A101850216010026B7001A27
:1003500001002AB700751095018100C0050C090144
:10036000A1018503160100269C021A01002A9C02A5
:10037000751095018100C005010902A1010901A1C3
:10038000000509190129051500250195057501814B
:100390000295017503810105010930093115812597
:1003A0007F95027508810609381581257F950175AD
:1003B000088106050C0A38021581257F950175080C
:1003C0008106C0C005010906A101050719E029E75A
:1003D00015002501950875018102950175088101B7
:1003E0000508190129059505750191029501750307
:1003F00091010507190029FF150025FF95067508CD
:100400008100C00A002530325820006B6579626F88
:100410006172645F7265706F72743A20000A002521
:10042000303258006B6579626F6172645F73657416
:100430005F6C65643A200064656C5F6B65795F6230
:1004400069743A2063616E27742064656C3A2025D4
:100450003032580A006164645F6B65795F62697469
:100460003A2063616E2774206164643A202530323B
:10047000580A00646F6E652E0A00626F6F676D61C7
:10048000676963207363616E3A202E2E2E20002947
:100490000A002575002F002575005D2800256400E1
:1004A0002000256400200025640020002564007CD5
:1004B0000025303258006D6F7573656B6579205B70
:1004C00062746E7C782079207620685D2872657071
:1004D0002F61636C293A205B000A002575006D6B63
:1004E0005F776865656C5F74696D655F746F5F6D7C
:1004F0006178203D20000A002575006D6B5F7768EC
:1005000065656C5F6D61785F7370656564203D2023
:10051000000A002575006D6B5F74696D655F746F0F
:100520005F6D6178203D20000A002575006D6B5FCE
:100530006D61785F7370656564203D20000A002559
:1005400075006D6B5F696E74657276616C203D201D
:10055000000A002575006D6B5F64656C6179203D54
:1005600020000A002575006D6B5F776865656C5F1C
:1005700074696D655F746F5F6D6178203D20000A5E
:10058000002575006D6B5F776865656C5F6D6178E0
:100590005F7370656564203D20000A002575006D5D
:1005A0006B5F74696D655F746F5F6D6178203D206E
:1005B000000A002575006D6B5F6D61785F73706573
:1005C0006564203D20000A002575006D6B5F696E33
:1005D00074657276616C203D20000A002575006DFF
:1005E0006B5F64656C6179203D20000A0025750011
:1005F000363A206D6B5F776865656C5F74696D6511
:100600005F746F5F6D61783A20000A0025750035D0
:100610003A206D6B5F776865656C5F6D61785F73BD
:10062000706565643A20000A00257500343A206D33
:100630006B5F74696D655F746F5F6D61783A200000
:100640000A00257500333A206D6B5F6D61785F732A
:10065000706565643A20000A00257500323A206D05
:100660006B5F696E74657276616C286D73293A20D0
:10067000000A00257500313A206D6B5F64656C617E
:1006800079282A31306D73293A20000A0A2D2D2D40
:100690002D2D204D6F7573656B65792050617261EA
:1006A0006D6574657273202D2D2D2D2D0A003E2051
:1006B000002575004D003F00736574206465666118
:1006C000756C742076616C7565732E0A000A0025BE
:1006D000750073656C656374656420706172616D2B
:1006E000657465723A2000433E20000A51756974B2
:1006F000204D6F7573656B657920436F6E736F6CFA
:10070000650A0053656520687474703A2F2F656E12
:100710002E77696B6970656469612E6F72672F77D8
:10072000696B692F4D6F7573655F6B6579730A002F
:100730000A002575002C20776865656C3D002575DD
:100740000077686572652064656C74613A20637532
:1007500072736F723D000A7370656564203D20649A
:10076000656C7461202A206D61785F7370656564C3
:10077000202A2028726570656174202F2074696DAD
:10078000655F746F5F6D6178290A007067646F77C9
:100790006E3A0964656372656173652070617261A8
:1007A0006D6574657273282D3130290A0070677584
:1007B000703A09696E637265617365207061726178
:1007C0006D6574657273282B3130290A00646F7768
:1007D0006E3A096465637265617365207061726168
:1007E0006D6574657273282D31290A0075703A0998
:1007F000696E63726561736520706172616D6574A5
:10080000657273282B31290A00643A0973657420D4
:1008100064656661756C742076616C7565730A0039
:10082000703A097072696E7420706172616D6574DE
:100830006572730A00363A0973656C656374206DDE
:100840006B5F776865656C5F74696D655F746F5F1A
:100850006D61780A00353A0973656C656374206DC3
:100860006B5F776865656C5F6D61785F73706565F8
:10087000640A00343A0973656C656374206D6B5FBC
:1008800074696D655F746F5F6D61780A00333A0952
:1008900073656C656374206D6B5F6D61785F7370F9
:1008A0006565640A00323A0973656C656374206D8E
:1008B0006B5F696E74657276616C286D73290A00CE
:1008C000313A0973656C656374206D6B5F64656CA8
:1008D0006179282A31306D73290A004553432F71FD
:1008E0003A09717569740A000A0A2D2D2D2D2D20E3
:1008F0004D6F7573656B657920506172616D6574BC
:100900006572732048656C70202D2D2D2D2D0A00E9
:100910003F004D303E000A456E746572204D6F7584
:1009200073656B657920436F6E736F6C650A000A9F
:100930005175697420436F6E736F6C65204D6F64E1
:10094000650A00433E20000A0025750020746F20D0
:10095000002575007377697463685F646566617507
:100960006C745F6C617965723A20006D3A096D6F45
:100970007573656B65790A004553432F713A0971A8
:100980007569740A000A0A2D2D2D2D2D20436F6ED6
:10099000736F6C652048656C70202D2D2D2D2D0AF0
:1009A00000506175733A096A756D7020746F20622A
:1009B0006F6F746C6F616465720A00436170733AA3
:1009C000094C6F636B204B6579626F6172642843D9
:1009D00068696C642050726F6F66290A0050536317
:1009E000723A09706F77657220646F776E2F726547
:1009F0006D6F74652077616B652D75700A00342FFB
:100A000046343A0973776974636820746F204C61C7
:100A100079657234200A00332F46333A09737769B7
:100A200074636820746F204C6179657233200A000A
:100A3000322F46323A0973776974636820746F20E5
:100A40004C6179657232200A00312F46313A0973C0
:100A5000776974636820746F204C61796572312006
:100A60000A00302F4631303A097377697463682081
:100A7000746F204C6179657230200A006E3A0974F7
:100A80006F67676C65204E4B524F0A00653A0970DC
:100A900072696E7420656570726F6D20636F6E662B
:100AA00069670A00733A097072696E742073746121
:100AB0007475730A00743A097072696E74207469EF
:100AC0006D657220636F756E740A00763A097072F4
:100AD000696E7420646576696365207665727369F2
:100AE0006F6E202620696E666F0A006D3A09746F7A
:100AF00067676C65206D6F757365206465627567E7
:100B00000A006B3A09746F67676C65206B657962E0
:100B10006F6172642064656275670A00783A0974CF
:100B20006F67676C65206D617472697820646562B7
:100B300075670A00643A09746F67676C65206465BD
:100B400062756720656E61626C650A00633A0965CB
:100B50006E74657220636F6E736F6C65206D6F6469
:100B6000650A000A0A2D2D2D2D2D20436F6D6D6114
:100B70006E642048656C70202D2D2D2D2D0A000AE5
:100B8000002575002E6E6B726F3A20000A002575E5
:100B9000002E737761705F6261636B736C61736861
:100BA0005F6261636B73706163653A20000A0025C0
:100BB00075002E737761705F67726176655F65732C
:100BC000633A20000A002575002E6E6F5F67756915
:100BD0003A20000A002575002E737761705F7261FC
:100BE0006C745F726775693A20000A002575002EE3
:100BF000737761705F6C616C745F6C6775693A20C4
:100C0000000A002575002E636170736C6F636B5F63
:100C1000746F5F636F6E74726F6C3A20000A002508
:100C200075002E737761705F636F6E74726F6C5FA7
:100C3000636170736C6F636B3A20000A0025303279
:100C400058006B65796D61705F636F6E6669672EC2
:100C50007261773A20000A002575002E6D6F75735A
:100C6000653A20000A002575002E6B6579626F6178
:100C700072643A20000A002575002E6D6174726955
:100C8000783A20000A002575002E656E61626C6559
:100C90003A20000A00253032580064656275675FAB
:100CA000636F6E6669672E7261773A20000A0025CD
:100CB000750064656661756C745F6C617965723A24
:100CC00020003F004E4B524F3A2064697361626CC2
:100CD00065640A004E4B524F3A20656E61626C6546
:100CE000640A006B6579626F6172645F69646C6548
:100CF0003A2025580A006B6579626F6172645F70F3
:100D0000726F746F636F6C3A2025580A00686F73B6
:100D1000745F6B6579626F6172645F6C6564732880
:100D2000293A2025580A000A0A2D2D2D2D2D205351
:100D30007461747573202D2D2D2D2D0A0074696D2D
:100D400065725F636F756E743A202530346C580A93
:100D5000004743433A20342E382E31204156522D3D
:100D60004C4942433A20312E382E3073766E204162
:100D700056525F415243483A20617672350A004F1D
:100D80005054494F4E533A204C55464120424F4F04
:100D9000544D41474943204D4F5553454B455920EC
:100DA00045585452414B455920434F4E534F4C45A3
:100DB00020434F4D4D414E44204E4B524F20343036
:100DC00039360A004255494C443A203135396239A6
:100DD00034312D6469727479202832333A30383ACC
:100DE0003137204A756C2032392032303135290AAA
:100DF000005649443A20307846454544286A756C87
:100E000069616E29205049443A20307836303630B6
:100E1000286A756C69616E29205645523A203078EF
:100E2000303030310A00444553433A206669726DD0
:100E30007761726520666F722074686520746565DD
:100E40006E73790A000A0A2D2D2D2D2D20566572FC
:100E500073696F6E202D2D2D2D2D0A000A444542F9
:100E600055473A206D6F7573652064697361626CD4
:100E700065642E0A000A44454255473A206D6F7555
:100E8000736520656E61626C65642E0A000A4445D4
:100E90004255473A206B6579626F617264206469DC
:100EA0007361626C65642E0A000A44454255473AF4
:100EB000206B6579626F61726420656E61626C653A
:100EC000642E0A000A44454255473A206D61747207
:100ED00069782064697361626C65642E0A000A4453
:100EE000454255473A206D617472697820656E619C
:100EF000626C65642E0A000A44454255473A2065F3
:100F00006E61626C65642E0A000A44454255473A98
:100F10002064697361626C65642E0A006E6F7420D0
:100F2000737570706F727465642E0A000A0A4A75D0
:100F30006D7020746F20626F6F746C6F6164657286
:100F40002E2E2E2000433E20000A456E746572202E
:100F5000436F6E736F6C65204D6F64650A00556E4C
:100F60006C6F636B65642E0A004C6F636B65642E57
:100F70000A006565636F6E6669673A0A00001124AE
:100F80001FBECFEFDAE0DEBFCDBF04B603FE24C044
:100F90008091E6019091E701A091E801B091E9010B
:100FA0008730904BA740B04BB9F41092E6011092F5
:100FB000E7011092E8011092E90114BE84B7877F1F
:100FC00084BF88E10FB6F8948093600010926000AF
:100FD0000FBEE0E0F8E3099511E0A0E0B1E0E8E43D
:100FE000FAE502C005900D92A833B107D9F721E0C8
:100FF000A8E3B1E001C01D92A63EB207E1F70E944E
:10100000BC0C0C94222D0C940000FF93EF93E09104
:10101000C501F091C601309709F00995EF91FF9154
:101020000895FC018591803011F0EFDFFBCF08952A
:10103000FF27E0E230E247FF0CC0419597FF09C06F
:10104000EDE26095709580959095611D711D811DF3
:10105000911D27FF02C0219530E350E2AA27660FB9
:10106000771F881F991FAA1FA41710F0A41B639550
:101070005A95A9F7AA3008F0A95FA05DAF93F39540
:10108000611571058105910541F7ED3211F4EF937A
:10109000F395F21718F43F93F395FBCF8F91B5DFDB
:1010A000FA95E1F70895E991F9918591803021F061
:1010B000853219F0AADFF9CF089520E0E894559120
:1010C0005532C1F3503311F4689455915A3348F4B2
:1010D000505390F3220F022E220F220F200D250FC6
:1010E000F4CF0EF4219589919991533619F3533722
:1010F00029F1533559F1BC0188279927E8945C36CA
:1011000021F48991999168945591543639F446EFB8
:101110007EF077FF0DC08FEF9FEF0AC055374AE092
:1011200039F0583540E121F0523642E009F0089597
:10113000FF93EF937DDFEF91FF91B7CFFF93EF9395
:10114000FC0181918030B9F360DFFBCFFF93EF9317
:1011500068DFF1CFDF93CF93CDB7DEB72596A3DF5E
:10116000CF91DF910895089508959FE0799FF00150
:1011700011249BE4899FE00DF11D1124E60FF11D60
:10118000E859FE4F84910895E82FF0E0EE0FFF1F1D
:10119000EA51F0408591949108953E9846988AB11D
:1011A000807F8AB98BB1807F8BB908950E94CD086A
:1011B00080B38C7080BB81B3836F81BB84B114B862
:1011C00085B18FEF85B957985F9AE2E4F1E0A8E323
:1011D000B1E0119211921D921D9281E0EC34F8075A
:1011E000C1F70895EF92FF921F93CF93DF93C8E367
:1011F000D1E010E0ECEDEE2EE1E0FE2E123071F0C9
:1012000018F4113041F004C0133059F0143061F07B
:10121000509A58980BC0519A599808C0529A5A98A7
:1012200005C0539A5B9802C03E9A469880EA8A9518
:10123000F1F723B1332727FD309520953095832F83
:10124000881F8827881F90E01B9B03C060E070E028
:1012500002C062E070E0862B972B1A9B03C060E00F
:1012600070E002C064E070E0682B792B199B03C02A
:1012700040E050E002C048E050E09B01242B352BB9
:10128000189B03C040E050E002C040E150E0242B36
:10129000352B89B1992787FD909580959095882762
:1012A000990F881F992775E0880F991F7A95E1F7A4
:1012B000282B392B1C9B03C080E090E002C080E407
:1012C00090E0282B392B1D9B03C080E090E002C0EA
:1012D00080E890E0282B392B1E9B03C080E090E033
:1012E00002C080E091E0282B392B8FB1992787FD30
:1012F0009095809590958827990F881F9927982F0A
:101300008827990F282B392B7E9B03C060E070E063
:1013100002C060E074E0262B372B7D9B03C060E0A9
:1013200070E002C060E078E0262B372B7C9B03C086
:1013300040E050E002C040E050E1242B352B799B87
:1013400003C080E090E002C080E090E2282B392BBF
:10135000789B03C080E090E002C080E090E4282BFE
:10136000392B888199818217930749F13983288322
:1013700080910001882301F18091C30180FF04C0A6
:1013800081EE91E00E9411088091C30180FF0CC0A2
:10139000809100011F928F93FF92EF920E94AA0802
:1013A0000F900F900F900F908091C30180FF04C0A9
:1013B0008AED91E00E94110885E0809300010E946F
:1013C000CD081F5F2296153009F018CF80910001DB
:1013D0008823C1F0815080930001882339F08FE980
:1013E0009FE00197F1F700C000000CC0A2E4B1E05B
:1013F000E8E3F1E0819191918D939D9391E0E23446
:10140000F907C1F76091A8017091A9018091AA0123
:101410009091AB010E94311F81E0DF91CF911F912C
:10142000FF90EF900895E82FF0E0EE0FFF1FEE5BC6
:10143000FE4F808191810895CF92DF92EF92FF92CB
:101440000F931F93CF93DF9383EC91E00E941108D9
:10145000C2E4EC2EC1E0FC2EC0E0D0E01EEBC12EB9
:1014600011E0D12E05EB11E0DF93CF93DF92CF9205
:101470000E94AA088BEB91E00E941108F70181916C
:1014800091917F010E94961F9F938F931F930F93BB
:101490000E94AA0883EB91E00E94110821968DB763
:1014A0009EB708960FB6F8949EBF0FBE8DBFC5308D
:1014B000D105D1F6DF91CF911F910F91FF90EF9061
:1014C000DF90CF900895089580915E0108959091E6
:1014D000DD01943009F04DC09091E9009F7020919A
:1014E000EC0020FF02C020E801C020E0292B94E09E
:1014F0009093E9009091EB0090FF38C09091EE003E
:1015000097FF34C090914D01992321F09091E8000C
:1015100095FF2CC010924D0196E03091E80035FD0A
:1015200015C03091DD01343009F53091EB0035FD07
:101530001DC0915021F481E080934D0117C0EFE967
:10154000FFE03197F1F700C00000E7CF8093F10092
:101550008091E80085FD05C08091E8008E7780933A
:10156000E8002F702093E90080E008952F70209309
:10157000E9008FEF0895CF93DF9300D01F92CDB78E
:10158000DEB72091DD01243019F523E029839B8308
:101590008A832093E9008FEF9091E800815095FDB8
:1015A00006C095ED9A95F1F700008111F5CF809175
:1015B000E80085FF0DC040E050E063E070E0CE0140
:1015C00001960E947F0F8091E8008E778093E8005B
:1015D0000F900F900F90DF91CF910895CF93DF93ED
:1015E00000D01F92CDB7DEB72091DD01243021F568
:1015F00022E029839B838A8383E08093E9008FEF35
:101600009091E800815095FD06C095ED9A95F1F70F
:1016100000008111F5CF8091E80085FF0DC040E00A
:1016200050E063E070E0CE0101960E947F0F809150
:10163000E8008E778093E8000F900F900F90DF9175
:10164000CF9108952091DD012430F1F422E0209320
:10165000E9002FEF3091E800215035FD06C035ED4F
:101660003A95F1F700002111F5CF2091E80025FF10
:101670000BC040E050E065E070E00E947F0F809179
:10168000E8008E778093E8000895CF93DF93EC0114
:101690008091DD01843009F043C080910C018823E2
:1016A000C1F085E08093E9008FEF9091E8008150D0
:1016B00095FD06C095E19A95F1F700008111F5CFEF
:1016C0008091E80085FF2CC040E050E060E170E0D0
:1016D00017C081E08093E9008FEF9091E80081507E
:1016E00095FD06C095ED9A95F1F700008111F5CFB3
:1016F0008091E80085FF14C040E050E068E070E0B1
:10170000CE010E947F0F8091E8008E778093E800E1
:1017100080E1FE01AEE4B1E001900D928A95E1F71F
:10172000DF91CF91089581E292E00E9411088091AB
:10173000DC01811109C00E94FD0D0E945A0E8091AA
:10174000E20084608093E20008958DE192E00E94BF
:1017500011081092DC01089589E192E00C941108BF
:1017600085E192E00E9411080C94B40881E192E0B6
:101770000E9411080C94EB1F8091DD01843049F523
:101780008091E9008F709091EC0090FF02C090E88A
:1017900001C090E0982B84E08093E9008091EB00F9
:1017A00080FF14C08091EE0087FF10C08091E80098
:1017B00085FF03C01092F100F9CF8091E80080FF0F
:1017C00005C08091E8008E778093E8009F70909329
:1017D000E900089542E061EC81E00E94770D42E06B
:1017E00061EC82E00E94770D42E061EC83E00E94B0
:1017F000770D46E261EC84E00E94770D42E161ECF6
:1018000085E00C94770D8091DF01833009F455C099
:1018100030F4813071F0823009F495C008958A3037
:1018200009F481C08B3009F460C0893009F0A3C08D
:1018300020C08091DE01813A09F09DC08091E800CE
:10184000877F8093E8008091E2019091E301892BEA
:1018500021F060E080E090E003C060E18EE491E080
:1018600070E00E94C80F8091E8008B778093E800B9
:1018700008958091DE01813209F07DC08091E201FE
:101880009091E301009719F0049709F074C08091DA
:10189000E800877F8093E8008091E80082FD05C022
:1018A0008091DD018111F8CF66C08091F1008093B5
:1018B0005E018091E8008B775AC08091DE01813A09
:1018C00009F059C08091E2019091E301892B09F060
:1018D00052C08091E800877F8093E8008091E80003
:1018E00080FFFCCF80910B013DC08091DE018132F1
:1018F00009F041C08091E2019091E301892BD9F573
:101900008091E800877F8093E8000E94AC0D909161
:10191000E00181E0911101C080E080930B01809390
:101920000C010C94B6178091DE01813221F5809173
:10193000E800877F8093E8000E94AC0D8091E10170
:1019400080934C0108958091DE01813AA1F4809149
:10195000E800877F8093E8008091E80080FFFCCF5B
:1019600080914C018093F1008091E8008E77809304
:10197000E8000C94AC0D089584B7877F84BF88E19C
:101980000FB6F89480936000109260000FBE90E054
:1019900080E80FB6F89480936100909361000FBEC9
:1019A0000E94FD0D0E945A0E8091E2008460809397
:1019B000E20087E69AE00E942C1F78948091DD0176
:1019C0008430E1F780E092E00E9411080E946412E6
:1019D00081E091E00E94D2118FEE91E00E94110807
:1019E0008091DD01853089F48BEE91E00E94110831
:1019F0000E94B01F8091DB01882391F30E94D61FC3
:101A0000882371F30E94610DEBCF0E949212E8CF00
:101A1000292F332723303105A9F06CF4213031050B
:101A200009F442C02230310509F043C08DE890E04E
:101A300029E432E042C021323105C9F022323105B9
:101A400019F137C099278130910541F08230910515
:101A500041F0892B71F5E5E4F2E005C0E5E3F2E041
:101A600002C0E5E2F2E0849190E09F0126C065307B
:101A700000F5E62FF0E0EE0FFF1FEC5DFE4F20813A
:101A8000318189E090E019C0653098F4E62FF0E0EC
:101A9000DF01AA0FBB1FA65EBE4F2D913C91EB5EEE
:101AA000FE4F808190E009C082E190E026ED32E0B7
:101AB00004C080E090E020E030E0FA013183208330
:101AC000089580E189BD82E189BD09B400FEFDCFA2
:101AD0008091D8008F7D8093D8008091E000826053
:101AE0008093E0008091E00081FDFCCF0895982F65
:101AF000973058F59093E900981739F07091EC0001
:101B00002091ED005091F00003C0242F762F50E07B
:101B100021FF19C03091EB003E7F3093EB003091F4
:101B2000ED003D7F3093ED003091EB00316030935C
:101B3000EB007093EC002093ED005093F0002091A7
:101B4000EE0027FF07C09F5FD3CF8F708093E9001F
:101B500081E0089580E008958091DE0187FD05C051
:101B60008091E80080FF0EC012C08091E80082FDE5
:101B700005C08091DD018111F8CF08958091E800C2
:101B80008B7708C08091DD018111EACF08958091A3
:101B9000E8008E778093E80008958091E4009091AA
:101BA000E50045E62091EC0020FF21C02091E800EF
:101BB00020FD21C02091DD01222389F0253089F00C
:101BC0002091EB0025FD0FC02091E4003091E5004D
:101BD0002817390739F3415041F0C901E3CF82E0BA
:101BE000089583E0089581E0089584E008952091A8
:101BF000E80022FFDFCF80E008950E94660E0E9479
:101C00006E0EE0EEF0E0808181608083E8EDF0E030
:101C100080818F77808319BCA7EDB0E08C918E7F97
:101C20008C9380818F7E80831092DC0108950F93C6
:101C30001F93CF93DF930E94660E0E946E0EC8ED35
:101C4000D0E088818F7788838881806888838881C5
:101C50008F7D888319BC1092DD011092D9011092FA
:101C6000DB011092DA0100EE10E0F80180818B7F39
:101C7000808388818160888342E060E080E00E9408
:101C8000770DE1EEF0E080818E7F8083E2EEF0E080
:101C9000808181608083808188608083F801808179
:101CA0008E7F8083888180618883DF91CF911F91AF
:101CB0000F910895E7EDF0E080818160808384E0FA
:101CC00082BF81E08093DC010C94170EE8EDF0E018
:101CD00080818E7F80831092E20008951092DA0056
:101CE0001092E10008951F920F920FB60F921124E7
:101CF0002F933F934F935F936F937F938F939F9314
:101D0000AF93BF93EF93FF938091E10082FF0BC0ED
:101D10008091E20082FF07C08091E1008B7F809379
:101D2000E1000E94BC0B8091DA0080FF1FC080910F
:101D3000D80080FF1BC08091DA008E7F8093DA008C
:101D40008091D90080FF0DC080E189BD82E189BD0D
:101D500009B400FEFDCF81E08093DD010E94930B6A
:101D600005C019BC1092DD010E94A50B8091E10015
:101D700080FF19C08091E20080FF15C08091E200D1
:101D80008E7F8093E2008091E20080618093E20088
:101D90008091D80080628093D80019BC85E0809340
:101DA000DD010E94B00B8091E10084FF2EC0809184
:101DB000E20084FF2AC080E189BD82E189BD09B4C7
:101DC00000FEFDCF8091D8008F7D8093D800809158
:101DD000E1008F7E8093E1008091E2008F7E80930E
:101DE000E2008091E20081608093E2008091D9015D
:101DF000811104C08091E30087FF02C084E001C02C
:101E000081E08093DD010E94B60B8091E10083FFA9
:101E100029C08091E20083FF25C08091E100877F87
:101E20008093E10082E08093DD011092D9018091DE
:101E3000E1008E7F8093E1008091E2008E7F8093AD
:101E4000E2008091E20080618093E20042E060E085
:101E500080E00E94770D8091F00088608093F00010
:101E60000E94AC0BFF91EF91BF91AF919F918F9129
:101E70007F916F915F914F913F912F910F900FBE86
:101E80000F901F9018951F920F920FB60F9211246A
:101E90002F933F934F935F936F937F938F939F9372
:101EA000AF93BF93CF93EF93FF93C091E900CF70AF
:101EB0008091EC001092E9008091F000877F809380
:101EC000F00078940E9481101092E9008091F00057
:101ED00088608093F000C093E900FF91EF91CF916B
:101EE000BF91AF919F918F917F916F915F914F9132
:101EF0003F912F910F900FBE0F901F901895CF928A
:101F0000DF92EF92FF920F931F93CF93DF937C01A9
:101F10008B01EA010E94CD0D811131C0209731F073
:101F200088819981081B190BE80EF91EC12CD12C50
:101F30000115110519F18091E80085FD14C080910B
:101F4000E8008E778093E800209741F0888199819E
:101F50008C0D9D1D9983888385E011C00E94CD0D55
:101F6000882331F30CC0F70181917F018093F10048
:101F700001501109FFEFCF1ADF0ADACF80E0DF91BD
:101F8000CF911F910F91FF90EF90DF90CF90089528
:101F90002091E4013091E5012617370748F06115DB
:101FA000710539F42091E8002E772093E80001C0F4
:101FB000B901FC0120E061157105A9F18091DD01F5
:101FC0008823E9F18530E9F18091E80083FD35C08F
:101FD0008091E80082FF06C08091E80082FF26C061
:101FE00080E008958091E80080FFE5CF2091F30024
:101FF0008091F20090E0922B6115710551F08830CC
:10200000910538F421912093F100615071090196F6
:10201000F3CF21E0089709F020E08091E8008E7767
:102020008093E800C8CF2111C9CFD6CF8091DD01C0
:10203000882329F0853081F604C081E0089582E08C
:10204000089583E008952091E4013091E501261779
:10205000370748F06115710539F42091E8002E77B3
:102060002093E80001C0B901FC0120E06115710571
:10207000C1F18091DD01882309F43FC0853009F466
:102080003EC08091E80083FD36C08091E80082FF69
:1020900006C08091E80082FF27C080E0089580910B
:1020A000E80080FFE3CF2091F3008091F20090E000
:1020B000922B6115710559F08830910540F42491F7
:1020C0002093F1003196615071090196F2CF21E021
:1020D000089709F020E08091E8008E778093E8006F
:1020E000C5CF2111C6CFD5CF8091DD01882329F03E
:1020F000853079F604C081E0089582E0089583E098
:1021000008950F931F93CF93DF93CDB7DEB7AA97B0
:102110000FB6F894DEBF0FBECDBFEEEDF1E08091BB
:10212000F100819321E0E63EF207C9F70E94030C1B
:102130008091E80083FF1DC12091DE013091DF0115
:10214000832F90E08A30910508F013C1FC01EA5A10
:10215000FF4F0C94D72C203881F0223809F009C1A8
:102160008091E2018F708093E9008091EB0085FB04
:10217000882780F91092E90006C08091DA019091D9
:10218000DB01911182609091E800977F9093E800C5
:102190008093F1001092F100C6C0822F8D7F09F06C
:1021A000E8C0222319F0223061F0E3C08091E00101
:1021B000813009F0DEC0333009F080E08093DB012C
:1021C00028C08091E001811124C02091E2012F708C
:1021D00009F4CFC02093E9008091EB0080FF19C083
:1021E0008091EB00333011F4806211C080618093E4
:1021F000EB0081E090E0022E01C0880F0A94EAF71C
:102200008093EA001092EA008091EB00886080934E
:10221000EB001092E9008091E800877F87C02111D0
:10222000A8C01091E0011F770FB7F8948091E800E3
:10223000877F8093E8000E94AC0D8091E80080FFCA
:10224000FCCF8091E3008078812B8093E30080684D
:102250008093E300112311F083E001C082E08093BA
:10226000DD010FBF86C02058223008F082C0809167
:10227000E0019091E1018C3D23E0920779F583E044
:102280008A838AE289834FB7F894DE01139620E0AF
:102290003EE051E2E32FF0E050935700E49120FF3D
:1022A00003C0E295EF703F5FEF708E2F90E0EA3051
:1022B00010F0C79601C0C0968D939D932F5F243177
:1022C00049F74FBF8091E800877F8093E8006AE27A
:1022D00070E0CE0101960E94C80F14C0AE014F5F9E
:1022E0005F4F6091E2010E94080D009709F441C020
:1022F0002091E800277F2093E800BC0189819A8122
:102300000E9423108091E8008B778093E80031C011
:10231000203879F58091E800877F8093E8008091EC
:10232000D9018093F1008091E8008E778093E800D6
:102330000E94AC0D1EC021111CC09091E001923092
:10234000C0F48091E800877F8093E8009093D901E2
:102350000E94AC0D8091D901811104C08091E300ED
:1023600087FF02C084E001C081E08093DD010E940C
:10237000EA0B8091E80083FF0AC08091EB00806245
:102380008093EB008091E800877F8093E800AA9615
:102390000FB6F894DEBF0FBECDBFDF91CF911F9176
:1023A0000F91089590936401809363010895809143
:1023B0006301909164010895E0916301F0916401DB
:1023C000309721F00190F081E02D099480E008958C
:1023D000FF920F931F93CF93DF938C01E0916301E2
:1023E000F0916401309799F10280F381E02D099515
:1023F0008091C30182FF2BC080FF04C08BE094E07A
:102400000E941108E80180E1F82E05E014E08091B7
:10241000C30180FF0BC088811F928F931F930F937E
:102420000E94AA080F900F900F900F90FA94219697
:10243000F110EDCF8091C30180FF09C083E094E0EB
:10244000DF91CF911F910F91FF900C941108DF91B4
:10245000CF911F910F91FF900895E0916301F0914A
:102460006401309721F00480F581E02D09940895EE
:1024700020916101309162018217930771F090936E
:10248000620180936101E0916301F09164013097F2
:1024900021F00680F781E02D0994089520915F01D5
:1024A000309160018217930771F0909360018093DF
:1024B0005F01E0916301F0916401309721F00084A5
:1024C000F185E02D099408950E9416200E94D608F7
:1024D0000C94E320CF93C82F8091C30182FF1EC0CC
:1024E00080FF04C084E294E00E9411088091C3013F
:1024F00080FF0CC01F92CF932FE134E03F932F93C6
:102500000E94AA080F900F900F900F908091C30126
:1025100080FF04C08DE194E00E9411088C2FCF91C0
:102520000C94630A5F926F927F928F929F92AF9208
:10253000BF92CF92DF92EF92FF920F931F93CF93B0
:10254000DF93CDB7DEB72A970FB6F894DEBF0FBE84
:10255000CDBF0E94F20896E6C92E91E0D92E00E088
:1025600010E0AA24A394B12C502E802F0E94130AAD
:102570003C01F601E190F1906F01E826F926E114A3
:10258000F104B1F40F5F1F4F0530110569F78FEFAC
:1025900089838A831B820E941F208160782F9D83FC
:1025A0008C8349815A816B818D810E944B133AC083
:1025B0008091C30181FD0E941C0A20E030E04501AA
:1025C000022E02C0880C991C0A94E2F7C4018E21E5
:1025D0009F21892B09F12E835F826820792081E079
:1025E000672809F480E088870E941F208160782F87
:1025F0009A8789874E815F8168858A850E944B13FF
:10260000F801EE0FFF1FEA59FE4F80819181882566
:1026100099259183808306C02F5F3F4F2F3031056E
:1026200071F6B0CF0E945124109165010E94DC1117
:102630001817D9F00E94DC11809365012A960FB615
:10264000F894DEBF0FBECDBFDF91CF911F910F91E8
:10265000FF90EF90DF90CF90BF90AF909F908F90C2
:102660007F906F905F900C946A122A960FB6F89440
:10267000DEBF0FBECDBFDF91CF911F910F91FF90B5
:10268000EF90DF90CF90BF90AF909F908F907F9012
:102690006F905F900895CF93DF93CDB7DEB72B9700
:1026A0000FB6F894DEBF0FBECDBF4F835887698742
:1026B0007A878B87DE01119686E0FD0111928A955B
:1026C000E9F785E0FE01379601900D928A95E1F7D2
:1026D00049815A816B817C818D819E810E947E1A05
:1026E0002B960FB6F894DEBF0FBECDBFDF91CF9112
:1026F0000895CF93C82F882309F4C1C0823859F4B4
:102700000E94DC1181FDBBC089E30E94191D0E945B
:10271000ED1D89E30CC0833879F40E94DC1180FD43
:10272000AEC083E50E94191D0E94ED1D83E50E9445
:10273000661DCF910C94ED1D843859F40E94DC1174
:1027400082FD9DC087E40E94191D0E94ED1D87E453
:10275000EECF8CEF8C0F813A48F48C2F0E94312AF7
:1027600081118DC08C2F0E94191DE3CF80E28C0F48
:10277000883048F4C77081E001C0880FCA95EAF735
:102780000E94B41DD6CF8BE58C0F833078F4C53A08
:1027900029F0C63A31F482E890E005C081E890E083
:1027A00002C083E890E0CF910C94381288E58C0F3A
:1027B000833108F064C0C83A39F1C93A41F1CA3AE4
:1027C00049F1CB3A51F1CC3A59F1CD3A61F1C03BE4
:1027D00069F1CE3A71F1CF3A79F1C13B81F1C23B57
:1027E00089F1C33B91F1C43B99F1C53BA1F1C63BD3
:1027F000A9F1C73BB1F1C83BB9F1C93BC1F1CA3B33
:10280000C9F58AE292E038C082EE90E035C089EEE8
:1028100090E032C08AEE90E02FC085EB90E02CC0B3
:1028200086EB90E029C087EB90E026C08CEC90E02E
:1028300023C08DEC90E020C083E891E01DC08AE8C1
:1028400091E01AC082E991E017C084E991E014C0D8
:1028500081E292E011C083E292E00EC084E292E055
:102860000BC085E292E008C086E292E005C087E2F4
:1028700092E002C080E090E0CF910C944E12CF9194
:102880000895882309F44BC0823859F40E94DC1162
:1028900081FF45C089E30E94191D0E94ED1D89E357
:1028A0000CC0833871F40E94DC1180FF38C083E5CE
:1028B0000E94191D0E94ED1D83E50E94661D0C9467
:1028C000ED1D843859F40E94DC1182FF28C087E492
:1028D0000E94191D0E94ED1D87E4EFCF9CEF980F19
:1028E000913A58F390E2980F983050F4877091E045
:1028F00001C0990F8A95EAF7892F0E94BA1DDFCF90
:102900009BE5980F933020F480E090E00C9438120F
:10291000885A833120F480E090E00C944E120895A0
:10292000882321F00E94B41D0C94ED1D0895882386
:1029300021F00E94BA1D0C94ED1D0895CF92DF92F4
:10294000EF92FF920F931F93CF93DF93CDB7DEB734
:1029500028970FB6F894DEBF0FBECDBF8C0185E07F
:10296000F801DE01119601900D928A95E1F7F801C8
:1029700040813181F280258122952F70838194815D
:10298000892B31F03F3F31F481E04F3F19F403C010
:1029900081E001C080E080FDC8C249833A8389811B
:1029A0009A812F830E94D71C9E8388870E94D61C01
:1029B0000E94A91B4E81E42FE295EF70F0E0E05AEF
:1029C000FF4F2F8168850C94D72C842F807F142F84
:1029D0001F70882311F01295107FFF2059F01123EA
:1029E00009F458C2812F68870E94C41D0E94ED1D02
:1029F000688550C2862F0E944114112309F495C2A4
:102A0000812F0E94CA1D28960FB6F894DEBF0FBE14
:102A1000CDBFDF91CF911F910F91FF90EF90DF908D
:102A2000CF900C94ED1D342F307F842F8F70303277
:102A300011F08295807F662319F0613009F12AC078
:102A4000FF20A1F0222381F1213071F528960FB6E5
:102A5000F894DEBF0FBECDBFDF91CF911F910F91D4
:102A6000FF90EF90DF90CF900C94D41D222319F0AB
:102A7000213009F45AC28E830E94D71D8E818EC1E7
:102A8000FF2021F0263008F050C20EC0253008F09B
:102A90004CC284C1FF20C1F0222331F0F80195819E
:102AA00090FFF8C19F70958328960FB6F894DEBF0B
:102AB0000FBECDBFDF91CF911F910F91FF90EF908F
:102AC000DF90CF900C949014222309F467C1F6C1D3
:102AD000242F26952695237030E02115310521F00D
:102AE00021303105C9F021C2FF2021F0862F942F1B
:102AF000937002C080E090E028960FB6F894DEBF95
:102B00000FBECDBFDF91CF911F910F91FF90EF903E
:102B1000DF90CF900C943812FF2021F0862F942F55
:102B2000937002C080E090E028960FB6F894DEBF64
:102B30000FBECDBFDF91CF911F910F91FF90EF900E
:102B4000DF90CF900C944E12862FFF2019F00E9438
:102B5000D72202C00E943F2328960FB6F894DEBF0A
:102B60000FBECDBFDF91CF911F910F91FF90EF90DE
:102B7000DF90CF900C94C423842F837009F076C02B
:102B8000F110D3C1262F229526952770220F220FF0
:102B9000862F8F70C82ED12CE12CF12C022E04C070
:102BA000CC0CDD1CEE1CFF1C0A94D2F764FF10C095
:102BB0006FE070E080E090E004C0660F771F881F30
:102BC000991F2A95D2F7609570958095909503C0CE
:102BD00060E070E0CB01242F269526952370422FCC
:102BE00050E042305105D1F04330510559F16C2984
:102BF0007D298E299F294130510541F128960FB634
:102C0000F894DEBF0FBECDBFDF91CF911F910F9122
:102C1000FF90EF90DF90CF900C94CE1B6C297D2914
:102C20008E299F2928960FB6F894DEBF0FBECDBF20
:102C3000DF91CF911F910F91FF90EF90DF90CF9098
:102C40000C94E81B0E94CE1BC701B60128960FB654
:102C5000F894DEBF0FBECDBFDF91CF911F910F91D2
:102C6000FF90EF90DF90CF900C94B41BFF2019F0F1
:102C7000842F817001C08695882309F456C1262FC0
:102C8000229526952770220F220F862F8F70C82E2F
:102C9000D12CE12CF12C022E04C0CC0CDD1CEE1C3E
:102CA000FF1C0A94D2F764FF10C06FE070E080E070
:102CB00090E004C0660F771F881F991F2A95D2F7EE
:102CC000609570958095909503C060E070E0CB01B1
:102CD000242F269526952370422F50E0423051052F
:102CE000D1F04330510559F16C297D298E299F2956
:102CF0004130510541F128960FB6F894DEBF0FBE62
:102D0000CDBFDF91CF911F910F91FF90EF90DF909A
:102D1000CF900C94A21C6C297D298E299F2928967E
:102D20000FB6F894DEBF0FBECDBFDF91CF911F91DC
:102D30000F91FF90EF90DF90CF900C94BC1C0E94FD
:102D4000A21CC701B60128960FB6F894DEBF0FBECD
:102D5000CDBFDF91CF911F910F91FF90EF90DF904A
:102D6000CF900C94881C603F49F118F4603E48F401
:102D70008CC0623F09F451C0E0F1633F09F461C0C7
:102D800084C0162F1F70842F8F71FF2021F00E94A6
:102D9000211C812F89CE0E94421C812F28960FB6BC
:102DA000F894DEBF0FBECDBFDF91CF911F910F9181
:102DB000FF90EF90DF90CF900C949714FF20A9F034
:102DC000253008F0B2C0842F8F7128960FB6F89482
:102DD000DEBF0FBECDBFDF91CF911F910F91FF904E
:102DE000EF90DF90CF900C94671C263008F09DC0C8
:102DF000EACFFF20A1F0842F8F7128960FB6F894A8
:102E0000DEBF0FBECDBFDF91CF911F910F91FF901D
:102E1000EF90DF90CF900C94211CFF2061F3842F62
:102E20008F7128960FB6F894DEBF0FBECDBFDF912D
:102E3000CF911F910F91FF90EF90DF90CF900C9466
:102E4000421CFF2091F0842F8F7128960FB6F894C2
:102E5000DEBF0FBECDBFDF91CF911F910F91FF90CD
:102E6000EF90DF90CF900C940C1C28960FB6F8943E
:102E7000DEBF0FBECDBFDF91CF911F910F91FF90AD
:102E8000EF90DF90CF900C94021CFF20A1F0222342
:102E900009F4B1CF862F28960FB6F894DEBF0FBE87
:102EA000CDBFDF91CF911F910F91FF90EF90DF90F9
:102EB000CF900C947913222309F4B1CF862F289652
:102EC0000FB6F894DEBF0FBECDBFDF91CF911F913B
:102ED0000F91FF90EF90DF90CF900C9441144F70C2
:102EE000C8010E94281F28960FB6F894DEBF0FBEB7
:102EF000CDBFDF91CF911F910F91FF90EF90DF90A9
:102F0000CF900C942B1B4F70C80128960FB6F894E5
:102F1000DEBF0FBECDBFDF91CF911F910F91FF900C
:102F2000EF90DF90CF900C942B1F28960FB6F8945B
:102F3000DEBF0FBECDBFDF91CF911F910F91FF90EC
:102F4000EF90DF90CF9008950E94D11D0E94A61DA2
:102F50000E94ED1D0E94F2240E94C42380E090E0B4
:102F60000E94381280E090E00C944E120E94C11D25
:102F70000C94A4170E94D71C292F22952F7030E0A3
:102F80002C3031054CF42A3031056CF422503109D3
:102F90002230310570F407C02C30310531F02F306C
:102FA000310519F006C081E0089593FB882780F968
:102FB000089580E00895CF93DF9300D000D01F9252
:102FC000CDB7DEB70F900F900F900F900F90DF915D
:102FD000CF910895CF93DF9300D000D000D0CDB72C
:102FE000DEB726960FB6F894DEBF0FBECDBFDF91D9
:102FF000CF9108951F93CF93DF93C091700116E096
:1030000080917101C81799F0D0E01C9FF0011D9FBD
:10301000F00D1124EE58FE4F408151816281738181
:10302000848195810E94EA172196C770E9CFDF91CC
:10303000CF911F9108954091A2015091A3016091F9
:10304000A4017091A5018091A6019091A7010C9413
:10305000EA17CF938091A70182958F7009F05FC026
:103060008091A401882309F45AC020917001A09195
:1030700071016091A2017091A3018091A5019091CD
:10308000A60131E06F3F09F030E0B32FC6E02A1708
:1030900009F445C0009721F07F3F21F44B2F03C076
:1030A00041E001C040E030E040FD35C0C29FF0018A
:1030B000C39FF00D1124EE58FE4F418174132BC0B5
:1030C0004081641328C04281411125C0438154814D
:1030D0004817590710F441505109481B590B483CF7
:1030E0005105C8F48091A7018F7080618093A7017A
:1030F00086E0829FF001839FF00D1124E958FE4F76
:1031000080818F708061808382EA91E00E949E14AA
:10311000CF910C94FA172F5F3F4F2770B8CFCF9104
:103120000895CF92DF92EF92FF920F931F93CF9368
:10313000DF93CDB7DEB762970FB6F894DEBF0FBE50
:10314000CDBF8C0185E0F801DE011D9601900D9246
:103150008A95E1F7D8014C9111965C9111971296DE
:103160006C9112971396ED90FC9014977091A201B8
:10317000E091A3012091A5013091A601211531050F
:1031800031F0EF3F31F481E07F3F19F403C081E07B
:1031900001C080E0B82FB170CB2E80FD6CC1D09003
:1031A000A401DD2009F4F5C0F091A701E216F306B1
:1031B00038F0C701821B930B883C910548F09BC0F7
:1031C000209530952E0D3F1D283C310508F093C009
:1031D0008F2F807F09F052C0E51314C0741312C002
:1031E000D62E61110FC0FF70F061F093A7010E940D
:1031F0001B1882EA91E00E949E148091A701F801B9
:1032000085836CC1EF2831F05F3F31F481E04F3F9F
:1032100019F403C081E001C080E080FD03C081E0BB
:10322000862701C080E0F82FF170FF2E80FF1CC0C0
:10323000809170012091710136E0821709F428C154
:1032400090E0389FF001399FF00D1124EE58FE4FA9
:103250007181571306C07081471303C072816713D1
:1032600003C001968770E9CFD62E662309F436C1D4
:103270008091A70181608093A70153C0E51308C026
:10328000741306C0611104C0D8011596FC93AEC03A
:103290004D875E878D859E856A8B0E94BA176A89E5
:1032A000882329F1D62E662311F12091A701822FC0
:1032B00082958F7090E002970CF460C08091A2011B
:1032C0009091A30198878F831986FB86EA862C87C5
:1032D000CE01079651C0E51731F14D875E878D8588
:1032E0009E856A8B0E94BA176A8981112EC0C80117
:1032F0000E949E14A4C08F2F807F69F77E2DF98ACB
:10330000E88A89890E94DB1782EA91E00E949E1474
:10331000E2EAF1E086E0DF011D928A95E9F70E947A
:103320001B18D12CDBC07413D8CF6111D6CFD801B4
:103330001596FC93C8010E949E14E2EAF1E086E033
:10334000DF011D928A95E9F7C9C0D62E662379F26E
:103350002091A701822F82958F7090E0029774F0E0
:103360008091A2019091A3019A8389831B82FD829F
:10337000EC822E83CE0101960E949E1486E0F80115
:10338000A2EAB1E001900D928A95E1F70E94291816
:103390006FC0E216F30628F0C701821B930B9C0155
:1033A00004C0209530952E0D3F1D283C310508F0B6
:1033B00052C0D62E662309F49ACFE5132CC074139D
:1033C0002AC08091A70180FD1DC0982F92959F7003
:1033D000C9F0D80115968C9315979F3039F09F5FEF
:1033E0009295907F8F70892B15968C93C8010E94BF
:1033F0009E1486E0F801A2EAB1E001900D928A9550
:10340000E1F736C086E0F801A2EAB1E001900D9242
:103410008A95E1F763C04D875E878D859E850E9402
:10342000BA17882379F086E0F801A2EAB1E00190AA
:103430000D928A95E1F70E9429180E941B18DD243D
:10344000D3944CC08091A70181608093A701C801EB
:103450000E949E1443C07E2DF98AE88A89890E94C1
:10346000DB17E2EAF1E086E0DF011D928A95E9F7D9
:103470000E941B1833C0662309F439CF4D875E873D
:103480008D859E850E94BA17882309F430CFCBCF53
:103490004D875E878D859E850E94D71C292F22959A
:1034A0002F7030E0223031052CF49F7041F08111F3
:1034B00006C00CC0243031052CF49F7049F4805EA6
:1034C000883020F0C8010E949E14CF2CDC2C06C04E
:1034D000D80115969C91907F91F7F8CF8D2D62962B
:1034E0000FB6F894DEBF0FBECDBFDF91CF911F9115
:1034F0000F91FF90EF90DF90CF9008951F93CF939F
:10350000DF93CDB7DEB72C970FB6F894DEBF0FBEB2
:10351000CDBF4F83588769877A878B879C87CE0179
:1035200007960E9491188823C1F02F8138858A85DB
:103530009B85892B31F03F3F11F080E003C02F3F86
:10354000E1F781E0811147C04F81588569857A850F
:103550008B859C850E94EA173EC086E0FE01379667
:10356000DE01119601900D928A95E1F7FF81E885C1
:103570004A855B854115510531F0EF3F31F481E01B
:10358000FF3F19F403C081E001C080E080FD23C04B
:103590002091710130E0C9010196877099276091EF
:1035A000700170E086179707F1F1F983EA835D8374
:1035B0004C8396E0929FD001939FB00D1124AE589A
:1035C000BE4FFE01319601900D929A95E1F78093DE
:1035D00071010E94FA1716E08091700190917101BB
:1035E000891779F1189FC00111248E589E4F0E94AF
:1035F0009118882331F1E09170011E9FF001112490
:10360000EE58FE4F408151816281738184819581A2
:103610000E94EA178091700190E0019687709927C7
:1036200080937001D9CF0E94B61710927101109249
:103630007001E2EAF1E086E0DF011D928A95E9F788
:10364000CACF2C960FB6F894DEBF0FBECDBFDF9168
:10365000CF911F910895EF92FF920F931F93CF93F5
:10366000DF93FC01009709F46DC0F12CEE24E39484
:10367000EF0121968491843740F4843008F053C0E0
:10368000813081F0823021F15DC0853709F445C079
:10369000B0F19CE7980F903708F054C08F770E94E4
:1036A000411443C08F010E5F1F4FFE01849190E2D1
:1036B000980F983050F48770FE2D01C0FF0F8A9547
:1036C000EAF78F2F0E94C41D15C00E94791312C003
:1036D0008F010E5F1F4FFE01849190E2980F98308A
:1036E00058F48770FE2D01C0FF0F8A95EAF78F2FDF
:1036F0000E94CA1DE80119C00E944114FBCFCF01EE
:103700000296FE01C491CC2361F0EFE9FFE031970E
:10371000F1F700C00000C150F6CFCF010296FE01C4
:10372000F490EC0102C00E9479138F2D882341F0A0
:10373000EFE9FFE03197F1F700C000008150F6CFCC
:10374000FE0196CFDF91CF911F910F91FF90EF90E7
:10375000089508956093AC017093AD018093AE011C
:103760009093AF010C94A4170F931F930091AC0199
:103770001091AD012091AE013091AF01062B172BB6
:10378000282B392B0093AC011093AD012093AE018F
:103790003093AF011F910F910C94A4170F931F93B7
:1037A0000091AC011091AD012091AE013091AF01BB
:1037B00006231723282339230093AC011093AD016E
:1037C0002093AE013093AF011F910F910C94A41779
:1037D0000F931F930091AC011091AD012091AE01A8
:1037E0003091AF0106271727282739270093AC010E
:1037F0001093AD012093AE013093AF011F910F9153
:103800000C94A4171092A8011092A9011092AA0179
:103810001092AB010C94A41741E050E060E070E01E
:1038200004C0440F551F661F771F8A95D2F7409337
:10383000A8015093A9016093AA017093AB010C9465
:10384000A41741E050E060E070E004C0440F551F51
:10385000661F771F8A95D2F78091A8019091A901E0
:10386000A091AA01B091AB01842B952BA62BB72B6D
:103870008093A8019093A901A093AA01B093AB01F2
:103880000C94A41741E050E060E070E004C0440FE5
:10389000551F661F771F8A95D2F740955095609502
:1038A00070958091A8019091A901A091AA01B09171
:1038B000AB0184239523A623B7238093A80190937B
:1038C000A901A093AA01B093AB010C94A41741E005
:1038D00050E060E070E004C0440F551F661F771F82
:1038E0008A95D2F78091A8019091A901A091AA018F
:1038F000B091AB0184279527A627B7278093A8010D
:103900009093A901A093AA01B093AB010C94A417C2
:103910000F931F930091A8011091A9012091AA0172
:103920003091AB01062B172B282B392B0093A801C4
:103930001093A9012093AA013093AB011F910F911D
:103940000C94A4170F931F930091A8011091A90143
:103950002091AA013091AB01062317232823392394
:103960000093A8011093A9012093AA013093AB0101
:103970001F910F910C94A4170F931F930091A8010E
:103980001091A9012091AA013091AB0106271727B8
:10399000282739270093A8011093A9012093AA0191
:1039A0003093AB011F910F910C94A4170895CF92FF
:1039B000DF92EF92FF920F931F93CF93DF93EC016F
:1039C000C090AC01D090AD01E090AE01F090AF019D
:1039D0008091A8019091A901A091AA01B091AB0199
:1039E000C82AD92AEA2AFB2A0FE110E0B701A6016A
:1039F000002E04C076956795579547950A94D2F79F
:103A000040FF07C0BE01802F0E94B51E8130910586
:103A100039F40150110950F7BE0180E00E94B51E33
:103A2000DF91CF911F910F91FF90EF90DF90CF909A
:103A3000089590910C01992341F1982F96959695B0
:103A400096959F3088F4E0910D01F0910E01E90FF9
:103A5000F11D877021E030E001C0220F8A95EAF75E
:103A60008181822B818308959091C30190FF2DC0A5
:103A70001F928F9385E594E09F938F930E94AA08ED
:103A80000F900F900F900F90089540910D0150915D
:103A90000E0120E030E09FEFFA01E20FF31F628198
:103AA000681799F09F3F19F4611101C0922F2F5FA1
:103AB0003F4F2E30310581F79F3F39F0FA01E90F72
:103AC000F11D97FDFA9582830895089590910C0158
:103AD000992349F1982F9695969596959F3090F455
:103AE000E0910D01F0910E01E90FF11D877021E0C9
:103AF00030E001C0220F8A95EAF7209581812823C2
:103B0000218308959091C30190FF1FC01F928F934E
:103B100087E394E09F938F930E94AA080F900F90E1
:103B20000F900F90089540910D0150910E0120E0EB
:103B300030E0FA01E20FF31F9281981301C0128264
:103B40002F5F3F4F2E303105A1F7089581E090E0BF
:103B5000E0910D01F0910E01E80FF91F108201961E
:103B600080319105A9F708959091C201982B909307
:103B7000C201089580959091C20198239093C2014B
:103B800008951092C20108959091C101982B9093CD
:103B9000C101089580959091C10198239093C1012E
:103BA00008951092C10108958093B0010895109274
:103BB000B001089540910D0150910E0120E030E0D8
:103BC00080E0FA01E20FF31F918191118F5F2F5F67
:103BD0003F4F2F303105A9F70895E0910D01F09185
:103BE0000E018091C2018083E0910D01F0910E01E0
:103BF00080819091C101892B80839091B00199239C
:103C000061F0E0910D01F0910E018081892B80839C
:103C10000E94DA1D81111092B00180910D019091E6
:103C20000E010C94E8118B3B60F4883A00F5853A5C
:103C3000A8F4843088F4813009F055C081E090E028
:103C40000895803E08F44FC0883E30F0803F08F46D
:103C50004AC090E09065089590E00895853A09F48F
:103C600045C0863A09F045C082E890E40895883A54
:103C700009F442C0893A09F442C08A3A09F442C0C0
:103C80008B3A09F442C08C3A09F442C08D3A09F4E7
:103C900042C0803B09F442C08E3A09F442C08F3AD8
:103CA00009F442C0813B09F442C0823B09F442C09E
:103CB000833B09F442C0843B09F442C0853B09F4CC
:103CC00042C0863B09F442C0873B09F442C0883BAE
:103CD00009F442C0893B09F442C08A3B09F042C062
:103CE0008AE296E4089580E090E0089581E890E407
:103CF000089583E890E4089582EE94E4089589EEAF
:103D000094E408958AEE94E4089585EB94E408958C
:103D100086EB94E4089587EB94E408958CEC94E4A6
:103D200008958DEC94E4089583E895E408958AE875
:103D300095E4089582E995E4089584E995E4089569
:103D400081E296E4089583E296E4089584E296E49D
:103D5000089585E296E4089586E296E4089587E260
:103D600096E4089580E094E408950E94B508803EAA
:103D7000A8F4803C00F5813309F45CC038F4893242
:103D800009F452C08A3209F45BC05FC08933B1F0D4
:103D90008238A1F0853309F441C057C0833E41F118
:103DA00028F4803E99F0823EB9F04FC0863E31F152
:103DB000873E71F14AC00E94C40808959091D801CD
:103DC00090FD02C091FF41C080EE3FC08091D801BC
:103DD00080FFFACF89E339C08091D80182FF0CC0FF
:103DE0008091D80184FF02C080E02FC083EE2DC0F7
:103DF0008091D80182FFF4CF82EE27C08091D80154
:103E000083FF0AC08091D80184FDEECF87EE1DC0EC
:103E10008091D80183FFF6CF86EE17C08091D8013C
:103E200085FF06C089E211C08091D80185FFFACFD5
:103E300085E30BC08091D80186FF06C08AE205C0E9
:103E40008091D80186FFFACF81E30E94131E089566
:103E500080E090E0089508959093C6018093C50195
:103E60000895CF92DF92EF92FF920F931F936C0110
:103E7000EE24FF24C114D104E104F10421F46B0108
:103E80007C0180E001C080E133272F2D1E2D0D2DF8
:103E9000011511052105310519F0885F68017901C7
:103EA00097018601A4E03695279517950795AA9561
:103EB000D1F7011511052105310519F08C5F680155
:103EC000790197018601F2E03695279517950795B8
:103ED000FA95D1F7011511052105310519F08E5F0D
:103EE00068017901B701A6017695679557954795C1
:103EF000452B462B472B09F08F5F1F910F91FF90A9
:103F0000EF90DF90CF9008958295982F9C7C9695A6
:103F10009695837344E0849F90011124922B892FFE
:103F20008A7A86959575990F892B08951F93CF935B
:103F3000DF931F92CDB7DEB799830E94841F182F9D
:103F40009981892F0E94841F212F30E0322F222750
:103F5000A901482BCA010F90DF91CF911F910895BD
:103F60008091DD01843009F11092C40120E488E1E0
:103F700090E00FB6F894A895809360000FBE209350
:103F8000600083B7817F846083BF83B7816083BF14
:103F90007894889583B78E7F83BF88E10FB6F894B5
:103FA00080936000109260000FBE0895CF930E942E
:103FB000B3080E94F2080E94B408C0E08C2F0E944F
:103FC000130A892B29F4CF5FC530C1F780E001C007
:103FD00081E0CF9108950C94B6171F920F920FB6FF
:103FE0000F9211248F939F93AF93BF938091C4013D
:103FF000811113C08091C7019091C801A091C9019E
:10400000B091CA014196A11DB11D8093C701909343
:10401000C801A093C901B093CA01BF91AF919F910C
:104020008F910F900FBE0F901F90189582E084BD66
:1040300093E095BD9AEF97BD80936E0008952FB7DA
:10404000F8948091C7019091C801A091C901B091E5
:10405000CA012FBF0895CF92DF92EF92FF920F9384
:104060001F932FB7F8944091C7015091C8016091F8
:10407000C9017091CA012FBF6A017B01EE24FF24A0
:104080008C0120E030E0C016D106E206F30610F401
:1040900041505109481B590BCA011F910F91FF90C4
:1040A000EF90DF90CF9008951F920F920FB60F926E
:1040B00011248F939F93AF93BF938091C7019091E9
:1040C000C801A091C901B091CA010196A11DB11DFD
:1040D0008093C7019093C801A093C901B093CA010E
:1040E000BF91AF919F918F910F900FBE0F901F9036
:1040F00018950E94FD0DF8942FEF87EA91E6215064
:1041000080409040E1F700C0000087E090EBDC01C8
:104110008093E6019093E701A093E801B093E90151
:104120002CE088E190E00FB6F894A89580936000A9
:104130000FBE20936000FFCFCF92DF92EF92FF92ED
:104140000F931F93CF93DF93C82ED12C01E010E083
:104150008D2D0E94130A7C01C0E0D0E098010C2E46
:1041600002C0220F331F0A94E2F72E213F21232B96
:1041700029F42196CF30D10589F709C06C2F7D2D08
:1041800080E00E94B508C812F4CF81E005C0D39446
:1041900085E0D812DDCF80E0DF91CF911F910F91A4
:1041A000FF90EF90DF90CF900895CF93C82F8CE2CF
:1041B0000E949C20882321F08C2FCF910C949C206E
:1041C00080E0CF910895CF930E943022811102C0E8
:1041D0000E9416228AE794E00E941108C5E6C150A9
:1041E00049F00E94F2088FE39CE90197F1F700C0C3
:1041F0000000F5CF83E794E00E94110889E20E9455
:10420000D520811111C18AE20E94D52081110E941E
:10421000162285E00E94D52081110E9479200E94FB
:104220003B228093C30187E00E94D520882399F127
:104230008BE10E94D520882351F09091C30191FB1E
:10424000882780F921E0822780FB91F922C08EE047
:104250000E94D520882351F09091C30192FB8827BA
:1042600080F921E0822780FB92F913C080E10E944F
:10427000D5209091C301882341F093FB882780F9D2
:1042800021E0822780FB93F904C0892F809580FB71
:1042900090F99093C3018091C3010E943F220E9434
:1042A0004D228093D80180EE0E94D520882341F0D2
:1042B0008091D801982F909590FB80F98093D80138
:1042C00089E30E94D520882359F09091D80191FB71
:1042D000882780F921E0822780FB91F99093D8010B
:1042E00082EE0E94D520882359F09091D80192FB4C
:1042F000882780F921E0822780FB92F99093D801EA
:1043000086EE0E94D520882359F09091D80193FB26
:10431000882780F921E0822780FB93F99093D801C8
:1043200083EE0E94D520882359F09091D80194FB08
:10433000882780F921E0822780FB94F99093D801A7
:1043400085E30E94D520882359F09091D80195FBF0
:10435000882780F921E0822780FB95F99093D80186
:1043600081E30E94D520882359F09091D80196FBD3
:10437000882780F921E0822780FB96F99093D80165
:1043800081E10E94D520882359F09091D80197FBB4
:10439000882780F921E0822780FB97F99093D80144
:1043A0008091D8010E9451228091D80187FB8827F3
:1043B00080F980930C0187E20E94D520C82F8EE1FE
:1043C0000E94D5208111C2608FE10E94D520811109
:1043D000C46080E20E94D5208111C86081E20E9401
:1043E000D5208111C06182E20E94D5208111C06276
:1043F00083E20E94D5208111C06484E20E94D5200E
:10440000882311F0C06802C0CC2329F08C2F0E94B1
:1044100048226C2F03C00E944422682F70E080E085
:1044200090E0CF910C94AA1BCF9108956DEE7EEF92
:1044300080E090E00E940D2D60E082E090E00E941C
:10444000FF2C60E083E090E00E94FF2C60E084E0BD
:1044500090E00E94FF2C60E085E090E00C94FF2C3F
:1044600080E090E00E94F92C21E08D3E9E4F09F003
:1044700020E0822F089582E090E00C94F12C682FC8
:1044800082E090E00C94FF2C83E090E00C94F12CFF
:10449000682F83E090E00C94FF2C84E090E00C9473
:1044A000F12C682F84E090E00C94FF2C8091CD01DA
:1044B00080FF0BC06091120185E0689FB00111245C
:1044C00075956795759567952AC081FF09C06091BC
:1044D000120185E0689FB0011124759567951FC092
:1044E00082FF07C06091120185E0689FB00111242E
:1044F00016C04091CE014423C9F0609111014617C6
:1045000088F72091120185E0289F90011124429F95
:10451000C001439F900D112470E00E94C32C6038AD
:10452000710540F46115710539F002C065E070E075
:10453000862F08958FE7089581E008958091CD0139
:1045400080FF08C06091100170E0759567957595C2
:10455000679521C081FF06C06091100170E07595DC
:10456000679519C082FF04C06091100170E010C00F
:104570008091CE018823C1F060910F018617A0F7CA
:1045800090911001989FC001112470E00E94C32CEB
:104590006038710528F46115710521F0862F0895A2
:1045A0008FE7089581E0089561E070E0F4CF803FE7
:1045B00021F40E945622819504C0813F29F40E9473
:1045C00056228093D1010895823F21F40E94562201
:1045D000819504C0833F29F40E9456228093D00124
:1045E0000895893F19F40E949E2205C08A3F31F444
:1045F0000E949E2281958093D20108958B3F21F4E1
:104600000E949E22819504C08C3F29F40E949E2224
:104610008093D3010895843F21F48091CF0181607C
:1046200017C0853F21F48091CF01826011C0863F81
:1046300021F48091CF0184600BC0873F21F48091E9
:10464000CF01886005C0883F31F48091CF0180613F
:104650008093CF0108958D3F21F48091CD01816039
:104660000BC08E3F21F48091CD01826005C08F3F49
:1046700029F48091CD0184608093CD010895803F1D
:1046800039F48091D10187FF6CC01092D10169C0CB
:10469000813F29F48091D1011816BCF362C090913A
:1046A000D001823F29F497FF5CC01092D00159C01D
:1046B000833F19F41916CCF354C0893F41F480911B
:1046C000D20118160CF04DC01092D2014AC08A3F98
:1046D00029F48091D20187FF44C0F6CF8B3F39F493
:1046E0008091D30187FF3DC01092D3013AC08C3F27
:1046F00029F48091D3011816BCF333C0843F21F410
:104700008091CF018E7F17C0853F21F48091CF012A
:104710008D7F11C0863F21F48091CF018B7F0BC02C
:10472000873F21F48091CF01877F05C0883F31F416
:104730008091CF018F7E8093CF0113C08D3F21F4F4
:104740008091CD018E7F0BC08E3F21F48091CD01F1
:104750008D7F05C08F3F29F48091CD018B7F8093A1
:10476000CD018091D00181110EC08091D1018111C4
:104770000AC08091D201811106C08091D3018111BC
:1047800002C01092CE0108958091C30183FF7EC0C4
:1047900086EB94E00E9411088091CF011F928F93C5
:1047A00081EB94E09F938F930E94AA088FEA94E094
:1047B0000E9411082091D001822F992787FD9095A2
:1047C0009F932F938CEA94E09F938F930E94AA0863
:1047D0008AEA94E00E9411082091D101822F992742
:1047E00087FD90959F932F9387EA94E09F938F93F3
:1047F0000E94AA0885EA94E00E9411082091D20143
:10480000822F992787FD90959F932F9382EA94E0BA
:104810009F938F930E94AA0880EA94E00E94110857
:104820002091D301822F992787FD90959F932F93F5
:104830008DE994E09F938F930E94AA088AE994E0FF
:104840000E9411088091CE011F928F9387E994E016
:104850009F938F930E94AA0885E994E00E94110813
:104860008091CD011F928F9382E994E09F938F9363
:104870000E94AA088FE894E00E9411088DB79EB7A5
:104880004C960FB6F8949EBF0FBE8DBF8FEC91E093
:104890000E942D120E941F209093CC018093CB0187
:1048A00008951F93CF93DF938091CB019091CC011A
:1048B0000E942B204091CE01442321F0209113012E
:1048C00030E006C0209114015AE0259F9001112488
:1048D0008217930708F482C08091D0011091D10112
:1048E000D091D201C091D301811107C0111105C02F
:1048F000D11103C0CC2309F471C04F3F19F04F5FB1
:104900004093CE01181624F40E9456228093D001C1
:104910008091D00187FF05C00E9456228195809327
:10492000D001111624F40E9456228093D101809167
:10493000D10187FF05C00E94562281958093D10145
:104940006091D001662339F11091D101112319F141
:10495000772767FD7095872F972F0E94D42B23E32D
:1049600033E343E35FE30E94382C0E94A12B609362
:10497000D001612F772767FD7095872F972F0E94B1
:10498000D42B23E333E343E35FE30E94382C0E94FC
:10499000A12B6093D1011D1624F40E949E228093C6
:1049A000D2018091D20187FF05C00E949E2281958D
:1049B0008093D2011C1624F40E949E228093D3017E
:1049C0008091D30187FF05C00E949E22819580932C
:1049D000D301DF91CF911F910C94C423DF91CF912C
:1049E0001F910895EFECF1E085E0DF011D928A95BB
:1049F000E9F71092CE011092CD01089585E899E073
:104A00000E94110888E799E00E9411088BE699E05E
:104A10000C94110888EE98E00E9411088BED98E044
:104A20000E94110880EC98E00E94110885EA98E045
:104A30000E9411088DE898E00E94110883E798E031
:104A40000E94110885E598E00E94110885E398E02E
:104A50000E94110880E298E00E94110889E098E025
:104A60000E9411088CEE97E00E9411088DEC97E0EF
:104A70000E9411088DEA97E00E9411088BE897E0E8
:104A80000E94110886E597E00E94110881E497E0F2
:104A90000E9411081F9285E08F938EE397E09F9309
:104AA0008F930E94AA0885E397E00E9411081F9245
:104AB00081E08F9382E397E09F938F930E94AA08EF
:104AC00080E397E00E9411088DB79EB708960FB655
:104AD000F8949EBF0FBE8DBF83E097E00C94110841
:104AE000833009F459C028F4813061F0823079F1C3
:104AF0000895853009F49AC008F473C0863009F42B
:104B0000BAC0089520911401862F90E0820F911D64
:104B10008F3F910520F4620F6093140103C08FEF63
:104B2000809314018FED95E00E941108809114018B
:104B30001F928F938CED95E09F938F930E94AA080C
:104B40000F900F900F900F908AED95E0B8C02091D4
:104B50001301862F90E0820F911D8F3F910520F465
:104B6000620F6093130103C08FEF809313018BECEE
:104B700095E00E941108809113011F928F9388EC99
:104B800095E09F938F930E94AA080F900F900F902B
:104B90000F9086EC95E093C020911201862F90E053
:104BA000820F911D8F3F910520F4620F60931201D7
:104BB00003C08FEF8093120186EB95E00E941108ED
:104BC000809112011F928F9383EB95E09F938F93B7
:104BD0000E94AA080F900F900F900F9081EB95E024
:104BE0006EC020911101862F90E0820F911D8F3FA2
:104BF000910520F4620F6093110103C08FEF809341
:104C000011018FE995E00E941108809111011F9216
:104C10008F938CE995E09F938F930E94AA080F9041
:104C20000F900F900F908AE995E049C020911001F4
:104C3000862F90E0820F911D8F3F910520F4620F27
:104C40006093100103C08FEF8093100184E895E01A
:104C50000E941108809110011F928F9381E895E0C6
:104C60009F938F930E94AA080F900F900F900F9020
:104C70008FE795E024C020910F01862F90E0820FEE
:104C8000911D8F3F910520F4620F60930F0103C0C7
:104C90008FEF80930F0187E695E00E9411088091C5
:104CA0000F011F928F9384E695E09F938F930E944C
:104CB000AA080F900F900F900F9082E695E00C9449
:104CC0001108833009F44DC028F4813061F082303E
:104CD00049F10895853009F482C008F461C0863036
:104CE00009F49CC0089580911401681720F4861B74
:104CF0008093140102C01092140186E595E00E9491
:104D00001108809114011F928F9383E595E09F9382
:104D10008F930E94AA080F900F900F900F9081E53B
:104D200095E09AC080911301681720F4861B809348
:104D3000130102C01092130182E495E00E94110851
:104D4000809113011F928F938FE395E09F938F9330
:104D50000E94AA080F900F900F900F908DE395E09E
:104D60007BC080911201681720F4861B809312018A
:104D700002C0109212018DE295E00E94110880910C
:104D800012011F928F938AE295E09F938F930E9466
:104D9000AA080F900F900F900F9088E295E05CC0EA
:104DA00080911101681720F4861B8093110102C0C5
:104DB0001092110186E195E00E9411088091110185
:104DC0001F928F9383E195E09F938F930E94AA088F
:104DD0000F900F900F900F9081E195E03DC0809172
:104DE0001001681720F4861B8093100102C01092F6
:104DF00010018BEF94E00E941108809110011F9226
:104E00008F9388EF94E09F938F930E94AA080F904E
:104E10000F900F900F9086EF94E01EC080910F01CD
:104E2000681720F4861B80930F0102C010920F01B7
:104E30008EED94E00E94110880910F011F928F93D4
:104E40008BED94E09F938F930E94AA080F900F9090
:104E50000F900F9089ED94E00C941108CF93C82F18
:104E600084E599E00E9411086091AC017091AD0158
:104E70008091AE019091AF010E94311F1F928F93DC
:104E800021E539E03F932F930E94AA088CE499E032
:104E90000E9411081F92CF9329E439E03F932F938A
:104EA0000E94AA0887E499E00E94110861E070E07E
:104EB00080E090E004C0660F771F881F991FCA9595
:104EC000D2F70E94AA1B8DB79EB708960FB6F8942A
:104ED0009EBF0FBE8DBFCF910C94B617CF93482FB6
:104EE00050E0FA013697E334F10508F0AEC2E0591C
:104EF000FF4F0C94D72C82E79FE00E94110882EBB1
:104F00009CE00E9411080E9444221F928F938FEA16
:104F10009CE09F938F930E94AA088DEA9CE00E94D8
:104F200011080E943B22C82F8AE99CE00E941108C8
:104F30001F92CF9325E93CE03F932F930E94AA084C
:104F400083E99CE00E94110889E89CE00E94110816
:104F50008C2F81701F928F9326E83CE03F932F9314
:104F60000E94AA0884E89CE00E9411088AE79CE05D
:104F70000E941108C1FB882780F91F928F9327E7B1
:104F80003CE03F932F930E94AA0885E79CE00E9493
:104F9000110889E69CE00E941108C2FB882780F96D
:104FA0001F928F9326E63CE03F932F930E94AA081E
:104FB00084E69CE00E9411088BE59CE00E941108A9
:104FC000C3FBCC27C0F91F92CF9388E59CE09F9349
:104FD0008F930E94AA0886E59CE00E9411080E9417
:104FE0004D22C82F82E49CE00E9411081F92CF93AB
:104FF0002DE33CE03F932F930E94AA088BE39CE0B3
:105000000E94110882E29CE00E9411088C2F81709E
:105010001F928F932FE13CE03F932F930E94AA08A9
:105020008DB79EB780960FB6F8949EBF0FBE8DBF0A
:105030008DE19CE00E94110886E09CE00E9411082E
:10504000C1FB882780F91F928F9323E03CE03F93B8
:105050002F930E94AA0881E09CE00E9411088FEE25
:105060009BE00E941108C2FB882780F91F928F9352
:105070002CEE3BE03F932F930E94AA088AEE9BE020
:105080000E94110888ED9BE00E941108C3FB88274D
:1050900080F91F928F9325ED3BE03F932F930E9461
:1050A000AA0883ED9BE00E94110889EC9BE00E9416
:1050B0001108C4FB882780F91F928F9326EC3BE0F0
:1050C0003F932F930E94AA0884EC9BE00E94110852
:1050D00082EB9BE00E941108C5FB882780F91F9294
:1050E0008F932FEA3BE03F932F930E94AA088DEA0B
:1050F0009BE00E94110881E99BE00E941108C6FB19
:10510000882780F91F928F932EE83BE03F932F93DF
:105110000E94AA088CE89BE00E94110884E89BE0AA
:105120000E941108C7FBCC27C0F91F92CF9381E8DA
:105130009BE09F938F930E94AA088FE79BE00E94B9
:1051400011088DB79EB74C960FB6F8949EBF0FBE50
:105150008DBF1DC00E94D711892B79F00E94D711F5
:105160009093D6018093D5010E94B61780E090E01D
:105170000E94D21189E69FE008C08091D5019091EC
:10518000D6010E94D2118EE59FE00E941108C1E075
:1051900061C183E69BE00E9411088CE49BE00E94C1
:1051A000110884E39BE00E9411088CE19BE00E94BF
:1051B000110882E09BE00E9411088BEE9AE00E94A9
:1051C00011088BEC9AE00E94110885EB9AE00E948E
:1051D000110884EA9AE00E9411088CE89AE00E9483
:1051E00011088CE79AE00E94110882E69AE00E947A
:1051F000110889E49AE00E94110880E39AE00E9475
:10520000110887E19AE00E9411088EEF99E00E9450
:1052100011088DED99E00E9411088BEB99E00E9436
:10522000110881EA99E0B1CF8091C301817F8E7F1F
:105230008093C3010E94FE2489E49FE00E9411082C
:1052400085E49FE00E94110881E08093D4019FCF04
:105250000E94B6178CE29FE00E9411089FEF23ED99
:1052600080E3915020408040E1F700C000000E94A0
:1052700079208CE19FE089CF8091C301C82FC17054
:1052800080FF09C089E09FE00E9411088091C3015E
:10529000817F8E7F44C087EF9EE00E94110880913D
:1052A000C30181608093C30172CF8091C30181FBF0
:1052B000CC27C0F991E0C927C0FB81F98093C301D5
:1052C000CC2319F08EED9EE025C084EC9EE05DCFEE
:1052D0008091C30182FBCC27C0F991E0C927C0FBB4
:1052E00082F98093C301CC2319F089EA9EE012C0B1
:1052F0008DE89EE04ACF8091C30183FBCC27C0F9A3
:1053000091E0C927C0FB83F98093C301CC2351F0FE
:1053100085E79EE00E9411088091C301816080931F
:10532000C30198C08CE59EE030CF85E49EE00E94EA
:10533000110886E29EE00E94110881EF9DE00E9424
:10534000110884EC9DE00E9411088FE79DE00E9407
:10535000110881E59DE019CF8091C7019091C801A6
:10536000A091C901B091CA01BF93AF939F938F934E
:105370008DE39DE09F938F930E94AA080F900F905A
:105380000F900F900F900F9002CF87E29DE00E9448
:1053900011080E94DC111F928F938DE09DE09F9376
:1053A0008F930E94AA0880910B011F928F9386EF22
:1053B0009CE09F938F930E94AA0880914C011F92BA
:1053C0008F9383EE9CE09F938F930E94AA088DB7E2
:1053D0009EB70C960FB6F8949EBF0FBE8DBFD7CE6A
:1053E0000E94B617C0910C0181E0C827C0930C0140
:1053F000CC2329F084ED9CE00E9411082BC084ECA2
:105400009CE0C3CE81E890E00E9438129FEF21EE2D
:1054100084E0915020408040E1F700C0000080E02F
:1054200090E00E9438129FEF29E688E191502040D9
:105430008040E1F700C00000AACE80E003C08D519B
:1054400001C089530E942E27A2CE82EC9CE00E94CC
:105450001108C0E08C2FCF91089580E0089580E07E
:105460000895CF93C82F8091D401813071F020F03E
:10547000823009F44EC05DC1A0910D01B0910E01C2
:105480008C91823209F057C107C0A0910D01B091F3
:105490000E018C91823249F48C2F0E942D2A8111A9
:1054A00035C08C2F0E946E2732C08C2F0E942F2A6D
:1054B00081112CC0C431F1F090F4CB30A1F0C03197
:1054C00001F50E940A2586E199E00E94110882E117
:1054D00099E00E94110882E08093D40117C0C9327C
:1054E00049F0C83371F40E94FE2483E499E00E94DD
:1054F00011080CC08FE299E00E9411081092D401AB
:105500001CC180E199E00E94110817C181E08170FF
:1055100016C1C83228F5CE3108F0C0C0CB30A1F199
:10552000D0F4C73009F0E8C08EE18093140182E323
:10553000809313018AE08093120184E1809311012A
:1055400088E08093100188E280930F0188EB96E059
:105550000E941108D6C0C33141F1C431C1F0CCC0A2
:10556000CB3409F4BEC028F4C93289F0C83361F0E5
:10557000C3C0C13509F4B3C0C23509F4AEC0CE34DE
:1055800009F0BAC06AE0B3C00E940A25BAC01092FE
:10559000D7018BEE96E00E94110887EE96E00E94FC
:1055A000110881E08093D401CAC08BE896E00E9484
:1055B000110886E796E00E941108809114011F925D
:1055C0008F9383E796E09F938F930E94AA0881E7C9
:1055D00096E00E9411088CE596E00E9411088091E7
:1055E00013011F928F9389E596E09F938F930E94FA
:1055F000AA0887E596E00E94110885E496E00E94DB
:105600001108809112011F928F9382E496E09F937C
:105610008F930E94AA0880E496E00E9411088CE211
:1056200096E00E941108809111011F928F9389E2E8
:1056300096E09F938F930E94AA0887E296E00E94CB
:1056400011088FE096E00E941108809110011F92CE
:105650008F938CE096E09F938F930E94AA088AE034
:1056600096E00E94110880EF95E00E941108809159
:105670000F011F928F938DEE95E09F938F930E9461
:10568000AA088BEE95E00E9411088DB79EB7489648
:105690000FB6F8949EBF0FBE8DBF33C0CE51EC2F16
:1056A000F0E0E25DFE4F80818093D70182ED96E0CD
:1056B0000E9411088091D7011F928F938FEC96E082
:1056C0009F938F930E94AA088DEC96E00E94110888
:1056D0000F900F900F900F9014C061E003C061E035
:1056E00006C06AE08091D7010E9470250AC08091AF
:1056F000D7010E94612605C086EB96E00E94110842
:1057000016C084EB96E00E9411088091D7011F9289
:105710008F9381EB96E09F938F930E94AA088EEA65
:1057200096E00E9411080F900F900F900F9081E06B
:1057300006C01092D40180E002C080E0E8CECF9194
:10574000089504D06894B1118DC0089570D088F088
:105750009F5790F0B92F9927B751A0F0D1F0660F5D
:10576000771F881F991F1AF0BA95C9F712C0B13078
:1057700081F077D0B1E0089574C0672F782F882723
:10578000B85F39F0B93FCCF3869577956795B395B7
:10579000D9F73EF490958095709561957F4F8F4F26
:1057A0009F4F0895E89409C097FB3EF4909580952B
:1057B000709561957F4F8F4F9F4F9923A9F0F92FD7
:1057C00096E9BB279395F695879577956795B79555
:1057D000F111F8CFFAF4BB0F11F460FF1BC06F5F3B
:1057E0007F4F8F4F9F4F16C0882311F096E911C04D
:1057F000772321F09EE8872F762F05C0662371F06E
:1058000096E8862F70E060E02AF09A95660F771F81
:10581000881FDAF7880F9695879597F9089557FDB1
:105820009058440F551F59F05F3F71F04795880F0E
:1058300097FB991F61F09F3F79F0879508951216A5
:1058400013061406551FF2CF4695F1DF08C0161651
:1058500017061806991FF1CF869571056105089402
:105860000895E894BB2766277727CB0197F9089519
:105870000BD078C069D028F06ED018F0952309F0CD
:105880005AC05FC01124EECFCADFA0F3959FD1F3B9
:10589000950F50E0551F629FF001729FBB27F00DDE
:1058A000B11D639FAA27F00DB11DAA1F649F662733
:1058B000B00DA11D661F829F2227B00DA11D621F82
:1058C000739FB00DA11D621F839FA00D611D221F3C
:1058D000749F3327A00D611D231F849F600D211D20
:1058E000822F762F6A2F11249F5750408AF0E1F0C3
:1058F00088234AF0EE0FFF1FBB1F661F771F881F0C
:1059000091505040A9F79E3F510570F014C0AACFA6
:105910005F3FECF3983EDCF3869577956795B795F6
:10592000F795E7959F5FC1F7FE2B880F911D969520
:10593000879597F9089597F99F6780E870E060E090
:1059400008959FEF80EC089500240A941616170618
:1059500018060906089500240A9412161306140660
:1059600005060895092E0394000C11F4882352F0C3
:10597000BB0F40F4BF2B11F460FF04C06F5F7F4F7B
:105980008F4F9F4F089597FB072E16F4009407D072
:1059900077FD09D00E94DD2C07FC05D03EF49095E0
:1059A00081959F4F0895709561957F4F0895EE0FF3
:1059B000FF1F0590F491E02D0994AA1BBB1B51E138
:1059C00007C0AA1FBB1FA617B70710F0A61BB70B6F
:1059D000881F991F5A95A9F780959095BC01CD0114
:1059E0000895F999FECF92BD81BDF89A992780B5A7
:1059F0000895A8E1B0E042E050E00C94142D262F69
:105A0000F999FECF1FBA92BD81BD20BD0FB6F894A3
:105A1000FA9AF99A0FBE019608950E94FF2C272F3B
:105A20000C94002DDC01CB01FC01F999FECF06C0DE
:105A3000F2BDE1BDF89A319600B40D92415050404C
:085A4000B8F70895F894FFCFB8
:105A480005640A450B220BEE0ABB0A0101B10128C5
:105A580008140A321E3F4D362039C4037703410328
:105A68002103E8025B0274028D02A602C60201024B
:085A78000304050607080900FC
:00000001FF
